{
  "_format": "hh-sol-artifact-1",
  "contractName": "Election",
  "sourceName": "contracts/Election.sol",
  "abi": [
    {
      "inputs": [
        {
          "internalType": "string[]",
          "name": "_candidateNames",
          "type": "string[]"
        },
        {
          "internalType": "string",
          "name": "title",
          "type": "string"
        },
        {
          "internalType": "string",
          "name": "description",
          "type": "string"
        },
        {
          "internalType": "uint256",
          "name": "endDate",
          "type": "uint256"
        }
      ],
      "name": "createElection",
      "outputs": [],
      "stateMutability": "nonpayable",
      "type": "function"
    },
    {
      "inputs": [
        {
          "internalType": "uint256",
          "name": "",
          "type": "uint256"
        }
      ],
      "name": "electionCodes",
      "outputs": [
        {
          "internalType": "string",
          "name": "",
          "type": "string"
        }
      ],
      "stateMutability": "view",
      "type": "function"
    },
    {
      "inputs": [
        {
          "internalType": "string",
          "name": "",
          "type": "string"
        }
      ],
      "name": "elections",
      "outputs": [
        {
          "internalType": "string",
          "name": "eelectionCode",
          "type": "string"
        },
        {
          "internalType": "uint256",
          "name": "ecandidatesCount",
          "type": "uint256"
        },
        {
          "internalType": "string",
          "name": "description",
          "type": "string"
        },
        {
          "internalType": "string",
          "name": "title",
          "type": "string"
        },
        {
          "internalType": "uint256",
          "name": "endDate",
          "type": "uint256"
        }
      ],
      "stateMutability": "view",
      "type": "function"
    },
    {
      "inputs": [],
      "name": "getAllElection",
      "outputs": [
        {
          "internalType": "string[]",
          "name": "",
          "type": "string[]"
        }
      ],
      "stateMutability": "view",
      "type": "function"
    },
    {
      "inputs": [
        {
          "internalType": "string",
          "name": "_electionCode",
          "type": "string"
        }
      ],
      "name": "getElectionByCode",
      "outputs": [
        {
          "internalType": "string",
          "name": "title",
          "type": "string"
        },
        {
          "internalType": "string",
          "name": "description",
          "type": "string"
        },
        {
          "internalType": "uint256",
          "name": "endDate",
          "type": "uint256"
        },
        {
          "components": [
            {
              "internalType": "uint256",
              "name": "id",
              "type": "uint256"
            },
            {
              "internalType": "string",
              "name": "name",
              "type": "string"
            },
            {
              "internalType": "uint256",
              "name": "voteCount",
              "type": "uint256"
            }
          ],
          "internalType": "struct Election.Candidate[]",
          "name": "ecandidates",
          "type": "tuple[]"
        }
      ],
      "stateMutability": "view",
      "type": "function"
    },
    {
      "inputs": [
        {
          "internalType": "string",
          "name": "_electionCode",
          "type": "string"
        },
        {
          "internalType": "uint256",
          "name": "_candidateId",
          "type": "uint256"
        }
      ],
      "name": "vota",
      "outputs": [],
      "stateMutability": "nonpayable",
      "type": "function"
    }
  ],
  "bytecode": "0x6080604052348015600f57600080fd5b50611b128061001f6000396000f3fe608060405234801561001057600080fd5b50600436106100625760003560e01c80632410734d146100675780634a3ccc96146100835780635597f083146100b7578063a0e29698146100d5578063d72ae13014610108578063df7125ff14610124575b600080fd5b610081600480360381019061007c9190610de3565b610154565b005b61009d60048036038101906100989190610e3f565b6102ef565b6040516100ae959493929190610f16565b60405180910390f35b6100bf6104d3565b6040516100cc919061108a565b60405180910390f35b6100ef60048036038101906100ea9190610e3f565b6105ac565b6040516100ff94939291906111cd565b60405180910390f35b610122600480360381019061011d919061130d565b61086b565b005b61013e600480360381019061013991906113c8565b610a10565b60405161014b91906113f5565b60405180910390f35b600080836040516101659190611453565b908152602001604051809103902090508060030160003373ffffffffffffffffffffffffffffffffffffffff1673ffffffffffffffffffffffffffffffffffffffff16815260200190815260200160002060009054906101000a900460ff1615610204576040517f08c379a00000000000000000000000000000000000000000000000000000000081526004016101fb906114dc565b60405180910390fd5b60008211610247576040517f08c379a000000000000000000000000000000000000000000000000000000000815260040161023e90611548565b60405180910390fd5b60018160030160003373ffffffffffffffffffffffffffffffffffffffff1673ffffffffffffffffffffffffffffffffffffffff16815260200190815260200160002060006101000a81548160ff021916908315150217905550806002016001836102b29190611597565b815481106102c3576102c26115cb565b5b906000526020600020906003020160020160008154809291906102e5906115fa565b9190505550505050565b60008180516020810182018051848252602083016020850120818352809550505050505060009150905080600001805461032890611671565b80601f016020809104026020016040519081016040528092919081815260200182805461035490611671565b80156103a15780601f10610376576101008083540402835291602001916103a1565b820191906000526020600020905b81548152906001019060200180831161038457829003601f168201915b5050505050908060010154908060040180546103bc90611671565b80601f01602080910402602001604051908101604052809291908181526020018280546103e890611671565b80156104355780601f1061040a57610100808354040283529160200191610435565b820191906000526020600020905b81548152906001019060200180831161041857829003601f168201915b50505050509080600501805461044a90611671565b80601f016020809104026020016040519081016040528092919081815260200182805461047690611671565b80156104c35780601f10610498576101008083540402835291602001916104c3565b820191906000526020600020905b8154815290600101906020018083116104a657829003601f168201915b5050505050908060060154905085565b60606001805480602002602001604051908101604052809291908181526020016000905b828210156105a357838290600052602060002001805461051690611671565b80601f016020809104026020016040519081016040528092919081815260200182805461054290611671565b801561058f5780601f106105645761010080835404028352916020019161058f565b820191906000526020600020905b81548152906001019060200180831161057257829003601f168201915b5050505050815260200190600101906104f7565b50505050905090565b60608060006060600080866040516105c49190611453565b908152602001604051809103902090508060050180546105e390611671565b80601f016020809104026020016040519081016040528092919081815260200182805461060f90611671565b801561065c5780601f106106315761010080835404028352916020019161065c565b820191906000526020600020905b81548152906001019060200180831161063f57829003601f168201915b5050505050945080600401805461067290611671565b80601f016020809104026020016040519081016040528092919081815260200182805461069e90611671565b80156106eb5780601f106106c0576101008083540402835291602001916106eb565b820191906000526020600020905b8154815290600101906020018083116106ce57829003601f168201915b5050505050935080600601549250806001015467ffffffffffffffff81111561071757610716610c82565b5b60405190808252806020026020018201604052801561075057816020015b61073d610c32565b8152602001906001900390816107355790505b50915060005b816001015481101561086257816002018181548110610778576107776115cb565b5b9060005260206000209060030201604051806060016040529081600082015481526020016001820180546107ab90611671565b80601f01602080910402602001604051908101604052809291908181526020018280546107d790611671565b80156108245780601f106107f957610100808354040283529160200191610824565b820191906000526020600020905b81548152906001019060200180831161080757829003601f168201915b5050505050815260200160028201548152505083828151811061084a576108496115cb565b5b60200260200101819052508080600101915050610756565b50509193509193565b60605b610876610abc565b9050600080826040516108899190611453565b908152602001604051809103902060000180546108a590611671565b90500361086e57600080826040516108bd9190611453565b90815260200160405180910390209050818160000190816108de919061184e565b50848160050190816108f0919061184e565b5083816004019081610902919061184e565b5082816006018190555060005b86518110156109d25781600101600081548092919061092d906115fa565b91905055508160020160405180606001604052808460010154815260200189848151811061095e5761095d6115cb565b5b60200260200101518152602001600081525090806001815401808255809150506001900390600052602060002090600302016000909190919091506000820151816000015560208201518160010190816109b8919061184e565b50604082015181600201555050808060010191505061090f565b50600182908060018154018082558091505060019003906000526020600020016000909190919091509081610a07919061184e565b50505050505050565b60018181548110610a2057600080fd5b906000526020600020016000915090508054610a3b90611671565b80601f0160208091040260200160405190810160405280929190818152602001828054610a6790611671565b8015610ab45780601f10610a8957610100808354040283529160200191610ab4565b820191906000526020600020905b815481529060010190602001808311610a9757829003601f168201915b505050505081565b606060006040518060600160405280603e8152602001611a9f603e9139905060004233600180549050604051602001610af7939291906119bb565b60405160208183030381529060405280519060200120604051602001610b1d9190611a23565b60405160208183030381529060405290506000600667ffffffffffffffff811115610b4b57610b4a610c82565b5b6040519080825280601f01601f191660200182016040528015610b7d5781602001600182028036833780820191505090505b50905060005b6006811015610c2857838451848381518110610ba257610ba16115cb565b5b602001015160f81c60f81b60f81c60ff16610bbd9190611a6d565b81518110610bce57610bcd6115cb565b5b602001015160f81c60f81b828281518110610bec57610beb6115cb565b5b60200101907effffffffffffffffffffffffffffffffffffffffffffffffffffffffffffff1916908160001a9053508080600101915050610b83565b5080935050505090565b60405180606001604052806000815260200160608152602001600081525090565b6000604051905090565b600080fd5b600080fd5b600080fd5b600080fd5b6000601f19601f8301169050919050565b7f4e487b7100000000000000000000000000000000000000000000000000000000600052604160045260246000fd5b610cba82610c71565b810181811067ffffffffffffffff82111715610cd957610cd8610c82565b5b80604052505050565b6000610cec610c53565b9050610cf88282610cb1565b919050565b600067ffffffffffffffff821115610d1857610d17610c82565b5b610d2182610c71565b9050602081019050919050565b82818337600083830152505050565b6000610d50610d4b84610cfd565b610ce2565b905082815260208101848484011115610d6c57610d6b610c6c565b5b610d77848285610d2e565b509392505050565b600082601f830112610d9457610d93610c67565b5b8135610da4848260208601610d3d565b91505092915050565b6000819050919050565b610dc081610dad565b8114610dcb57600080fd5b50565b600081359050610ddd81610db7565b92915050565b60008060408385031215610dfa57610df9610c5d565b5b600083013567ffffffffffffffff811115610e1857610e17610c62565b5b610e2485828601610d7f565b9250506020610e3585828601610dce565b9150509250929050565b600060208284031215610e5557610e54610c5d565b5b600082013567ffffffffffffffff811115610e7357610e72610c62565b5b610e7f84828501610d7f565b91505092915050565b600081519050919050565b600082825260208201905092915050565b60005b83811015610ec2578082015181840152602081019050610ea7565b60008484015250505050565b6000610ed982610e88565b610ee38185610e93565b9350610ef3818560208601610ea4565b610efc81610c71565b840191505092915050565b610f1081610dad565b82525050565b600060a0820190508181036000830152610f308188610ece565b9050610f3f6020830187610f07565b8181036040830152610f518186610ece565b90508181036060830152610f658185610ece565b9050610f746080830184610f07565b9695505050505050565b600081519050919050565b600082825260208201905092915050565b6000819050602082019050919050565b600082825260208201905092915050565b6000610fc682610e88565b610fd08185610faa565b9350610fe0818560208601610ea4565b610fe981610c71565b840191505092915050565b60006110008383610fbb565b905092915050565b6000602082019050919050565b600061102082610f7e565b61102a8185610f89565b93508360208202850161103c85610f9a565b8060005b8581101561107857848403895281516110598582610ff4565b945061106483611008565b925060208a01995050600181019050611040565b50829750879550505050505092915050565b600060208201905081810360008301526110a48184611015565b905092915050565b600081519050919050565b600082825260208201905092915050565b6000819050602082019050919050565b6110e181610dad565b82525050565b60006060830160008301516110ff60008601826110d8565b50602083015184820360208601526111178282610fbb565b915050604083015161112c60408601826110d8565b508091505092915050565b600061114383836110e7565b905092915050565b6000602082019050919050565b6000611163826110ac565b61116d81856110b7565b93508360208202850161117f856110c8565b8060005b858110156111bb578484038952815161119c8582611137565b94506111a78361114b565b925060208a01995050600181019050611183565b50829750879550505050505092915050565b600060808201905081810360008301526111e78187610ece565b905081810360208301526111fb8186610ece565b905061120a6040830185610f07565b818103606083015261121c8184611158565b905095945050505050565b600067ffffffffffffffff82111561124257611241610c82565b5b602082029050602081019050919050565b600080fd5b600061126b61126684611227565b610ce2565b9050808382526020820190506020840283018581111561128e5761128d611253565b5b835b818110156112d557803567ffffffffffffffff8111156112b3576112b2610c67565b5b8086016112c08982610d7f565b85526020850194505050602081019050611290565b5050509392505050565b600082601f8301126112f4576112f3610c67565b5b8135611304848260208601611258565b91505092915050565b6000806000806080858703121561132757611326610c5d565b5b600085013567ffffffffffffffff81111561134557611344610c62565b5b611351878288016112df565b945050602085013567ffffffffffffffff81111561137257611371610c62565b5b61137e87828801610d7f565b935050604085013567ffffffffffffffff81111561139f5761139e610c62565b5b6113ab87828801610d7f565b92505060606113bc87828801610dce565b91505092959194509250565b6000602082840312156113de576113dd610c5d565b5b60006113ec84828501610dce565b91505092915050565b6000602082019050818103600083015261140f8184610ece565b905092915050565b600081905092915050565b600061142d82610e88565b6114378185611417565b9350611447818560208601610ea4565b80840191505092915050565b600061145f8284611422565b915081905092915050565b7f486169206769612720766f7461746f207065722071756573746120656c657a6960008201527f6f6e652100000000000000000000000000000000000000000000000000000000602082015250565b60006114c6602483610e93565b91506114d18261146a565b604082019050919050565b600060208201905081810360008301526114f5816114b9565b9050919050565b7f43616e64696461746f206e6f6e2076616c69646f210000000000000000000000600082015250565b6000611532601583610e93565b915061153d826114fc565b602082019050919050565b6000602082019050818103600083015261156181611525565b9050919050565b7f4e487b7100000000000000000000000000000000000000000000000000000000600052601160045260246000fd5b60006115a282610dad565b91506115ad83610dad565b92508282039050818111156115c5576115c4611568565b5b92915050565b7f4e487b7100000000000000000000000000000000000000000000000000000000600052603260045260246000fd5b600061160582610dad565b91507fffffffffffffffffffffffffffffffffffffffffffffffffffffffffffffffff820361163757611636611568565b5b600182019050919050565b7f4e487b7100000000000000000000000000000000000000000000000000000000600052602260045260246000fd5b6000600282049050600182168061168957607f821691505b60208210810361169c5761169b611642565b5b50919050565b60008190508160005260206000209050919050565b60006020601f8301049050919050565b600082821b905092915050565b6000600883026117047fffffffffffffffffffffffffffffffffffffffffffffffffffffffffffffffff826116c7565b61170e86836116c7565b95508019841693508086168417925050509392505050565b6000819050919050565b600061174b61174661174184610dad565b611726565b610dad565b9050919050565b6000819050919050565b61176583611730565b61177961177182611752565b8484546116d4565b825550505050565b600090565b61178e611781565b61179981848461175c565b505050565b5b818110156117bd576117b2600082611786565b60018101905061179f565b5050565b601f821115611802576117d3816116a2565b6117dc846116b7565b810160208510156117eb578190505b6117ff6117f7856116b7565b83018261179e565b50505b505050565b600082821c905092915050565b600061182560001984600802611807565b1980831691505092915050565b600061183e8383611814565b9150826002028217905092915050565b61185782610e88565b67ffffffffffffffff8111156118705761186f610c82565b5b61187a8254611671565b6118858282856117c1565b600060209050601f8311600181146118b857600084156118a6578287015190505b6118b08582611832565b865550611918565b601f1984166118c6866116a2565b60005b828110156118ee578489015182556001820191506020850194506020810190506118c9565b8683101561190b5784890151611907601f891682611814565b8355505b6001600288020188555050505b505050505050565b6000819050919050565b61193b61193682610dad565b611920565b82525050565b600073ffffffffffffffffffffffffffffffffffffffff82169050919050565b600061196c82611941565b9050919050565b60008160601b9050919050565b600061198b82611973565b9050919050565b600061199d82611980565b9050919050565b6119b56119b082611961565b611992565b82525050565b60006119c7828661192a565b6020820191506119d782856119a4565b6014820191506119e7828461192a565b602082019150819050949350505050565b6000819050919050565b6000819050919050565b611a1d611a18826119f8565b611a02565b82525050565b6000611a2f8284611a0c565b60208201915081905092915050565b7f4e487b7100000000000000000000000000000000000000000000000000000000600052601260045260246000fd5b6000611a7882610dad565b9150611a8383610dad565b925082611a9357611a92611a3e565b5b82820690509291505056fe4142434445464748494a4b4c4d4e4f505152535455565758595a6162636465666768696a6b6c6d6e6f707172737475767778797a30313233343536373839a2646970667358221220b1a0ec2db453a214d334cff6a953f5e8f525143f9e57cc8335c951bd1b7025f564736f6c634300081b0033",
  "linkReferences": {},
  "deployedLinkReferences": {}
}