{
  "_format": "hh-sol-artifact-1",
  "contractName": "Election",
  "sourceName": "contracts/Election.sol",
  "abi": [
    {
      "inputs": [
        {
          "internalType": "string[]",
          "name": "_candidateNames",
          "type": "string[]"
        },
        {
          "internalType": "string",
          "name": "title",
          "type": "string"
        },
        {
          "internalType": "string",
          "name": "description",
          "type": "string"
        },
        {
          "internalType": "uint256",
          "name": "endDate",
          "type": "uint256"
        }
      ],
      "name": "createElection",
      "outputs": [],
      "stateMutability": "payable",
      "type": "function"
    },
    {
      "inputs": [
        {
          "internalType": "string",
          "name": "_electionCode",
          "type": "string"
        }
      ],
      "name": "deleteElection",
      "outputs": [],
      "stateMutability": "nonpayable",
      "type": "function"
    },
    {
      "inputs": [],
      "name": "electionCancelled",
      "outputs": [
        {
          "internalType": "bool",
          "name": "",
          "type": "bool"
        }
      ],
      "stateMutability": "view",
      "type": "function"
    },
    {
      "inputs": [
        {
          "internalType": "uint256",
          "name": "",
          "type": "uint256"
        }
      ],
      "name": "electionCodes",
      "outputs": [
        {
          "internalType": "string",
          "name": "",
          "type": "string"
        }
      ],
      "stateMutability": "view",
      "type": "function"
    },
    {
      "inputs": [
        {
          "internalType": "string",
          "name": "",
          "type": "string"
        }
      ],
      "name": "elections",
      "outputs": [
        {
          "internalType": "string",
          "name": "eelectionCode",
          "type": "string"
        },
        {
          "internalType": "uint256",
          "name": "ecandidatesCount",
          "type": "uint256"
        },
        {
          "internalType": "string",
          "name": "description",
          "type": "string"
        },
        {
          "internalType": "string",
          "name": "title",
          "type": "string"
        },
        {
          "internalType": "uint256",
          "name": "endDate",
          "type": "uint256"
        },
        {
          "internalType": "address",
          "name": "creator",
          "type": "address"
        }
      ],
      "stateMutability": "view",
      "type": "function"
    },
    {
      "inputs": [],
      "name": "getAllElection",
      "outputs": [
        {
          "internalType": "string[]",
          "name": "",
          "type": "string[]"
        }
      ],
      "stateMutability": "view",
      "type": "function"
    },
    {
      "inputs": [
        {
          "internalType": "string",
          "name": "_electionCode",
          "type": "string"
        }
      ],
      "name": "getElectionByCode",
      "outputs": [
        {
          "internalType": "string",
          "name": "title",
          "type": "string"
        },
        {
          "internalType": "string",
          "name": "description",
          "type": "string"
        },
        {
          "internalType": "uint256",
          "name": "endDate",
          "type": "uint256"
        },
        {
          "components": [
            {
              "internalType": "uint256",
              "name": "id",
              "type": "uint256"
            },
            {
              "internalType": "string",
              "name": "name",
              "type": "string"
            },
            {
              "internalType": "uint256",
              "name": "voteCount",
              "type": "uint256"
            }
          ],
          "internalType": "struct Election.Candidate[]",
          "name": "ecandidates",
          "type": "tuple[]"
        }
      ],
      "stateMutability": "view",
      "type": "function"
    },
    {
      "inputs": [
        {
          "internalType": "string",
          "name": "_electionCode",
          "type": "string"
        },
        {
          "internalType": "address",
          "name": "_voter",
          "type": "address"
        }
      ],
      "name": "hasVoted",
      "outputs": [
        {
          "internalType": "bool",
          "name": "",
          "type": "bool"
        }
      ],
      "stateMutability": "view",
      "type": "function"
    },
    {
      "inputs": [
        {
          "internalType": "string",
          "name": "_electionCode",
          "type": "string"
        },
        {
          "internalType": "uint256",
          "name": "_candidateId",
          "type": "uint256"
        }
      ],
      "name": "vota",
      "outputs": [],
      "stateMutability": "payable",
      "type": "function"
    }
  ],
  "bytecode": "0x608060405260008060006101000a81548160ff021916908315150217905550348015602957600080fd5b50612407806100396000396000f3fe6080604052600436106100865760003560e01c80635597f083116100595780635597f0831461013d5780639af06cd914610168578063a0e29698146101a5578063d72ae130146101e5578063df7125ff1461020157610086565b80632410734d1461008b57806336a8899f146100a75780633ec22278146100d25780634a3ccc96146100fb575b600080fd5b6100a560048036038101906100a091906112b7565b61023e565b005b3480156100b357600080fd5b506100bc61047b565b6040516100c9919061132e565b60405180910390f35b3480156100de57600080fd5b506100f960048036038101906100f49190611349565b61048c565b005b34801561010757600080fd5b50610122600480360381019061011d9190611349565b610696565b60405161013496959493929190611461565b60405180910390f35b34801561014957600080fd5b506101526108a0565b60405161015f91906115e3565b60405180910390f35b34801561017457600080fd5b5061018f600480360381019061018a9190611631565b610979565b60405161019c919061132e565b60405180910390f35b3480156101b157600080fd5b506101cc60048036038101906101c79190611349565b6109ef565b6040516101dc94939291906117ae565b60405180910390f35b6101ff60048036038101906101fa91906118ee565b610caf565b005b34801561020d57600080fd5b50610228600480360381019061022391906119a9565b610ee4565b60405161023591906119d6565b60405180910390f35b60006001836040516102509190611a34565b908152602001604051809103902090508060030160003373ffffffffffffffffffffffffffffffffffffffff1673ffffffffffffffffffffffffffffffffffffffff16815260200190815260200160002060009054906101000a900460ff16156102ef576040517f08c379a00000000000000000000000000000000000000000000000000000000081526004016102e690611abd565b60405180910390fd5b600082118015610303575080600101548211155b610342576040517f08c379a000000000000000000000000000000000000000000000000000000000815260040161033990611b29565b60405180910390fd5b8060060154421115610389576040517f08c379a000000000000000000000000000000000000000000000000000000000815260040161038090611b95565b60405180910390fd5b66b1a2bc2ec500003410156103d3576040517f08c379a00000000000000000000000000000000000000000000000000000000081526004016103ca90611c27565b60405180910390fd5b60018160030160003373ffffffffffffffffffffffffffffffffffffffff1673ffffffffffffffffffffffffffffffffffffffff16815260200190815260200160002060006101000a81548160ff0219169083151502179055508060020160018361043e9190611c76565b8154811061044f5761044e611caa565b5b9060005260206000209060030201600201600081548092919061047190611cd9565b9190505550505050565b60008054906101000a900460ff1681565b600060018260405161049e9190611a34565b908152602001604051809103902090508060070160009054906101000a900473ffffffffffffffffffffffffffffffffffffffff1673ffffffffffffffffffffffffffffffffffffffff163373ffffffffffffffffffffffffffffffffffffffff1614610540576040517f08c379a000000000000000000000000000000000000000000000000000000000815260040161053790611d93565b60405180910390fd5b80600601544211610586576040517f08c379a000000000000000000000000000000000000000000000000000000000815260040161057d90611e25565b60405180910390fd5b60005b816001015481101561060c5760008260020182815481106105ad576105ac611caa565b5b906000526020600020906003020160020154146105ff576040517f08c379a00000000000000000000000000000000000000000000000000000000081526004016105f690611eb7565b60405180910390fd5b8080600101915050610589565b5060016000806101000a81548160ff0219169083151502179055508060070160009054906101000a900473ffffffffffffffffffffffffffffffffffffffff1673ffffffffffffffffffffffffffffffffffffffff166108fc479081150290604051600060405180830381858888f19350505050158015610691573d6000803e3d6000fd5b505050565b6001818051602081018201805184825260208301602085012081835280955050505050506000915090508060000180546106cf90611f06565b80601f01602080910402602001604051908101604052809291908181526020018280546106fb90611f06565b80156107485780601f1061071d57610100808354040283529160200191610748565b820191906000526020600020905b81548152906001019060200180831161072b57829003601f168201915b50505050509080600101549080600401805461076390611f06565b80601f016020809104026020016040519081016040528092919081815260200182805461078f90611f06565b80156107dc5780601f106107b1576101008083540402835291602001916107dc565b820191906000526020600020905b8154815290600101906020018083116107bf57829003601f168201915b5050505050908060050180546107f190611f06565b80601f016020809104026020016040519081016040528092919081815260200182805461081d90611f06565b801561086a5780601f1061083f5761010080835404028352916020019161086a565b820191906000526020600020905b81548152906001019060200180831161084d57829003601f168201915b5050505050908060060154908060070160009054906101000a900473ffffffffffffffffffffffffffffffffffffffff16905086565b60606002805480602002602001604051908101604052809291908181526020016000905b828210156109705783829060005260206000200180546108e390611f06565b80601f016020809104026020016040519081016040528092919081815260200182805461090f90611f06565b801561095c5780601f106109315761010080835404028352916020019161095c565b820191906000526020600020905b81548152906001019060200180831161093f57829003601f168201915b5050505050815260200190600101906108c4565b50505050905090565b600060018360405161098b9190611a34565b908152602001604051809103902060030160008373ffffffffffffffffffffffffffffffffffffffff1673ffffffffffffffffffffffffffffffffffffffff16815260200190815260200160002060009054906101000a900460ff16905092915050565b606080600060606000600186604051610a089190611a34565b90815260200160405180910390209050806005018054610a2790611f06565b80601f0160208091040260200160405190810160405280929190818152602001828054610a5390611f06565b8015610aa05780601f10610a7557610100808354040283529160200191610aa0565b820191906000526020600020905b815481529060010190602001808311610a8357829003601f168201915b50505050509450806004018054610ab690611f06565b80601f0160208091040260200160405190810160405280929190818152602001828054610ae290611f06565b8015610b2f5780601f10610b0457610100808354040283529160200191610b2f565b820191906000526020600020905b815481529060010190602001808311610b1257829003601f168201915b5050505050935080600601549250806001015467ffffffffffffffff811115610b5b57610b5a611156565b5b604051908082528060200260200182016040528015610b9457816020015b610b81611106565b815260200190600190039081610b795790505b50915060005b8160010154811015610ca657816002018181548110610bbc57610bbb611caa565b5b906000526020600020906003020160405180606001604052908160008201548152602001600182018054610bef90611f06565b80601f0160208091040260200160405190810160405280929190818152602001828054610c1b90611f06565b8015610c685780601f10610c3d57610100808354040283529160200191610c68565b820191906000526020600020905b815481529060010190602001808311610c4b57829003601f168201915b50505050508152602001600282015481525050838281518110610c8e57610c8d611caa565b5b60200260200101819052508080600101915050610b9a565b50509193509193565b60605b610cba610f90565b90506000600182604051610cce9190611a34565b90815260200160405180910390206000018054610cea90611f06565b905003610cb2576000600182604051610d039190611a34565b9081526020016040518091039020905081816000019081610d2491906120e3565b5084816005019081610d3691906120e3565b5083816004019081610d4891906120e3565b50828160060181905550338160070160006101000a81548173ffffffffffffffffffffffffffffffffffffffff021916908373ffffffffffffffffffffffffffffffffffffffff16021790555067016345785d8a0000341015610de0576040517f08c379a0000000000000000000000000000000000000000000000000000000008152600401610dd790612227565b60405180910390fd5b60005b8651811015610ea657816001016000815480929190610e0190611cd9565b919050555081600201604051806060016040528084600101548152602001898481518110610e3257610e31611caa565b5b6020026020010151815260200160008152509080600181540180825580915050600190039060005260206000209060030201600090919091909150600082015181600001556020820151816001019081610e8c91906120e3565b506040820151816002015550508080600101915050610de3565b50600282908060018154018082558091505060019003906000526020600020016000909190919091509081610edb91906120e3565b50505050505050565b60028181548110610ef457600080fd5b906000526020600020016000915090508054610f0f90611f06565b80601f0160208091040260200160405190810160405280929190818152602001828054610f3b90611f06565b8015610f885780601f10610f5d57610100808354040283529160200191610f88565b820191906000526020600020905b815481529060010190602001808311610f6b57829003601f168201915b505050505081565b606060006040518060600160405280603e8152602001612394603e9139905060004233600280549050604051602001610fcb939291906122b0565b60405160208183030381529060405280519060200120604051602001610ff19190612318565b60405160208183030381529060405290506000600667ffffffffffffffff81111561101f5761101e611156565b5b6040519080825280601f01601f1916602001820160405280156110515781602001600182028036833780820191505090505b50905060005b60068110156110fc5783845184838151811061107657611075611caa565b5b602001015160f81c60f81b60f81c60ff166110919190612362565b815181106110a2576110a1611caa565b5b602001015160f81c60f81b8282815181106110c0576110bf611caa565b5b60200101907effffffffffffffffffffffffffffffffffffffffffffffffffffffffffffff1916908160001a9053508080600101915050611057565b5080935050505090565b60405180606001604052806000815260200160608152602001600081525090565b6000604051905090565b600080fd5b600080fd5b600080fd5b600080fd5b6000601f19601f8301169050919050565b7f4e487b7100000000000000000000000000000000000000000000000000000000600052604160045260246000fd5b61118e82611145565b810181811067ffffffffffffffff821117156111ad576111ac611156565b5b80604052505050565b60006111c0611127565b90506111cc8282611185565b919050565b600067ffffffffffffffff8211156111ec576111eb611156565b5b6111f582611145565b9050602081019050919050565b82818337600083830152505050565b600061122461121f846111d1565b6111b6565b9050828152602081018484840111156112405761123f611140565b5b61124b848285611202565b509392505050565b600082601f8301126112685761126761113b565b5b8135611278848260208601611211565b91505092915050565b6000819050919050565b61129481611281565b811461129f57600080fd5b50565b6000813590506112b18161128b565b92915050565b600080604083850312156112ce576112cd611131565b5b600083013567ffffffffffffffff8111156112ec576112eb611136565b5b6112f885828601611253565b9250506020611309858286016112a2565b9150509250929050565b60008115159050919050565b61132881611313565b82525050565b6000602082019050611343600083018461131f565b92915050565b60006020828403121561135f5761135e611131565b5b600082013567ffffffffffffffff81111561137d5761137c611136565b5b61138984828501611253565b91505092915050565b600081519050919050565b600082825260208201905092915050565b60005b838110156113cc5780820151818401526020810190506113b1565b60008484015250505050565b60006113e382611392565b6113ed818561139d565b93506113fd8185602086016113ae565b61140681611145565b840191505092915050565b61141a81611281565b82525050565b600073ffffffffffffffffffffffffffffffffffffffff82169050919050565b600061144b82611420565b9050919050565b61145b81611440565b82525050565b600060c082019050818103600083015261147b81896113d8565b905061148a6020830188611411565b818103604083015261149c81876113d8565b905081810360608301526114b081866113d8565b90506114bf6080830185611411565b6114cc60a0830184611452565b979650505050505050565b600081519050919050565b600082825260208201905092915050565b6000819050602082019050919050565b600082825260208201905092915050565b600061151f82611392565b6115298185611503565b93506115398185602086016113ae565b61154281611145565b840191505092915050565b60006115598383611514565b905092915050565b6000602082019050919050565b6000611579826114d7565b61158381856114e2565b935083602082028501611595856114f3565b8060005b858110156115d157848403895281516115b2858261154d565b94506115bd83611561565b925060208a01995050600181019050611599565b50829750879550505050505092915050565b600060208201905081810360008301526115fd818461156e565b905092915050565b61160e81611440565b811461161957600080fd5b50565b60008135905061162b81611605565b92915050565b6000806040838503121561164857611647611131565b5b600083013567ffffffffffffffff81111561166657611665611136565b5b61167285828601611253565b92505060206116838582860161161c565b9150509250929050565b600081519050919050565b600082825260208201905092915050565b6000819050602082019050919050565b6116c281611281565b82525050565b60006060830160008301516116e060008601826116b9565b50602083015184820360208601526116f88282611514565b915050604083015161170d60408601826116b9565b508091505092915050565b600061172483836116c8565b905092915050565b6000602082019050919050565b60006117448261168d565b61174e8185611698565b935083602082028501611760856116a9565b8060005b8581101561179c578484038952815161177d8582611718565b94506117888361172c565b925060208a01995050600181019050611764565b50829750879550505050505092915050565b600060808201905081810360008301526117c881876113d8565b905081810360208301526117dc81866113d8565b90506117eb6040830185611411565b81810360608301526117fd8184611739565b905095945050505050565b600067ffffffffffffffff82111561182357611822611156565b5b602082029050602081019050919050565b600080fd5b600061184c61184784611808565b6111b6565b9050808382526020820190506020840283018581111561186f5761186e611834565b5b835b818110156118b657803567ffffffffffffffff8111156118945761189361113b565b5b8086016118a18982611253565b85526020850194505050602081019050611871565b5050509392505050565b600082601f8301126118d5576118d461113b565b5b81356118e5848260208601611839565b91505092915050565b6000806000806080858703121561190857611907611131565b5b600085013567ffffffffffffffff81111561192657611925611136565b5b611932878288016118c0565b945050602085013567ffffffffffffffff81111561195357611952611136565b5b61195f87828801611253565b935050604085013567ffffffffffffffff8111156119805761197f611136565b5b61198c87828801611253565b925050606061199d878288016112a2565b91505092959194509250565b6000602082840312156119bf576119be611131565b5b60006119cd848285016112a2565b91505092915050565b600060208201905081810360008301526119f081846113d8565b905092915050565b600081905092915050565b6000611a0e82611392565b611a1881856119f8565b9350611a288185602086016113ae565b80840191505092915050565b6000611a408284611a03565b915081905092915050565b7f486169206769612720766f7461746f207065722071756573746120656c657a6960008201527f6f6e652100000000000000000000000000000000000000000000000000000000602082015250565b6000611aa760248361139d565b9150611ab282611a4b565b604082019050919050565b60006020820190508181036000830152611ad681611a9a565b9050919050565b7f43616e64696461746f206e6f6e2076616c69646f210000000000000000000000600082015250565b6000611b1360158361139d565b9150611b1e82611add565b602082019050919050565b60006020820190508181036000830152611b4281611b06565b9050919050565b7f4c6120766f74617a696f6e652065272067696127207465726d696e6174612100600082015250565b6000611b7f601f8361139d565b9150611b8a82611b49565b602082019050919050565b60006020820190508181036000830152611bae81611b72565b9050919050565b7f4465766920696e766961726520616c6d656e6f20302e3035204554482070657260008201527f20766f7461726521000000000000000000000000000000000000000000000000602082015250565b6000611c1160288361139d565b9150611c1c82611bb5565b604082019050919050565b60006020820190508181036000830152611c4081611c04565b9050919050565b7f4e487b7100000000000000000000000000000000000000000000000000000000600052601160045260246000fd5b6000611c8182611281565b9150611c8c83611281565b9250828203905081811115611ca457611ca3611c47565b5b92915050565b7f4e487b7100000000000000000000000000000000000000000000000000000000600052603260045260246000fd5b6000611ce482611281565b91507fffffffffffffffffffffffffffffffffffffffffffffffffffffffffffffffff8203611d1657611d15611c47565b5b600182019050919050565b7f536f6c6f20696c2063726561746f72652070756f2720616e6e756c6c6172652060008201527f6c27656c657a696f6e652e000000000000000000000000000000000000000000602082015250565b6000611d7d602b8361139d565b9150611d8882611d21565b604082019050919050565b60006020820190508181036000830152611dac81611d70565b9050919050565b7f4c27656c657a696f6e65206e6f6e20652720616e636f7261207363616475746160008201527f2e00000000000000000000000000000000000000000000000000000000000000602082015250565b6000611e0f60218361139d565b9150611e1a82611db3565b604082019050919050565b60006020820190508181036000830152611e3e81611e02565b9050919050565b7f4e6f6e2070756f6920616e6e756c6c617265206c27656c657a696f6e652c206360008201527f6920736f6e6f20676961272064656920766f74692e0000000000000000000000602082015250565b6000611ea160358361139d565b9150611eac82611e45565b604082019050919050565b60006020820190508181036000830152611ed081611e94565b9050919050565b7f4e487b7100000000000000000000000000000000000000000000000000000000600052602260045260246000fd5b60006002820490506001821680611f1e57607f821691505b602082108103611f3157611f30611ed7565b5b50919050565b60008190508160005260206000209050919050565b60006020601f8301049050919050565b600082821b905092915050565b600060088302611f997fffffffffffffffffffffffffffffffffffffffffffffffffffffffffffffffff82611f5c565b611fa38683611f5c565b95508019841693508086168417925050509392505050565b6000819050919050565b6000611fe0611fdb611fd684611281565b611fbb565b611281565b9050919050565b6000819050919050565b611ffa83611fc5565b61200e61200682611fe7565b848454611f69565b825550505050565b600090565b612023612016565b61202e818484611ff1565b505050565b5b818110156120525761204760008261201b565b600181019050612034565b5050565b601f8211156120975761206881611f37565b61207184611f4c565b81016020851015612080578190505b61209461208c85611f4c565b830182612033565b50505b505050565b600082821c905092915050565b60006120ba6000198460080261209c565b1980831691505092915050565b60006120d383836120a9565b9150826002028217905092915050565b6120ec82611392565b67ffffffffffffffff81111561210557612104611156565b5b61210f8254611f06565b61211a828285612056565b600060209050601f83116001811461214d576000841561213b578287015190505b61214585826120c7565b8655506121ad565b601f19841661215b86611f37565b60005b828110156121835784890151825560018201915060208501945060208101905061215e565b868310156121a0578489015161219c601f8916826120a9565b8355505b6001600288020188555050505b505050505050565b7f4465766920696e766961726520616c6d656e6f20302e3120455448207065722060008201527f637265617265206c27656c657a696f6e65210000000000000000000000000000602082015250565b600061221160328361139d565b915061221c826121b5565b604082019050919050565b6000602082019050818103600083015261224081612204565b9050919050565b6000819050919050565b61226261225d82611281565b612247565b82525050565b60008160601b9050919050565b600061228082612268565b9050919050565b600061229282612275565b9050919050565b6122aa6122a582611440565b612287565b82525050565b60006122bc8286612251565b6020820191506122cc8285612299565b6014820191506122dc8284612251565b602082019150819050949350505050565b6000819050919050565b6000819050919050565b61231261230d826122ed565b6122f7565b82525050565b60006123248284612301565b60208201915081905092915050565b7f4e487b7100000000000000000000000000000000000000000000000000000000600052601260045260246000fd5b600061236d82611281565b915061237883611281565b92508261238857612387612333565b5b82820690509291505056fe4142434445464748494a4b4c4d4e4f505152535455565758595a6162636465666768696a6b6c6d6e6f707172737475767778797a30313233343536373839a2646970667358221220fdacedf01dd49bc7d7fd58e6874a936affa95b33018d36f1bb389c3158dffe0964736f6c634300081b0033",
  "linkReferences": {},
  "deployedLinkReferences": {}
}