{
  "_format": "hh-sol-artifact-1",
  "contractName": "Election",
  "sourceName": "contracts/Election.sol",
  "abi": [
    {
      "inputs": [
        {
          "internalType": "string[]",
          "name": "_candidateNames",
          "type": "string[]"
        },
        {
          "internalType": "string",
          "name": "title",
          "type": "string"
        },
        {
          "internalType": "string",
          "name": "description",
          "type": "string"
        },
        {
          "internalType": "uint256",
          "name": "endDate",
          "type": "uint256"
        }
      ],
      "name": "createElection",
      "outputs": [],
      "stateMutability": "payable",
      "type": "function"
    },
    {
      "inputs": [
        {
          "internalType": "string",
          "name": "_electionCode",
          "type": "string"
        }
      ],
      "name": "deleteElection",
      "outputs": [],
      "stateMutability": "nonpayable",
      "type": "function"
    },
    {
      "inputs": [
        {
          "internalType": "uint256",
          "name": "",
          "type": "uint256"
        }
      ],
      "name": "electionCodes",
      "outputs": [
        {
          "internalType": "string",
          "name": "",
          "type": "string"
        }
      ],
      "stateMutability": "view",
      "type": "function"
    },
    {
      "inputs": [
        {
          "internalType": "string",
          "name": "",
          "type": "string"
        }
      ],
      "name": "elections",
      "outputs": [
        {
          "internalType": "string",
          "name": "eelectionCode",
          "type": "string"
        },
        {
          "internalType": "uint256",
          "name": "ecandidatesCount",
          "type": "uint256"
        },
        {
          "internalType": "string",
          "name": "description",
          "type": "string"
        },
        {
          "internalType": "string",
          "name": "title",
          "type": "string"
        },
        {
          "internalType": "uint256",
          "name": "endDate",
          "type": "uint256"
        },
        {
          "internalType": "address",
          "name": "creator",
          "type": "address"
        },
        {
          "internalType": "bool",
          "name": "electionCancelled",
          "type": "bool"
        },
        {
          "internalType": "uint256",
          "name": "creationCost",
          "type": "uint256"
        }
      ],
      "stateMutability": "view",
      "type": "function"
    },
    {
      "inputs": [],
      "name": "getAllElection",
      "outputs": [
        {
          "internalType": "string[]",
          "name": "",
          "type": "string[]"
        }
      ],
      "stateMutability": "view",
      "type": "function"
    },
    {
      "inputs": [
        {
          "internalType": "string",
          "name": "_electionCode",
          "type": "string"
        }
      ],
      "name": "getCreatorOfElection",
      "outputs": [
        {
          "internalType": "address",
          "name": "",
          "type": "address"
        }
      ],
      "stateMutability": "view",
      "type": "function"
    },
    {
      "inputs": [
        {
          "internalType": "string",
          "name": "_electionCode",
          "type": "string"
        }
      ],
      "name": "getElectionByCode",
      "outputs": [
        {
          "internalType": "string",
          "name": "title",
          "type": "string"
        },
        {
          "internalType": "string",
          "name": "description",
          "type": "string"
        },
        {
          "internalType": "uint256",
          "name": "endDate",
          "type": "uint256"
        },
        {
          "components": [
            {
              "internalType": "uint256",
              "name": "id",
              "type": "uint256"
            },
            {
              "internalType": "string",
              "name": "name",
              "type": "string"
            },
            {
              "internalType": "uint256",
              "name": "voteCount",
              "type": "uint256"
            }
          ],
          "internalType": "struct Election.Candidate[]",
          "name": "ecandidates",
          "type": "tuple[]"
        }
      ],
      "stateMutability": "view",
      "type": "function"
    },
    {
      "inputs": [
        {
          "internalType": "string",
          "name": "_electionCode",
          "type": "string"
        }
      ],
      "name": "getTotalVotes",
      "outputs": [
        {
          "internalType": "uint256",
          "name": "totalVotes",
          "type": "uint256"
        }
      ],
      "stateMutability": "view",
      "type": "function"
    },
    {
      "inputs": [
        {
          "internalType": "string",
          "name": "_electionCode",
          "type": "string"
        },
        {
          "internalType": "address",
          "name": "_voter",
          "type": "address"
        }
      ],
      "name": "hasVoted",
      "outputs": [
        {
          "internalType": "bool",
          "name": "",
          "type": "bool"
        }
      ],
      "stateMutability": "view",
      "type": "function"
    },
    {
      "inputs": [
        {
          "internalType": "string",
          "name": "electionCode",
          "type": "string"
        }
      ],
      "name": "isCancelled",
      "outputs": [
        {
          "internalType": "bool",
          "name": "",
          "type": "bool"
        }
      ],
      "stateMutability": "view",
      "type": "function"
    },
    {
      "inputs": [
        {
          "internalType": "string",
          "name": "_electionCode",
          "type": "string"
        },
        {
          "internalType": "uint256",
          "name": "_candidateId",
          "type": "uint256"
        }
      ],
      "name": "vota",
      "outputs": [],
      "stateMutability": "payable",
      "type": "function"
    }
  ],
  "bytecode": "0x6080604052348015600f57600080fd5b506129248061001f6000396000f3fe60806040526004361061009c5760003560e01c806398d16f751161006457806398d16f75146101925780639af06cd9146101cf578063a0e296981461020c578063d72ae1301461024c578063df7125ff14610268578063ee312193146102a55761009c565b8063143b7de6146100a15780632410734d146100de5780633ec22278146100fa5780634a3ccc96146101235780635597f08314610167575b600080fd5b3480156100ad57600080fd5b506100c860048036038101906100c391906115f3565b6102e2565b6040516100d5919061167d565b60405180910390f35b6100f860048036038101906100f391906116ce565b61032c565b005b34801561010657600080fd5b50610121600480360381019061011c91906115f3565b61066f565b005b34801561012f57600080fd5b5061014a600480360381019061014591906115f3565b6108a2565b60405161015e9897969594939291906117d3565b60405180910390f35b34801561017357600080fd5b5061017c610ac5565b6040516101899190611972565b60405180910390f35b34801561019e57600080fd5b506101b960048036038101906101b491906115f3565b610b9e565b6040516101c69190611994565b60405180910390f35b3480156101db57600080fd5b506101f660048036038101906101f191906119db565b610c1d565b6040516102039190611a37565b60405180910390f35b34801561021857600080fd5b50610233600480360381019061022e91906115f3565b610c92565b6040516102439493929190611b73565b60405180910390f35b61026660048036038101906102619190611cb3565b610fc6565b005b34801561027457600080fd5b5061028f600480360381019061028a9190611d6e565b61121f565b60405161029c9190611d9b565b60405180910390f35b3480156102b157600080fd5b506102cc60048036038101906102c791906115f3565b6112cb565b6040516102d99190611a37565b60405180910390f35b600080826040516102f39190611df9565b908152602001604051809103902060070160009054906101000a900473ffffffffffffffffffffffffffffffffffffffff169050919050565b6000808360405161033d9190611df9565b908152602001604051809103902090508060070160009054906101000a900473ffffffffffffffffffffffffffffffffffffffff1673ffffffffffffffffffffffffffffffffffffffff163373ffffffffffffffffffffffffffffffffffffffff16036103df576040517f08c379a00000000000000000000000000000000000000000000000000000000081526004016103d690611e82565b60405180910390fd5b8060030160003373ffffffffffffffffffffffffffffffffffffffff1673ffffffffffffffffffffffffffffffffffffffff16815260200190815260200160002060009054906101000a900460ff161561046e576040517f08c379a000000000000000000000000000000000000000000000000000000000815260040161046590611f14565b60405180910390fd5b600082118015610482575080600101548211155b6104c1576040517f08c379a00000000000000000000000000000000000000000000000000000000081526004016104b890611f80565b60405180910390fd5b8060060154421115610508576040517f08c379a00000000000000000000000000000000000000000000000000000000081526004016104ff90611fec565b60405180910390fd5b6000151560008460405161051c9190611df9565b908152602001604051809103902060070160149054906101000a900460ff1615151461057d576040517f08c379a00000000000000000000000000000000000000000000000000000000081526004016105749061207e565b60405180910390fd5b66b1a2bc2ec500003410156105c7576040517f08c379a00000000000000000000000000000000000000000000000000000000081526004016105be90612110565b60405180910390fd5b60018160030160003373ffffffffffffffffffffffffffffffffffffffff1673ffffffffffffffffffffffffffffffffffffffff16815260200190815260200160002060006101000a81548160ff02191690831515021790555080600201600183610632919061215f565b8154811061064357610642612193565b5b90600052602060002090600302016002016000815480929190610665906121c2565b9190505550505050565b600080826040516106809190611df9565b908152602001604051809103902090508060070160009054906101000a900473ffffffffffffffffffffffffffffffffffffffff1673ffffffffffffffffffffffffffffffffffffffff163373ffffffffffffffffffffffffffffffffffffffff1614610722576040517f08c379a00000000000000000000000000000000000000000000000000000000081526004016107199061227c565b60405180910390fd5b80600601544211610768576040517f08c379a000000000000000000000000000000000000000000000000000000000815260040161075f9061230e565b60405180910390fd5b60005b81600101548110156107ee57600082600201828154811061078f5761078e612193565b5b906000526020600020906003020160020154146107e1576040517f08c379a00000000000000000000000000000000000000000000000000000000081526004016107d8906123a0565b60405180910390fd5b808060010191505061076b565b5060016000836040516108019190611df9565b908152602001604051809103902060070160146101000a81548160ff0219169083151502179055506000816008015490508160070160009054906101000a900473ffffffffffffffffffffffffffffffffffffffff1673ffffffffffffffffffffffffffffffffffffffff166108fc829081150290604051600060405180830381858888f1935050505015801561089c573d6000803e3d6000fd5b50505050565b6000818051602081018201805184825260208301602085012081835280955050505050506000915090508060000180546108db906123ef565b80601f0160208091040260200160405190810160405280929190818152602001828054610907906123ef565b80156109545780601f1061092957610100808354040283529160200191610954565b820191906000526020600020905b81548152906001019060200180831161093757829003601f168201915b50505050509080600101549080600401805461096f906123ef565b80601f016020809104026020016040519081016040528092919081815260200182805461099b906123ef565b80156109e85780601f106109bd576101008083540402835291602001916109e8565b820191906000526020600020905b8154815290600101906020018083116109cb57829003601f168201915b5050505050908060050180546109fd906123ef565b80601f0160208091040260200160405190810160405280929190818152602001828054610a29906123ef565b8015610a765780601f10610a4b57610100808354040283529160200191610a76565b820191906000526020600020905b815481529060010190602001808311610a5957829003601f168201915b5050505050908060060154908060070160009054906101000a900473ffffffffffffffffffffffffffffffffffffffff16908060070160149054906101000a900460ff16908060080154905088565b60606001805480602002602001604051908101604052809291908181526020016000905b82821015610b95578382906000526020600020018054610b08906123ef565b80601f0160208091040260200160405190810160405280929190818152602001828054610b34906123ef565b8015610b815780601f10610b5657610100808354040283529160200191610b81565b820191906000526020600020905b815481529060010190602001808311610b6457829003601f168201915b505050505081526020019060010190610ae9565b50505050905090565b600080600083604051610bb19190611df9565b908152602001604051809103902090506000915060005b8160010154811015610c1657816002018181548110610bea57610be9612193565b5b90600052602060002090600302016002015483610c079190612420565b92508080600101915050610bc8565b5050919050565b60008083604051610c2e9190611df9565b908152602001604051809103902060030160008373ffffffffffffffffffffffffffffffffffffffff1673ffffffffffffffffffffffffffffffffffffffff16815260200190815260200160002060009054906101000a900460ff16905092915050565b6060806000606060001515600086604051610cad9190611df9565b908152602001604051809103902060070160149054906101000a900460ff16151514610d0e576040517f08c379a0000000000000000000000000000000000000000000000000000000008152600401610d059061207e565b60405180910390fd5b60008086604051610d1f9190611df9565b90815260200160405180910390209050806005018054610d3e906123ef565b80601f0160208091040260200160405190810160405280929190818152602001828054610d6a906123ef565b8015610db75780601f10610d8c57610100808354040283529160200191610db7565b820191906000526020600020905b815481529060010190602001808311610d9a57829003601f168201915b50505050509450806004018054610dcd906123ef565b80601f0160208091040260200160405190810160405280929190818152602001828054610df9906123ef565b8015610e465780601f10610e1b57610100808354040283529160200191610e46565b820191906000526020600020905b815481529060010190602001808311610e2957829003601f168201915b5050505050935080600601549250806001015467ffffffffffffffff811115610e7257610e716114c8565b5b604051908082528060200260200182016040528015610eab57816020015b610e98611478565b815260200190600190039081610e905790505b50915060005b8160010154811015610fbd57816002018181548110610ed357610ed2612193565b5b906000526020600020906003020160405180606001604052908160008201548152602001600182018054610f06906123ef565b80601f0160208091040260200160405190810160405280929190818152602001828054610f32906123ef565b8015610f7f5780601f10610f5457610100808354040283529160200191610f7f565b820191906000526020600020905b815481529060010190602001808311610f6257829003601f168201915b50505050508152602001600282015481525050838281518110610fa557610fa4612193565b5b60200260200101819052508080600101915050610eb1565b50509193509193565b60605b610fd1611302565b905060008082604051610fe49190611df9565b90815260200160405180910390206000018054611000906123ef565b905003610fc957600080826040516110189190611df9565b90815260200160405180910390209050818160000190816110399190612600565b508481600501908161104b9190612600565b508381600401908161105d9190612600565b50828160060181905550338160070160006101000a81548173ffffffffffffffffffffffffffffffffffffffff021916908373ffffffffffffffffffffffffffffffffffffffff16021790555060008160070160146101000a81548160ff02191690831515021790555067016345785d8a0000341015611112576040517f08c379a000000000000000000000000000000000000000000000000000000000815260040161110990612744565b60405180910390fd5b34816008018190555060005b86518110156111e15781600101600081548092919061113c906121c2565b91905055508160020160405180606001604052808460010154815260200189848151811061116d5761116c612193565b5b60200260200101518152602001600081525090806001815401808255809150506001900390600052602060002090600302016000909190919091506000820151816000015560208201518160010190816111c79190612600565b50604082015181600201555050808060010191505061111e565b506001829080600181540180825580915050600190039060005260206000200160009091909190915090816112169190612600565b50505050505050565b6001818154811061122f57600080fd5b90600052602060002001600091509050805461124a906123ef565b80601f0160208091040260200160405190810160405280929190818152602001828054611276906123ef565b80156112c35780601f10611298576101008083540402835291602001916112c3565b820191906000526020600020905b8154815290600101906020018083116112a657829003601f168201915b505050505081565b600080826040516112dc9190611df9565b908152602001604051809103902060070160149054906101000a900460ff169050919050565b606060006040518060600160405280603e81526020016128b1603e913990506000423360018054905060405160200161133d939291906127cd565b604051602081830303815290604052805190602001206040516020016113639190612835565b60405160208183030381529060405290506000600667ffffffffffffffff811115611391576113906114c8565b5b6040519080825280601f01601f1916602001820160405280156113c35781602001600182028036833780820191505090505b50905060005b600681101561146e578384518483815181106113e8576113e7612193565b5b602001015160f81c60f81b60f81c60ff16611403919061287f565b8151811061141457611413612193565b5b602001015160f81c60f81b82828151811061143257611431612193565b5b60200101907effffffffffffffffffffffffffffffffffffffffffffffffffffffffffffff1916908160001a90535080806001019150506113c9565b5080935050505090565b60405180606001604052806000815260200160608152602001600081525090565b6000604051905090565b600080fd5b600080fd5b600080fd5b600080fd5b6000601f19601f8301169050919050565b7f4e487b7100000000000000000000000000000000000000000000000000000000600052604160045260246000fd5b611500826114b7565b810181811067ffffffffffffffff8211171561151f5761151e6114c8565b5b80604052505050565b6000611532611499565b905061153e82826114f7565b919050565b600067ffffffffffffffff82111561155e5761155d6114c8565b5b611567826114b7565b9050602081019050919050565b82818337600083830152505050565b600061159661159184611543565b611528565b9050828152602081018484840111156115b2576115b16114b2565b5b6115bd848285611574565b509392505050565b600082601f8301126115da576115d96114ad565b5b81356115ea848260208601611583565b91505092915050565b600060208284031215611609576116086114a3565b5b600082013567ffffffffffffffff811115611627576116266114a8565b5b611633848285016115c5565b91505092915050565b600073ffffffffffffffffffffffffffffffffffffffff82169050919050565b60006116678261163c565b9050919050565b6116778161165c565b82525050565b6000602082019050611692600083018461166e565b92915050565b6000819050919050565b6116ab81611698565b81146116b657600080fd5b50565b6000813590506116c8816116a2565b92915050565b600080604083850312156116e5576116e46114a3565b5b600083013567ffffffffffffffff811115611703576117026114a8565b5b61170f858286016115c5565b9250506020611720858286016116b9565b9150509250929050565b600081519050919050565b600082825260208201905092915050565b60005b83811015611764578082015181840152602081019050611749565b60008484015250505050565b600061177b8261172a565b6117858185611735565b9350611795818560208601611746565b61179e816114b7565b840191505092915050565b6117b281611698565b82525050565b60008115159050919050565b6117cd816117b8565b82525050565b60006101008201905081810360008301526117ee818b611770565b90506117fd602083018a6117a9565b818103604083015261180f8189611770565b905081810360608301526118238188611770565b905061183260808301876117a9565b61183f60a083018661166e565b61184c60c08301856117c4565b61185960e08301846117a9565b9998505050505050505050565b600081519050919050565b600082825260208201905092915050565b6000819050602082019050919050565b600082825260208201905092915050565b60006118ae8261172a565b6118b88185611892565b93506118c8818560208601611746565b6118d1816114b7565b840191505092915050565b60006118e883836118a3565b905092915050565b6000602082019050919050565b600061190882611866565b6119128185611871565b93508360208202850161192485611882565b8060005b85811015611960578484038952815161194185826118dc565b945061194c836118f0565b925060208a01995050600181019050611928565b50829750879550505050505092915050565b6000602082019050818103600083015261198c81846118fd565b905092915050565b60006020820190506119a960008301846117a9565b92915050565b6119b88161165c565b81146119c357600080fd5b50565b6000813590506119d5816119af565b92915050565b600080604083850312156119f2576119f16114a3565b5b600083013567ffffffffffffffff811115611a1057611a0f6114a8565b5b611a1c858286016115c5565b9250506020611a2d858286016119c6565b9150509250929050565b6000602082019050611a4c60008301846117c4565b92915050565b600081519050919050565b600082825260208201905092915050565b6000819050602082019050919050565b611a8781611698565b82525050565b6000606083016000830151611aa56000860182611a7e565b5060208301518482036020860152611abd82826118a3565b9150506040830151611ad26040860182611a7e565b508091505092915050565b6000611ae98383611a8d565b905092915050565b6000602082019050919050565b6000611b0982611a52565b611b138185611a5d565b935083602082028501611b2585611a6e565b8060005b85811015611b615784840389528151611b428582611add565b9450611b4d83611af1565b925060208a01995050600181019050611b29565b50829750879550505050505092915050565b60006080820190508181036000830152611b8d8187611770565b90508181036020830152611ba18186611770565b9050611bb060408301856117a9565b8181036060830152611bc28184611afe565b905095945050505050565b600067ffffffffffffffff821115611be857611be76114c8565b5b602082029050602081019050919050565b600080fd5b6000611c11611c0c84611bcd565b611528565b90508083825260208201905060208402830185811115611c3457611c33611bf9565b5b835b81811015611c7b57803567ffffffffffffffff811115611c5957611c586114ad565b5b808601611c6689826115c5565b85526020850194505050602081019050611c36565b5050509392505050565b600082601f830112611c9a57611c996114ad565b5b8135611caa848260208601611bfe565b91505092915050565b60008060008060808587031215611ccd57611ccc6114a3565b5b600085013567ffffffffffffffff811115611ceb57611cea6114a8565b5b611cf787828801611c85565b945050602085013567ffffffffffffffff811115611d1857611d176114a8565b5b611d24878288016115c5565b935050604085013567ffffffffffffffff811115611d4557611d446114a8565b5b611d51878288016115c5565b9250506060611d62878288016116b9565b91505092959194509250565b600060208284031215611d8457611d836114a3565b5b6000611d92848285016116b9565b91505092915050565b60006020820190508181036000830152611db58184611770565b905092915050565b600081905092915050565b6000611dd38261172a565b611ddd8185611dbd565b9350611ded818560208601611746565b80840191505092915050565b6000611e058284611dc8565b915081905092915050565b7f496c2063726561746f72652064656c6c27656c657a696f6e65206e6f6e20707560008201527f6f20766f74617265210000000000000000000000000000000000000000000000602082015250565b6000611e6c602983611735565b9150611e7782611e10565b604082019050919050565b60006020820190508181036000830152611e9b81611e5f565b9050919050565b7f486169206769612720766f7461746f207065722071756573746120656c657a6960008201527f6f6e652100000000000000000000000000000000000000000000000000000000602082015250565b6000611efe602483611735565b9150611f0982611ea2565b604082019050919050565b60006020820190508181036000830152611f2d81611ef1565b9050919050565b7f43616e64696461746f206e6f6e2076616c69646f210000000000000000000000600082015250565b6000611f6a601583611735565b9150611f7582611f34565b602082019050919050565b60006020820190508181036000830152611f9981611f5d565b9050919050565b7f4c6120766f74617a696f6e652065272067696127207465726d696e6174612100600082015250565b6000611fd6601f83611735565b9150611fe182611fa0565b602082019050919050565b6000602082019050818103600083015261200581611fc9565b9050919050565b7f4c6120766f74617a696f6e6520652720737461746120656c696d696e6174612060008201527f65206e6f6e20726973756c74612070697527207669736962696c652100000000602082015250565b6000612068603c83611735565b91506120738261200c565b604082019050919050565b600060208201905081810360008301526120978161205b565b9050919050565b7f4465766920696e766961726520616c6d656e6f20302e3035204554482070657260008201527f20766f7461726521000000000000000000000000000000000000000000000000602082015250565b60006120fa602883611735565b91506121058261209e565b604082019050919050565b60006020820190508181036000830152612129816120ed565b9050919050565b7f4e487b7100000000000000000000000000000000000000000000000000000000600052601160045260246000fd5b600061216a82611698565b915061217583611698565b925082820390508181111561218d5761218c612130565b5b92915050565b7f4e487b7100000000000000000000000000000000000000000000000000000000600052603260045260246000fd5b60006121cd82611698565b91507fffffffffffffffffffffffffffffffffffffffffffffffffffffffffffffffff82036121ff576121fe612130565b5b600182019050919050565b7f536f6c6f20696c2063726561746f72652070756f2720616e6e756c6c6172652060008201527f6c27656c657a696f6e652e000000000000000000000000000000000000000000602082015250565b6000612266602b83611735565b91506122718261220a565b604082019050919050565b6000602082019050818103600083015261229581612259565b9050919050565b7f4c27656c657a696f6e65206e6f6e20652720616e636f7261207363616475746160008201527f2e00000000000000000000000000000000000000000000000000000000000000602082015250565b60006122f8602183611735565b91506123038261229c565b604082019050919050565b60006020820190508181036000830152612327816122eb565b9050919050565b7f4e6f6e2070756f6920616e6e756c6c617265206c27656c657a696f6e652c206360008201527f6920736f6e6f20676961272064656920766f74692e0000000000000000000000602082015250565b600061238a603583611735565b91506123958261232e565b604082019050919050565b600060208201905081810360008301526123b98161237d565b9050919050565b7f4e487b7100000000000000000000000000000000000000000000000000000000600052602260045260246000fd5b6000600282049050600182168061240757607f821691505b60208210810361241a576124196123c0565b5b50919050565b600061242b82611698565b915061243683611698565b925082820190508082111561244e5761244d612130565b5b92915050565b60008190508160005260206000209050919050565b60006020601f8301049050919050565b600082821b905092915050565b6000600883026124b67fffffffffffffffffffffffffffffffffffffffffffffffffffffffffffffffff82612479565b6124c08683612479565b95508019841693508086168417925050509392505050565b6000819050919050565b60006124fd6124f86124f384611698565b6124d8565b611698565b9050919050565b6000819050919050565b612517836124e2565b61252b61252382612504565b848454612486565b825550505050565b600090565b612540612533565b61254b81848461250e565b505050565b5b8181101561256f57612564600082612538565b600181019050612551565b5050565b601f8211156125b45761258581612454565b61258e84612469565b8101602085101561259d578190505b6125b16125a985612469565b830182612550565b50505b505050565b600082821c905092915050565b60006125d7600019846008026125b9565b1980831691505092915050565b60006125f083836125c6565b9150826002028217905092915050565b6126098261172a565b67ffffffffffffffff811115612622576126216114c8565b5b61262c82546123ef565b612637828285612573565b600060209050601f83116001811461266a5760008415612658578287015190505b61266285826125e4565b8655506126ca565b601f19841661267886612454565b60005b828110156126a05784890151825560018201915060208501945060208101905061267b565b868310156126bd57848901516126b9601f8916826125c6565b8355505b6001600288020188555050505b505050505050565b7f4465766920696e766961726520616c6d656e6f20302e3120455448207065722060008201527f637265617265206c27656c657a696f6e65210000000000000000000000000000602082015250565b600061272e603283611735565b9150612739826126d2565b604082019050919050565b6000602082019050818103600083015261275d81612721565b9050919050565b6000819050919050565b61277f61277a82611698565b612764565b82525050565b60008160601b9050919050565b600061279d82612785565b9050919050565b60006127af82612792565b9050919050565b6127c76127c28261165c565b6127a4565b82525050565b60006127d9828661276e565b6020820191506127e982856127b6565b6014820191506127f9828461276e565b602082019150819050949350505050565b6000819050919050565b6000819050919050565b61282f61282a8261280a565b612814565b82525050565b6000612841828461281e565b60208201915081905092915050565b7f4e487b7100000000000000000000000000000000000000000000000000000000600052601260045260246000fd5b600061288a82611698565b915061289583611698565b9250826128a5576128a4612850565b5b82820690509291505056fe4142434445464748494a4b4c4d4e4f505152535455565758595a6162636465666768696a6b6c6d6e6f707172737475767778797a30313233343536373839a2646970667358221220231e11f9c493b4899af20afe3920681a4ae601f0010c90aafd45a3381a4f82d964736f6c634300081b0033",
  "linkReferences": {},
  "deployedLinkReferences": {}
}