{
  "_format": "hh-sol-artifact-1",
  "contractName": "Election",
  "sourceName": "contracts/Election.sol",
  "abi": [
    {
      "inputs": [
        {
          "internalType": "string[]",
          "name": "_candidateNames",
          "type": "string[]"
        },
        {
          "internalType": "string",
          "name": "title",
          "type": "string"
        },
        {
          "internalType": "string",
          "name": "description",
          "type": "string"
        },
        {
          "internalType": "uint256",
          "name": "endDate",
          "type": "uint256"
        }
      ],
      "name": "createElection",
      "outputs": [],
      "stateMutability": "payable",
      "type": "function"
    },
    {
      "inputs": [
        {
          "internalType": "string",
          "name": "_electionCode",
          "type": "string"
        }
      ],
      "name": "deleteElection",
      "outputs": [],
      "stateMutability": "nonpayable",
      "type": "function"
    },
    {
      "inputs": [
        {
          "internalType": "uint256",
          "name": "",
          "type": "uint256"
        }
      ],
      "name": "electionCodes",
      "outputs": [
        {
          "internalType": "string",
          "name": "",
          "type": "string"
        }
      ],
      "stateMutability": "view",
      "type": "function"
    },
    {
      "inputs": [
        {
          "internalType": "string",
          "name": "",
          "type": "string"
        }
      ],
      "name": "elections",
      "outputs": [
        {
          "internalType": "string",
          "name": "eelectionCode",
          "type": "string"
        },
        {
          "internalType": "uint256",
          "name": "ecandidatesCount",
          "type": "uint256"
        },
        {
          "internalType": "string",
          "name": "description",
          "type": "string"
        },
        {
          "internalType": "string",
          "name": "title",
          "type": "string"
        },
        {
          "internalType": "uint256",
          "name": "endDate",
          "type": "uint256"
        },
        {
          "internalType": "address",
          "name": "creator",
          "type": "address"
        },
        {
          "internalType": "bool",
          "name": "electionCancelled",
          "type": "bool"
        },
        {
          "internalType": "uint256",
          "name": "creationCost",
          "type": "uint256"
        }
      ],
      "stateMutability": "view",
      "type": "function"
    },
    {
      "inputs": [],
      "name": "getAllElection",
      "outputs": [
        {
          "internalType": "string[]",
          "name": "",
          "type": "string[]"
        }
      ],
      "stateMutability": "view",
      "type": "function"
    },
    {
      "inputs": [
        {
          "internalType": "string",
          "name": "_electionCode",
          "type": "string"
        }
      ],
      "name": "getCreatorOfElection",
      "outputs": [
        {
          "internalType": "address",
          "name": "",
          "type": "address"
        }
      ],
      "stateMutability": "view",
      "type": "function"
    },
    {
      "inputs": [
        {
          "internalType": "string",
          "name": "_electionCode",
          "type": "string"
        }
      ],
      "name": "getElectionByCode",
      "outputs": [
        {
          "internalType": "string",
          "name": "title",
          "type": "string"
        },
        {
          "internalType": "string",
          "name": "description",
          "type": "string"
        },
        {
          "internalType": "uint256",
          "name": "endDate",
          "type": "uint256"
        },
        {
          "components": [
            {
              "internalType": "uint256",
              "name": "id",
              "type": "uint256"
            },
            {
              "internalType": "string",
              "name": "name",
              "type": "string"
            },
            {
              "internalType": "uint256",
              "name": "voteCount",
              "type": "uint256"
            }
          ],
          "internalType": "struct Election.Candidate[]",
          "name": "ecandidates",
          "type": "tuple[]"
        }
      ],
      "stateMutability": "view",
      "type": "function"
    },
    {
      "inputs": [
        {
          "internalType": "address",
          "name": "_creator",
          "type": "address"
        }
      ],
      "name": "getElectionsByCreator",
      "outputs": [
        {
          "internalType": "string[]",
          "name": "titles",
          "type": "string[]"
        },
        {
          "internalType": "string[]",
          "name": "descriptions",
          "type": "string[]"
        },
        {
          "internalType": "uint256[]",
          "name": "endDates",
          "type": "uint256[]"
        },
        {
          "internalType": "string[]",
          "name": "codes",
          "type": "string[]"
        }
      ],
      "stateMutability": "view",
      "type": "function"
    },
    {
      "inputs": [
        {
          "internalType": "string",
          "name": "_electionCode",
          "type": "string"
        }
      ],
      "name": "getTotalVotes",
      "outputs": [
        {
          "internalType": "uint256",
          "name": "totalVotes",
          "type": "uint256"
        }
      ],
      "stateMutability": "view",
      "type": "function"
    },
    {
      "inputs": [
        {
          "internalType": "string",
          "name": "_electionCode",
          "type": "string"
        },
        {
          "internalType": "address",
          "name": "_voter",
          "type": "address"
        }
      ],
      "name": "hasVoted",
      "outputs": [
        {
          "internalType": "bool",
          "name": "",
          "type": "bool"
        }
      ],
      "stateMutability": "view",
      "type": "function"
    },
    {
      "inputs": [
        {
          "internalType": "string",
          "name": "electionCode",
          "type": "string"
        }
      ],
      "name": "isCancelled",
      "outputs": [
        {
          "internalType": "bool",
          "name": "",
          "type": "bool"
        }
      ],
      "stateMutability": "view",
      "type": "function"
    },
    {
      "inputs": [
        {
          "internalType": "string",
          "name": "_electionCode",
          "type": "string"
        },
        {
          "internalType": "uint256",
          "name": "_candidateId",
          "type": "uint256"
        }
      ],
      "name": "vota",
      "outputs": [],
      "stateMutability": "payable",
      "type": "function"
    }
  ],
  "bytecode": "0x6080604052348015600f57600080fd5b506131b18061001f6000396000f3fe6080604052600436106100a75760003560e01c80639af06cd9116100645780639af06cd9146101da578063a0e2969814610217578063bce5893514610257578063d72ae13014610297578063df7125ff146102b3578063ee312193146102f0576100a7565b8063143b7de6146100ac5780632410734d146100e95780633ec22278146101055780634a3ccc961461012e5780635597f0831461017257806398d16f751461019d575b600080fd5b3480156100b857600080fd5b506100d360048036038101906100ce9190611ca9565b61032d565b6040516100e09190611d33565b60405180910390f35b61010360048036038101906100fe9190611d84565b610377565b005b34801561011157600080fd5b5061012c60048036038101906101279190611ca9565b6106ba565b005b34801561013a57600080fd5b5061015560048036038101906101509190611ca9565b6108f7565b604051610169989796959493929190611e89565b60405180910390f35b34801561017e57600080fd5b50610187610b1a565b6040516101949190612028565b60405180910390f35b3480156101a957600080fd5b506101c460048036038101906101bf9190611ca9565b610bf3565b6040516101d1919061204a565b60405180910390f35b3480156101e657600080fd5b5061020160048036038101906101fc9190612091565b610c72565b60405161020e91906120ed565b60405180910390f35b34801561022357600080fd5b5061023e60048036038101906102399190611ca9565b610ce7565b60405161024e9493929190612229565b60405180910390f35b34801561026357600080fd5b5061027e60048036038101906102799190612283565b61101b565b60405161028e949392919061235f565b60405180910390f35b6102b160048036038101906102ac91906124a6565b61167c565b005b3480156102bf57600080fd5b506102da60048036038101906102d59190612561565b6118d5565b6040516102e7919061258e565b60405180910390f35b3480156102fc57600080fd5b5061031760048036038101906103129190611ca9565b611981565b60405161032491906120ed565b60405180910390f35b6000808260405161033e91906125ec565b908152602001604051809103902060070160009054906101000a900473ffffffffffffffffffffffffffffffffffffffff169050919050565b6000808360405161038891906125ec565b908152602001604051809103902090508060070160009054906101000a900473ffffffffffffffffffffffffffffffffffffffff1673ffffffffffffffffffffffffffffffffffffffff163373ffffffffffffffffffffffffffffffffffffffff160361042a576040517f08c379a000000000000000000000000000000000000000000000000000000000815260040161042190612675565b60405180910390fd5b8060030160003373ffffffffffffffffffffffffffffffffffffffff1673ffffffffffffffffffffffffffffffffffffffff16815260200190815260200160002060009054906101000a900460ff16156104b9576040517f08c379a00000000000000000000000000000000000000000000000000000000081526004016104b090612707565b60405180910390fd5b6000821180156104cd575080600101548211155b61050c576040517f08c379a000000000000000000000000000000000000000000000000000000000815260040161050390612773565b60405180910390fd5b8060060154421115610553576040517f08c379a000000000000000000000000000000000000000000000000000000000815260040161054a906127df565b60405180910390fd5b6000151560008460405161056791906125ec565b908152602001604051809103902060070160149054906101000a900460ff161515146105c8576040517f08c379a00000000000000000000000000000000000000000000000000000000081526004016105bf90612871565b60405180910390fd5b66b1a2bc2ec50000341015610612576040517f08c379a000000000000000000000000000000000000000000000000000000000815260040161060990612903565b60405180910390fd5b60018160030160003373ffffffffffffffffffffffffffffffffffffffff1673ffffffffffffffffffffffffffffffffffffffff16815260200190815260200160002060006101000a81548160ff0219169083151502179055508060020160018361067d9190612952565b8154811061068e5761068d612986565b5b906000526020600020906003020160020160008154809291906106b0906129b5565b9190505550505050565b600080826040516106cb91906125ec565b908152602001604051809103902090508060070160009054906101000a900473ffffffffffffffffffffffffffffffffffffffff1673ffffffffffffffffffffffffffffffffffffffff163373ffffffffffffffffffffffffffffffffffffffff161461076d576040517f08c379a000000000000000000000000000000000000000000000000000000000815260040161076490612a6f565b60405180910390fd5b806006015442116107b3576040517f08c379a00000000000000000000000000000000000000000000000000000000081526004016107aa90612b01565b60405180910390fd5b60005b81600101548110156108395760008260020182815481106107da576107d9612986565b5b9060005260206000209060030201600201541461082c576040517f08c379a000000000000000000000000000000000000000000000000000000000815260040161082390612b93565b60405180910390fd5b80806001019150506107b6565b50600160008360405161084c91906125ec565b908152602001604051809103902060070160146101000a81548160ff021916908315150217905550600081600801549050600082600801819055508160070160009054906101000a900473ffffffffffffffffffffffffffffffffffffffff1673ffffffffffffffffffffffffffffffffffffffff166108fc829081150290604051600060405180830381858888f193505050501580156108f1573d6000803e3d6000fd5b50505050565b60008180516020810182018051848252602083016020850120818352809550505050505060009150905080600001805461093090612be2565b80601f016020809104026020016040519081016040528092919081815260200182805461095c90612be2565b80156109a95780601f1061097e576101008083540402835291602001916109a9565b820191906000526020600020905b81548152906001019060200180831161098c57829003601f168201915b5050505050908060010154908060040180546109c490612be2565b80601f01602080910402602001604051908101604052809291908181526020018280546109f090612be2565b8015610a3d5780601f10610a1257610100808354040283529160200191610a3d565b820191906000526020600020905b815481529060010190602001808311610a2057829003601f168201915b505050505090806005018054610a5290612be2565b80601f0160208091040260200160405190810160405280929190818152602001828054610a7e90612be2565b8015610acb5780601f10610aa057610100808354040283529160200191610acb565b820191906000526020600020905b815481529060010190602001808311610aae57829003601f168201915b5050505050908060060154908060070160009054906101000a900473ffffffffffffffffffffffffffffffffffffffff16908060070160149054906101000a900460ff16908060080154905088565b60606001805480602002602001604051908101604052809291908181526020016000905b82821015610bea578382906000526020600020018054610b5d90612be2565b80601f0160208091040260200160405190810160405280929190818152602001828054610b8990612be2565b8015610bd65780601f10610bab57610100808354040283529160200191610bd6565b820191906000526020600020905b815481529060010190602001808311610bb957829003601f168201915b505050505081526020019060010190610b3e565b50505050905090565b600080600083604051610c0691906125ec565b908152602001604051809103902090506000915060005b8160010154811015610c6b57816002018181548110610c3f57610c3e612986565b5b90600052602060002090600302016002015483610c5c9190612c13565b92508080600101915050610c1d565b5050919050565b60008083604051610c8391906125ec565b908152602001604051809103902060030160008373ffffffffffffffffffffffffffffffffffffffff1673ffffffffffffffffffffffffffffffffffffffff16815260200190815260200160002060009054906101000a900460ff16905092915050565b6060806000606060001515600086604051610d0291906125ec565b908152602001604051809103902060070160149054906101000a900460ff16151514610d63576040517f08c379a0000000000000000000000000000000000000000000000000000000008152600401610d5a90612871565b60405180910390fd5b60008086604051610d7491906125ec565b90815260200160405180910390209050806005018054610d9390612be2565b80601f0160208091040260200160405190810160405280929190818152602001828054610dbf90612be2565b8015610e0c5780601f10610de157610100808354040283529160200191610e0c565b820191906000526020600020905b815481529060010190602001808311610def57829003601f168201915b50505050509450806004018054610e2290612be2565b80601f0160208091040260200160405190810160405280929190818152602001828054610e4e90612be2565b8015610e9b5780601f10610e7057610100808354040283529160200191610e9b565b820191906000526020600020905b815481529060010190602001808311610e7e57829003601f168201915b5050505050935080600601549250806001015467ffffffffffffffff811115610ec757610ec6611b7e565b5b604051908082528060200260200182016040528015610f0057816020015b610eed611b2e565b815260200190600190039081610ee55790505b50915060005b816001015481101561101257816002018181548110610f2857610f27612986565b5b906000526020600020906003020160405180606001604052908160008201548152602001600182018054610f5b90612be2565b80601f0160208091040260200160405190810160405280929190818152602001828054610f8790612be2565b8015610fd45780601f10610fa957610100808354040283529160200191610fd4565b820191906000526020600020905b815481529060010190602001808311610fb757829003601f168201915b50505050508152602001600282015481525050838281518110610ffa57610ff9612986565b5b60200260200101819052508080600101915050610f06565b50509193509193565b6060806060806000805b600180549050811015611135578673ffffffffffffffffffffffffffffffffffffffff1660006001838154811061105f5761105e612986565b5b906000526020600020016040516110769190612cdf565b908152602001604051809103902060070160009054906101000a900473ffffffffffffffffffffffffffffffffffffffff1673ffffffffffffffffffffffffffffffffffffffff1614801561111457506000600182815481106110dc576110db612986565b5b906000526020600020016040516110f39190612cdf565b908152602001604051809103902060070160149054906101000a900460ff16155b15611128578180611124906129b5565b9250505b8080600101915050611025565b508067ffffffffffffffff8111156111505761114f611b7e565b5b60405190808252806020026020018201604052801561118357816020015b606081526020019060019003908161116e5790505b5094508067ffffffffffffffff8111156111a05761119f611b7e565b5b6040519080825280602002602001820160405280156111d357816020015b60608152602001906001900390816111be5790505b5093508067ffffffffffffffff8111156111f0576111ef611b7e565b5b60405190808252806020026020018201604052801561121e5781602001602082028036833780820191505090505b5092508067ffffffffffffffff81111561123b5761123a611b7e565b5b60405190808252806020026020018201604052801561126e57816020015b60608152602001906001900390816112595790505b5091506000805b600180549050811015611672578773ffffffffffffffffffffffffffffffffffffffff166000600183815481106112af576112ae612986565b5b906000526020600020016040516112c69190612cdf565b908152602001604051809103902060070160009054906101000a900473ffffffffffffffffffffffffffffffffffffffff1673ffffffffffffffffffffffffffffffffffffffff16148015611364575060006001828154811061132c5761132b612986565b5b906000526020600020016040516113439190612cdf565b908152602001604051809103902060070160149054906101000a900460ff16155b156116655760006001828154811061137f5761137e612986565b5b906000526020600020016040516113969190612cdf565b908152602001604051809103902060050180546113b290612be2565b80601f01602080910402602001604051908101604052809291908181526020018280546113de90612be2565b801561142b5780601f106114005761010080835404028352916020019161142b565b820191906000526020600020905b81548152906001019060200180831161140e57829003601f168201915b505050505087838151811061144357611442612986565b5b602002602001018190525060006001828154811061146457611463612986565b5b9060005260206000200160405161147b9190612cdf565b9081526020016040518091039020600401805461149790612be2565b80601f01602080910402602001604051908101604052809291908181526020018280546114c390612be2565b80156115105780601f106114e557610100808354040283529160200191611510565b820191906000526020600020905b8154815290600101906020018083116114f357829003601f168201915b505050505086838151811061152857611527612986565b5b602002602001018190525060006001828154811061154957611548612986565b5b906000526020600020016040516115609190612cdf565b90815260200160405180910390206006015485838151811061158557611584612986565b5b602002602001018181525050600181815481106115a5576115a4612986565b5b9060005260206000200180546115ba90612be2565b80601f01602080910402602001604051908101604052809291908181526020018280546115e690612be2565b80156116335780601f1061160857610100808354040283529160200191611633565b820191906000526020600020905b81548152906001019060200180831161161657829003601f168201915b505050505084838151811061164b5761164a612986565b5b60200260200101819052508180611661906129b5565b9250505b8080600101915050611275565b5050509193509193565b60605b6116876119b8565b90506000808260405161169a91906125ec565b908152602001604051809103902060000180546116b690612be2565b90500361167f57600080826040516116ce91906125ec565b90815260200160405180910390209050818160000190816116ef9190612e8d565b50848160050190816117019190612e8d565b50838160040190816117139190612e8d565b50828160060181905550338160070160006101000a81548173ffffffffffffffffffffffffffffffffffffffff021916908373ffffffffffffffffffffffffffffffffffffffff16021790555060008160070160146101000a81548160ff02191690831515021790555067016345785d8a00003410156117c8576040517f08c379a00000000000000000000000000000000000000000000000000000000081526004016117bf90612fd1565b60405180910390fd5b34816008018190555060005b8651811015611897578160010160008154809291906117f2906129b5565b91905055508160020160405180606001604052808460010154815260200189848151811061182357611822612986565b5b602002602001015181526020016000815250908060018154018082558091505060019003906000526020600020906003020160009091909190915060008201518160000155602082015181600101908161187d9190612e8d565b5060408201518160020155505080806001019150506117d4565b506001829080600181540180825580915050600190039060005260206000200160009091909190915090816118cc9190612e8d565b50505050505050565b600181815481106118e557600080fd5b90600052602060002001600091509050805461190090612be2565b80601f016020809104026020016040519081016040528092919081815260200182805461192c90612be2565b80156119795780601f1061194e57610100808354040283529160200191611979565b820191906000526020600020905b81548152906001019060200180831161195c57829003601f168201915b505050505081565b6000808260405161199291906125ec565b908152602001604051809103902060070160149054906101000a900460ff169050919050565b606060006040518060600160405280603e815260200161313e603e91399050600042336001805490506040516020016119f39392919061305a565b60405160208183030381529060405280519060200120604051602001611a1991906130c2565b60405160208183030381529060405290506000600667ffffffffffffffff811115611a4757611a46611b7e565b5b6040519080825280601f01601f191660200182016040528015611a795781602001600182028036833780820191505090505b50905060005b6006811015611b2457838451848381518110611a9e57611a9d612986565b5b602001015160f81c60f81b60f81c60ff16611ab9919061310c565b81518110611aca57611ac9612986565b5b602001015160f81c60f81b828281518110611ae857611ae7612986565b5b60200101907effffffffffffffffffffffffffffffffffffffffffffffffffffffffffffff1916908160001a9053508080600101915050611a7f565b5080935050505090565b60405180606001604052806000815260200160608152602001600081525090565b6000604051905090565b600080fd5b600080fd5b600080fd5b600080fd5b6000601f19601f8301169050919050565b7f4e487b7100000000000000000000000000000000000000000000000000000000600052604160045260246000fd5b611bb682611b6d565b810181811067ffffffffffffffff82111715611bd557611bd4611b7e565b5b80604052505050565b6000611be8611b4f565b9050611bf48282611bad565b919050565b600067ffffffffffffffff821115611c1457611c13611b7e565b5b611c1d82611b6d565b9050602081019050919050565b82818337600083830152505050565b6000611c4c611c4784611bf9565b611bde565b905082815260208101848484011115611c6857611c67611b68565b5b611c73848285611c2a565b509392505050565b600082601f830112611c9057611c8f611b63565b5b8135611ca0848260208601611c39565b91505092915050565b600060208284031215611cbf57611cbe611b59565b5b600082013567ffffffffffffffff811115611cdd57611cdc611b5e565b5b611ce984828501611c7b565b91505092915050565b600073ffffffffffffffffffffffffffffffffffffffff82169050919050565b6000611d1d82611cf2565b9050919050565b611d2d81611d12565b82525050565b6000602082019050611d486000830184611d24565b92915050565b6000819050919050565b611d6181611d4e565b8114611d6c57600080fd5b50565b600081359050611d7e81611d58565b92915050565b60008060408385031215611d9b57611d9a611b59565b5b600083013567ffffffffffffffff811115611db957611db8611b5e565b5b611dc585828601611c7b565b9250506020611dd685828601611d6f565b9150509250929050565b600081519050919050565b600082825260208201905092915050565b60005b83811015611e1a578082015181840152602081019050611dff565b60008484015250505050565b6000611e3182611de0565b611e3b8185611deb565b9350611e4b818560208601611dfc565b611e5481611b6d565b840191505092915050565b611e6881611d4e565b82525050565b60008115159050919050565b611e8381611e6e565b82525050565b6000610100820190508181036000830152611ea4818b611e26565b9050611eb3602083018a611e5f565b8181036040830152611ec58189611e26565b90508181036060830152611ed98188611e26565b9050611ee86080830187611e5f565b611ef560a0830186611d24565b611f0260c0830185611e7a565b611f0f60e0830184611e5f565b9998505050505050505050565b600081519050919050565b600082825260208201905092915050565b6000819050602082019050919050565b600082825260208201905092915050565b6000611f6482611de0565b611f6e8185611f48565b9350611f7e818560208601611dfc565b611f8781611b6d565b840191505092915050565b6000611f9e8383611f59565b905092915050565b6000602082019050919050565b6000611fbe82611f1c565b611fc88185611f27565b935083602082028501611fda85611f38565b8060005b858110156120165784840389528151611ff78582611f92565b945061200283611fa6565b925060208a01995050600181019050611fde565b50829750879550505050505092915050565b600060208201905081810360008301526120428184611fb3565b905092915050565b600060208201905061205f6000830184611e5f565b92915050565b61206e81611d12565b811461207957600080fd5b50565b60008135905061208b81612065565b92915050565b600080604083850312156120a8576120a7611b59565b5b600083013567ffffffffffffffff8111156120c6576120c5611b5e565b5b6120d285828601611c7b565b92505060206120e38582860161207c565b9150509250929050565b60006020820190506121026000830184611e7a565b92915050565b600081519050919050565b600082825260208201905092915050565b6000819050602082019050919050565b61213d81611d4e565b82525050565b600060608301600083015161215b6000860182612134565b50602083015184820360208601526121738282611f59565b91505060408301516121886040860182612134565b508091505092915050565b600061219f8383612143565b905092915050565b6000602082019050919050565b60006121bf82612108565b6121c98185612113565b9350836020820285016121db85612124565b8060005b8581101561221757848403895281516121f88582612193565b9450612203836121a7565b925060208a019950506001810190506121df565b50829750879550505050505092915050565b600060808201905081810360008301526122438187611e26565b905081810360208301526122578186611e26565b90506122666040830185611e5f565b818103606083015261227881846121b4565b905095945050505050565b60006020828403121561229957612298611b59565b5b60006122a78482850161207c565b91505092915050565b600081519050919050565b600082825260208201905092915050565b6000819050602082019050919050565b60006122e88383612134565b60208301905092915050565b6000602082019050919050565b600061230c826122b0565b61231681856122bb565b9350612321836122cc565b8060005b8381101561235257815161233988826122dc565b9750612344836122f4565b925050600181019050612325565b5085935050505092915050565b600060808201905081810360008301526123798187611fb3565b9050818103602083015261238d8186611fb3565b905081810360408301526123a18185612301565b905081810360608301526123b58184611fb3565b905095945050505050565b600067ffffffffffffffff8211156123db576123da611b7e565b5b602082029050602081019050919050565b600080fd5b60006124046123ff846123c0565b611bde565b90508083825260208201905060208402830185811115612427576124266123ec565b5b835b8181101561246e57803567ffffffffffffffff81111561244c5761244b611b63565b5b8086016124598982611c7b565b85526020850194505050602081019050612429565b5050509392505050565b600082601f83011261248d5761248c611b63565b5b813561249d8482602086016123f1565b91505092915050565b600080600080608085870312156124c0576124bf611b59565b5b600085013567ffffffffffffffff8111156124de576124dd611b5e565b5b6124ea87828801612478565b945050602085013567ffffffffffffffff81111561250b5761250a611b5e565b5b61251787828801611c7b565b935050604085013567ffffffffffffffff81111561253857612537611b5e565b5b61254487828801611c7b565b925050606061255587828801611d6f565b91505092959194509250565b60006020828403121561257757612576611b59565b5b600061258584828501611d6f565b91505092915050565b600060208201905081810360008301526125a88184611e26565b905092915050565b600081905092915050565b60006125c682611de0565b6125d081856125b0565b93506125e0818560208601611dfc565b80840191505092915050565b60006125f882846125bb565b915081905092915050565b7f496c2063726561746f72652064656c6c27656c657a696f6e65206e6f6e20707560008201527f6f20766f74617265210000000000000000000000000000000000000000000000602082015250565b600061265f602983611deb565b915061266a82612603565b604082019050919050565b6000602082019050818103600083015261268e81612652565b9050919050565b7f486169206769612720766f7461746f207065722071756573746120656c657a6960008201527f6f6e652100000000000000000000000000000000000000000000000000000000602082015250565b60006126f1602483611deb565b91506126fc82612695565b604082019050919050565b60006020820190508181036000830152612720816126e4565b9050919050565b7f43616e64696461746f206e6f6e2076616c69646f210000000000000000000000600082015250565b600061275d601583611deb565b915061276882612727565b602082019050919050565b6000602082019050818103600083015261278c81612750565b9050919050565b7f4c6120766f74617a696f6e652065272067696127207465726d696e6174612100600082015250565b60006127c9601f83611deb565b91506127d482612793565b602082019050919050565b600060208201905081810360008301526127f8816127bc565b9050919050565b7f4c6120766f74617a696f6e6520652720737461746120656c696d696e6174612060008201527f65206e6f6e20726973756c74612070697527207669736962696c652100000000602082015250565b600061285b603c83611deb565b9150612866826127ff565b604082019050919050565b6000602082019050818103600083015261288a8161284e565b9050919050565b7f4465766920696e766961726520616c6d656e6f20302e3035204554482070657260008201527f20766f7461726521000000000000000000000000000000000000000000000000602082015250565b60006128ed602883611deb565b91506128f882612891565b604082019050919050565b6000602082019050818103600083015261291c816128e0565b9050919050565b7f4e487b7100000000000000000000000000000000000000000000000000000000600052601160045260246000fd5b600061295d82611d4e565b915061296883611d4e565b92508282039050818111156129805761297f612923565b5b92915050565b7f4e487b7100000000000000000000000000000000000000000000000000000000600052603260045260246000fd5b60006129c082611d4e565b91507fffffffffffffffffffffffffffffffffffffffffffffffffffffffffffffffff82036129f2576129f1612923565b5b600182019050919050565b7f536f6c6f20696c2063726561746f72652070756f2720616e6e756c6c6172652060008201527f6c27656c657a696f6e652e000000000000000000000000000000000000000000602082015250565b6000612a59602b83611deb565b9150612a64826129fd565b604082019050919050565b60006020820190508181036000830152612a8881612a4c565b9050919050565b7f4c27656c657a696f6e65206e6f6e20652720616e636f7261207363616475746160008201527f2e00000000000000000000000000000000000000000000000000000000000000602082015250565b6000612aeb602183611deb565b9150612af682612a8f565b604082019050919050565b60006020820190508181036000830152612b1a81612ade565b9050919050565b7f4e6f6e2070756f6920616e6e756c6c617265206c27656c657a696f6e652c206360008201527f6920736f6e6f20676961272064656920766f74692e0000000000000000000000602082015250565b6000612b7d603583611deb565b9150612b8882612b21565b604082019050919050565b60006020820190508181036000830152612bac81612b70565b9050919050565b7f4e487b7100000000000000000000000000000000000000000000000000000000600052602260045260246000fd5b60006002820490506001821680612bfa57607f821691505b602082108103612c0d57612c0c612bb3565b5b50919050565b6000612c1e82611d4e565b9150612c2983611d4e565b9250828201905080821115612c4157612c40612923565b5b92915050565b60008190508160005260206000209050919050565b60008154612c6981612be2565b612c7381866125b0565b94506001821660008114612c8e5760018114612ca357612cd6565b60ff1983168652811515820286019350612cd6565b612cac85612c47565b60005b83811015612cce57815481890152600182019150602081019050612caf565b838801955050505b50505092915050565b6000612ceb8284612c5c565b915081905092915050565b60006020601f8301049050919050565b600082821b905092915050565b600060088302612d437fffffffffffffffffffffffffffffffffffffffffffffffffffffffffffffffff82612d06565b612d4d8683612d06565b95508019841693508086168417925050509392505050565b6000819050919050565b6000612d8a612d85612d8084611d4e565b612d65565b611d4e565b9050919050565b6000819050919050565b612da483612d6f565b612db8612db082612d91565b848454612d13565b825550505050565b600090565b612dcd612dc0565b612dd8818484612d9b565b505050565b5b81811015612dfc57612df1600082612dc5565b600181019050612dde565b5050565b601f821115612e4157612e1281612c47565b612e1b84612cf6565b81016020851015612e2a578190505b612e3e612e3685612cf6565b830182612ddd565b50505b505050565b600082821c905092915050565b6000612e6460001984600802612e46565b1980831691505092915050565b6000612e7d8383612e53565b9150826002028217905092915050565b612e9682611de0565b67ffffffffffffffff811115612eaf57612eae611b7e565b5b612eb98254612be2565b612ec4828285612e00565b600060209050601f831160018114612ef75760008415612ee5578287015190505b612eef8582612e71565b865550612f57565b601f198416612f0586612c47565b60005b82811015612f2d57848901518255600182019150602085019450602081019050612f08565b86831015612f4a5784890151612f46601f891682612e53565b8355505b6001600288020188555050505b505050505050565b7f4465766920696e766961726520616c6d656e6f20302e3120455448207065722060008201527f637265617265206c27656c657a696f6e65210000000000000000000000000000602082015250565b6000612fbb603283611deb565b9150612fc682612f5f565b604082019050919050565b60006020820190508181036000830152612fea81612fae565b9050919050565b6000819050919050565b61300c61300782611d4e565b612ff1565b82525050565b60008160601b9050919050565b600061302a82613012565b9050919050565b600061303c8261301f565b9050919050565b61305461304f82611d12565b613031565b82525050565b60006130668286612ffb565b6020820191506130768285613043565b6014820191506130868284612ffb565b602082019150819050949350505050565b6000819050919050565b6000819050919050565b6130bc6130b782613097565b6130a1565b82525050565b60006130ce82846130ab565b60208201915081905092915050565b7f4e487b7100000000000000000000000000000000000000000000000000000000600052601260045260246000fd5b600061311782611d4e565b915061312283611d4e565b925082613132576131316130dd565b5b82820690509291505056fe4142434445464748494a4b4c4d4e4f505152535455565758595a6162636465666768696a6b6c6d6e6f707172737475767778797a30313233343536373839a264697066735822122009c20cac9320102465f72f8bc006d693184476e936110062307c763e4ac5783a64736f6c634300081b0033",
  "linkReferences": {},
  "deployedLinkReferences": {}
}