{
  "_format": "hh-sol-artifact-1",
  "contractName": "Election",
  "sourceName": "contracts/Election.sol",
  "abi": [
    {
      "inputs": [],
      "stateMutability": "nonpayable",
      "type": "constructor"
    },
    {
      "inputs": [
        {
          "internalType": "uint256",
          "name": "",
          "type": "uint256"
        }
      ],
      "name": "candidates",
      "outputs": [
        {
          "internalType": "uint256",
          "name": "id",
          "type": "uint256"
        },
        {
          "internalType": "string",
          "name": "name",
          "type": "string"
        },
        {
          "internalType": "uint256",
          "name": "voteCount",
          "type": "uint256"
        }
      ],
      "stateMutability": "view",
      "type": "function"
    },
    {
      "inputs": [],
      "name": "candidatesCount",
      "outputs": [
        {
          "internalType": "uint256",
          "name": "",
          "type": "uint256"
        }
      ],
      "stateMutability": "view",
      "type": "function"
    },
    {
      "inputs": [
        {
          "internalType": "string",
          "name": "_electionCode",
          "type": "string"
        },
        {
          "internalType": "string[]",
          "name": "_candidateNames",
          "type": "string[]"
        },
        {
          "internalType": "string",
          "name": "title",
          "type": "string"
        },
        {
          "internalType": "string",
          "name": "description",
          "type": "string"
        },
        {
          "internalType": "uint256",
          "name": "endDate",
          "type": "uint256"
        }
      ],
      "name": "createElection",
      "outputs": [],
      "stateMutability": "nonpayable",
      "type": "function"
    },
    {
      "inputs": [
        {
          "internalType": "uint256",
          "name": "",
          "type": "uint256"
        }
      ],
      "name": "electionCodes",
      "outputs": [
        {
          "internalType": "string",
          "name": "",
          "type": "string"
        }
      ],
      "stateMutability": "view",
      "type": "function"
    },
    {
      "inputs": [
        {
          "internalType": "string",
          "name": "",
          "type": "string"
        }
      ],
      "name": "elections",
      "outputs": [
        {
          "internalType": "string",
          "name": "eelectionCode",
          "type": "string"
        },
        {
          "internalType": "uint256",
          "name": "ecandidatesCount",
          "type": "uint256"
        },
        {
          "internalType": "string",
          "name": "description",
          "type": "string"
        },
        {
          "internalType": "string",
          "name": "title",
          "type": "string"
        },
        {
          "internalType": "uint256",
          "name": "endDate",
          "type": "uint256"
        }
      ],
      "stateMutability": "view",
      "type": "function"
    },
    {
      "inputs": [],
      "name": "getElectionCount",
      "outputs": [
        {
          "internalType": "uint256",
          "name": "",
          "type": "uint256"
        }
      ],
      "stateMutability": "view",
      "type": "function"
    },
    {
      "inputs": [
        {
          "internalType": "uint256",
          "name": "_candidateId",
          "type": "uint256"
        }
      ],
      "name": "vote",
      "outputs": [],
      "stateMutability": "nonpayable",
      "type": "function"
    },
    {
      "inputs": [
        {
          "internalType": "address",
          "name": "",
          "type": "address"
        }
      ],
      "name": "voters",
      "outputs": [
        {
          "internalType": "bool",
          "name": "",
          "type": "bool"
        }
      ],
      "stateMutability": "view",
      "type": "function"
    }
  ],
  "bytecode": "0x608060405234801561001057600080fd5b506100556040518060400160405280600b81526020017f43616e646964617465203100000000000000000000000000000000000000000081525061009e60201b60201c565b6100996040518060400160405280600b81526020017f43616e646964617465203200000000000000000000000000000000000000000081525061009e60201b60201c565b6104b2565b600460008154809291906100b190610152565b919050555060405180606001604052806004548152602001828152602001600081525060036000600454815260200190815260200160002060008201518160000155602082015181600101908161010891906103e0565b506040820151816002015590505050565b7f4e487b7100000000000000000000000000000000000000000000000000000000600052601160045260246000fd5b6000819050919050565b600061015d82610148565b91507fffffffffffffffffffffffffffffffffffffffffffffffffffffffffffffffff820361018f5761018e610119565b5b600182019050919050565b600081519050919050565b7f4e487b7100000000000000000000000000000000000000000000000000000000600052604160045260246000fd5b7f4e487b7100000000000000000000000000000000000000000000000000000000600052602260045260246000fd5b6000600282049050600182168061021b57607f821691505b60208210810361022e5761022d6101d4565b5b50919050565b60008190508160005260206000209050919050565b60006020601f8301049050919050565b600082821b905092915050565b6000600883026102967fffffffffffffffffffffffffffffffffffffffffffffffffffffffffffffffff82610259565b6102a08683610259565b95508019841693508086168417925050509392505050565b6000819050919050565b60006102dd6102d86102d384610148565b6102b8565b610148565b9050919050565b6000819050919050565b6102f7836102c2565b61030b610303826102e4565b848454610266565b825550505050565b600090565b610320610313565b61032b8184846102ee565b505050565b5b8181101561034f57610344600082610318565b600181019050610331565b5050565b601f8211156103945761036581610234565b61036e84610249565b8101602085101561037d578190505b61039161038985610249565b830182610330565b50505b505050565b600082821c905092915050565b60006103b760001984600802610399565b1980831691505092915050565b60006103d083836103a6565b9150826002028217905092915050565b6103e98261019a565b67ffffffffffffffff811115610402576104016101a5565b5b61040c8254610203565b610417828285610353565b600060209050601f83116001811461044a5760008415610438578287015190505b61044285826103c4565b8655506104aa565b601f19841661045886610234565b60005b828110156104805784890151825560018201915060208501945060208101905061045b565b8683101561049d5784890151610499601f8916826103a6565b8355505b6001600288020188555050505b505050505050565b6111af806104c16000396000f3fe608060405234801561001057600080fd5b50600436106100885760003560e01c80634a3ccc961161005b5780634a3ccc96146101175780637f4249151461014b578063a3ec138d14610167578063df7125ff1461019757610088565b80630121b93f1461008d578063213785a0146100a95780632d35a8a2146100c75780633477ee2e146100e5575b600080fd5b6100a760048036038101906100a291906107e3565b6101c7565b005b6100b16102c0565b6040516100be919061081f565b60405180910390f35b6100cf6102cd565b6040516100dc919061081f565b60405180910390f35b6100ff60048036038101906100fa91906107e3565b6102d3565b60405161010e939291906108ca565b60405180910390f35b610131600480360381019061012c9190610a3d565b610385565b604051610142959493929190610a86565b60405180910390f35b61016560048036038101906101609190610bd4565b610569565b005b610181600480360381019061017c9190610d1d565b6106cd565b60405161018e9190610d65565b60405180910390f35b6101b160048036038101906101ac91906107e3565b6106ed565b6040516101be9190610d80565b60405180910390f35b600260003373ffffffffffffffffffffffffffffffffffffffff1673ffffffffffffffffffffffffffffffffffffffff16815260200190815260200160002060009054906101000a900460ff161561021e57600080fd5b60008111801561023057506004548111155b61023957600080fd5b6001600260003373ffffffffffffffffffffffffffffffffffffffff1673ffffffffffffffffffffffffffffffffffffffff16815260200190815260200160002060006101000a81548160ff0219169083151502179055506003600082815260200190815260200160002060020160008154809291906102b890610dd1565b919050555050565b6000600180549050905090565b60045481565b60036020528060005260406000206000915090508060000154908060010180546102fc90610e48565b80601f016020809104026020016040519081016040528092919081815260200182805461032890610e48565b80156103755780601f1061034a57610100808354040283529160200191610375565b820191906000526020600020905b81548152906001019060200180831161035857829003601f168201915b5050505050908060020154905083565b6000818051602081018201805184825260208301602085012081835280955050505050506000915090508060000180546103be90610e48565b80601f01602080910402602001604051908101604052809291908181526020018280546103ea90610e48565b80156104375780601f1061040c57610100808354040283529160200191610437565b820191906000526020600020905b81548152906001019060200180831161041a57829003601f168201915b50505050509080600101549080600401805461045290610e48565b80601f016020809104026020016040519081016040528092919081815260200182805461047e90610e48565b80156104cb5780601f106104a0576101008083540402835291602001916104cb565b820191906000526020600020905b8154815290600101906020018083116104ae57829003601f168201915b5050505050908060050180546104e090610e48565b80601f016020809104026020016040519081016040528092919081815260200182805461050c90610e48565b80156105595780601f1061052e57610100808354040283529160200191610559565b820191906000526020600020905b81548152906001019060200180831161053c57829003601f168201915b5050505050908060060154905085565b6000808660405161057a9190610eb5565b908152602001604051809103902090508581600001908161059b9190611078565b50838160050190816105ad9190611078565b50828160040190816105bf9190611078565b5081816006018190555060005b855181101561068f578160010160008154809291906105ea90610dd1565b91905055508160020160405180606001604052808460010154815260200188848151811061061b5761061a61114a565b5b60200260200101518152602001600081525090806001815401808255809150506001900390600052602060002090600302016000909190919091506000820151816000015560208201518160010190816106759190611078565b5060408201518160020155505080806001019150506105cc565b506001869080600181540180825580915050600190039060005260206000200160009091909190915090816106c49190611078565b50505050505050565b60026020528060005260406000206000915054906101000a900460ff1681565b600181815481106106fd57600080fd5b90600052602060002001600091509050805461071890610e48565b80601f016020809104026020016040519081016040528092919081815260200182805461074490610e48565b80156107915780601f1061076657610100808354040283529160200191610791565b820191906000526020600020905b81548152906001019060200180831161077457829003601f168201915b505050505081565b6000604051905090565b600080fd5b600080fd5b6000819050919050565b6107c0816107ad565b81146107cb57600080fd5b50565b6000813590506107dd816107b7565b92915050565b6000602082840312156107f9576107f86107a3565b5b6000610807848285016107ce565b91505092915050565b610819816107ad565b82525050565b60006020820190506108346000830184610810565b92915050565b600081519050919050565b600082825260208201905092915050565b60005b83811015610874578082015181840152602081019050610859565b60008484015250505050565b6000601f19601f8301169050919050565b600061089c8261083a565b6108a68185610845565b93506108b6818560208601610856565b6108bf81610880565b840191505092915050565b60006060820190506108df6000830186610810565b81810360208301526108f18185610891565b90506109006040830184610810565b949350505050565b600080fd5b600080fd5b7f4e487b7100000000000000000000000000000000000000000000000000000000600052604160045260246000fd5b61094a82610880565b810181811067ffffffffffffffff8211171561096957610968610912565b5b80604052505050565b600061097c610799565b90506109888282610941565b919050565b600067ffffffffffffffff8211156109a8576109a7610912565b5b6109b182610880565b9050602081019050919050565b82818337600083830152505050565b60006109e06109db8461098d565b610972565b9050828152602081018484840111156109fc576109fb61090d565b5b610a078482856109be565b509392505050565b600082601f830112610a2457610a23610908565b5b8135610a348482602086016109cd565b91505092915050565b600060208284031215610a5357610a526107a3565b5b600082013567ffffffffffffffff811115610a7157610a706107a8565b5b610a7d84828501610a0f565b91505092915050565b600060a0820190508181036000830152610aa08188610891565b9050610aaf6020830187610810565b8181036040830152610ac18186610891565b90508181036060830152610ad58185610891565b9050610ae46080830184610810565b9695505050505050565b600067ffffffffffffffff821115610b0957610b08610912565b5b602082029050602081019050919050565b600080fd5b6000610b32610b2d84610aee565b610972565b90508083825260208201905060208402830185811115610b5557610b54610b1a565b5b835b81811015610b9c57803567ffffffffffffffff811115610b7a57610b79610908565b5b808601610b878982610a0f565b85526020850194505050602081019050610b57565b5050509392505050565b600082601f830112610bbb57610bba610908565b5b8135610bcb848260208601610b1f565b91505092915050565b600080600080600060a08688031215610bf057610bef6107a3565b5b600086013567ffffffffffffffff811115610c0e57610c0d6107a8565b5b610c1a88828901610a0f565b955050602086013567ffffffffffffffff811115610c3b57610c3a6107a8565b5b610c4788828901610ba6565b945050604086013567ffffffffffffffff811115610c6857610c676107a8565b5b610c7488828901610a0f565b935050606086013567ffffffffffffffff811115610c9557610c946107a8565b5b610ca188828901610a0f565b9250506080610cb2888289016107ce565b9150509295509295909350565b600073ffffffffffffffffffffffffffffffffffffffff82169050919050565b6000610cea82610cbf565b9050919050565b610cfa81610cdf565b8114610d0557600080fd5b50565b600081359050610d1781610cf1565b92915050565b600060208284031215610d3357610d326107a3565b5b6000610d4184828501610d08565b91505092915050565b60008115159050919050565b610d5f81610d4a565b82525050565b6000602082019050610d7a6000830184610d56565b92915050565b60006020820190508181036000830152610d9a8184610891565b905092915050565b7f4e487b7100000000000000000000000000000000000000000000000000000000600052601160045260246000fd5b6000610ddc826107ad565b91507fffffffffffffffffffffffffffffffffffffffffffffffffffffffffffffffff8203610e0e57610e0d610da2565b5b600182019050919050565b7f4e487b7100000000000000000000000000000000000000000000000000000000600052602260045260246000fd5b60006002820490506001821680610e6057607f821691505b602082108103610e7357610e72610e19565b5b50919050565b600081905092915050565b6000610e8f8261083a565b610e998185610e79565b9350610ea9818560208601610856565b80840191505092915050565b6000610ec18284610e84565b915081905092915050565b60008190508160005260206000209050919050565b60006020601f8301049050919050565b600082821b905092915050565b600060088302610f2e7fffffffffffffffffffffffffffffffffffffffffffffffffffffffffffffffff82610ef1565b610f388683610ef1565b95508019841693508086168417925050509392505050565b6000819050919050565b6000610f75610f70610f6b846107ad565b610f50565b6107ad565b9050919050565b6000819050919050565b610f8f83610f5a565b610fa3610f9b82610f7c565b848454610efe565b825550505050565b600090565b610fb8610fab565b610fc3818484610f86565b505050565b5b81811015610fe757610fdc600082610fb0565b600181019050610fc9565b5050565b601f82111561102c57610ffd81610ecc565b61100684610ee1565b81016020851015611015578190505b61102961102185610ee1565b830182610fc8565b50505b505050565b600082821c905092915050565b600061104f60001984600802611031565b1980831691505092915050565b6000611068838361103e565b9150826002028217905092915050565b6110818261083a565b67ffffffffffffffff81111561109a57611099610912565b5b6110a48254610e48565b6110af828285610feb565b600060209050601f8311600181146110e257600084156110d0578287015190505b6110da858261105c565b865550611142565b601f1984166110f086610ecc565b60005b82811015611118578489015182556001820191506020850194506020810190506110f3565b868310156111355784890151611131601f89168261103e565b8355505b6001600288020188555050505b505050505050565b7f4e487b7100000000000000000000000000000000000000000000000000000000600052603260045260246000fdfea2646970667358221220cc304e77b8b184ce8a572c0f4c24f94fa5bdbc70f9744f0b74128ab6a4fd5ba964736f6c634300081b0033",
  "linkReferences": {},
  "deployedLinkReferences": {}
}