{
  "_format": "hh-sol-artifact-1",
  "contractName": "Election",
  "sourceName": "contracts/Election.sol",
  "abi": [
    {
      "inputs": [
        {
          "internalType": "string[]",
          "name": "_candidateNames",
          "type": "string[]"
        },
        {
          "internalType": "string",
          "name": "title",
          "type": "string"
        },
        {
          "internalType": "string",
          "name": "description",
          "type": "string"
        },
        {
          "internalType": "uint256",
          "name": "endDate",
          "type": "uint256"
        }
      ],
      "name": "createElection",
      "outputs": [],
      "stateMutability": "nonpayable",
      "type": "function"
    },
    {
      "inputs": [
        {
          "internalType": "uint256",
          "name": "",
          "type": "uint256"
        }
      ],
      "name": "electionCodes",
      "outputs": [
        {
          "internalType": "string",
          "name": "",
          "type": "string"
        }
      ],
      "stateMutability": "view",
      "type": "function"
    },
    {
      "inputs": [
        {
          "internalType": "string",
          "name": "",
          "type": "string"
        }
      ],
      "name": "elections",
      "outputs": [
        {
          "internalType": "string",
          "name": "eelectionCode",
          "type": "string"
        },
        {
          "internalType": "uint256",
          "name": "ecandidatesCount",
          "type": "uint256"
        },
        {
          "internalType": "string",
          "name": "description",
          "type": "string"
        },
        {
          "internalType": "string",
          "name": "title",
          "type": "string"
        },
        {
          "internalType": "uint256",
          "name": "endDate",
          "type": "uint256"
        }
      ],
      "stateMutability": "view",
      "type": "function"
    },
    {
      "inputs": [],
      "name": "getAllElection",
      "outputs": [
        {
          "internalType": "string[]",
          "name": "",
          "type": "string[]"
        }
      ],
      "stateMutability": "view",
      "type": "function"
    },
    {
      "inputs": [
        {
          "internalType": "string",
          "name": "_electionCode",
          "type": "string"
        }
      ],
      "name": "getElectionByCode",
      "outputs": [
        {
          "internalType": "string",
          "name": "title",
          "type": "string"
        },
        {
          "internalType": "string",
          "name": "description",
          "type": "string"
        },
        {
          "internalType": "uint256",
          "name": "endDate",
          "type": "uint256"
        },
        {
          "components": [
            {
              "internalType": "uint256",
              "name": "id",
              "type": "uint256"
            },
            {
              "internalType": "string",
              "name": "name",
              "type": "string"
            },
            {
              "internalType": "uint256",
              "name": "voteCount",
              "type": "uint256"
            }
          ],
          "internalType": "struct Election.Candidate[]",
          "name": "ecandidates",
          "type": "tuple[]"
        }
      ],
      "stateMutability": "view",
      "type": "function"
    },
    {
      "inputs": [
        {
          "internalType": "string",
          "name": "_electionCode",
          "type": "string"
        },
        {
          "internalType": "address",
          "name": "_voter",
          "type": "address"
        }
      ],
      "name": "hasVoted",
      "outputs": [
        {
          "internalType": "bool",
          "name": "",
          "type": "bool"
        }
      ],
      "stateMutability": "view",
      "type": "function"
    },
    {
      "inputs": [
        {
          "internalType": "string",
          "name": "_electionCode",
          "type": "string"
        },
        {
          "internalType": "uint256",
          "name": "_candidateId",
          "type": "uint256"
        }
      ],
      "name": "vota",
      "outputs": [],
      "stateMutability": "nonpayable",
      "type": "function"
    }
  ],
  "bytecode": "0x6080604052348015600f57600080fd5b50611ca08061001f6000396000f3fe608060405234801561001057600080fd5b506004361061007d5760003560e01c80639af06cd91161005b5780639af06cd9146100f0578063a0e2969814610120578063d72ae13014610153578063df7125ff1461016f5761007d565b80632410734d146100825780634a3ccc961461009e5780635597f083146100d2575b600080fd5b61009c60048036038101906100979190610eb3565b61019f565b005b6100b860048036038101906100b39190610f0f565b61034a565b6040516100c9959493929190610fe6565b60405180910390f35b6100da61052e565b6040516100e7919061115a565b60405180910390f35b61010a600480360381019061010591906111da565b610607565b6040516101179190611251565b60405180910390f35b61013a60048036038101906101359190610f0f565b61067c565b60405161014a949392919061138d565b60405180910390f35b61016d600480360381019061016891906114cd565b61093b565b005b61018960048036038101906101849190611588565b610ae0565b60405161019691906115b5565b60405180910390f35b600080836040516101b09190611613565b908152602001604051809103902090508060030160003373ffffffffffffffffffffffffffffffffffffffff1673ffffffffffffffffffffffffffffffffffffffff16815260200190815260200160002060009054906101000a900460ff161561024f576040517f08c379a00000000000000000000000000000000000000000000000000000000081526004016102469061169c565b60405180910390fd5b600082118015610263575080600101548211155b6102a2576040517f08c379a000000000000000000000000000000000000000000000000000000000815260040161029990611708565b60405180910390fd5b60018160030160003373ffffffffffffffffffffffffffffffffffffffff1673ffffffffffffffffffffffffffffffffffffffff16815260200190815260200160002060006101000a81548160ff0219169083151502179055508060020160018361030d9190611757565b8154811061031e5761031d61178b565b5b90600052602060002090600302016002016000815480929190610340906117ba565b9190505550505050565b60008180516020810182018051848252602083016020850120818352809550505050505060009150905080600001805461038390611831565b80601f01602080910402602001604051908101604052809291908181526020018280546103af90611831565b80156103fc5780601f106103d1576101008083540402835291602001916103fc565b820191906000526020600020905b8154815290600101906020018083116103df57829003601f168201915b50505050509080600101549080600401805461041790611831565b80601f016020809104026020016040519081016040528092919081815260200182805461044390611831565b80156104905780601f1061046557610100808354040283529160200191610490565b820191906000526020600020905b81548152906001019060200180831161047357829003601f168201915b5050505050908060050180546104a590611831565b80601f01602080910402602001604051908101604052809291908181526020018280546104d190611831565b801561051e5780601f106104f35761010080835404028352916020019161051e565b820191906000526020600020905b81548152906001019060200180831161050157829003601f168201915b5050505050908060060154905085565b60606001805480602002602001604051908101604052809291908181526020016000905b828210156105fe57838290600052602060002001805461057190611831565b80601f016020809104026020016040519081016040528092919081815260200182805461059d90611831565b80156105ea5780601f106105bf576101008083540402835291602001916105ea565b820191906000526020600020905b8154815290600101906020018083116105cd57829003601f168201915b505050505081526020019060010190610552565b50505050905090565b600080836040516106189190611613565b908152602001604051809103902060030160008373ffffffffffffffffffffffffffffffffffffffff1673ffffffffffffffffffffffffffffffffffffffff16815260200190815260200160002060009054906101000a900460ff16905092915050565b60608060006060600080866040516106949190611613565b908152602001604051809103902090508060050180546106b390611831565b80601f01602080910402602001604051908101604052809291908181526020018280546106df90611831565b801561072c5780601f106107015761010080835404028352916020019161072c565b820191906000526020600020905b81548152906001019060200180831161070f57829003601f168201915b5050505050945080600401805461074290611831565b80601f016020809104026020016040519081016040528092919081815260200182805461076e90611831565b80156107bb5780601f10610790576101008083540402835291602001916107bb565b820191906000526020600020905b81548152906001019060200180831161079e57829003601f168201915b5050505050935080600601549250806001015467ffffffffffffffff8111156107e7576107e6610d52565b5b60405190808252806020026020018201604052801561082057816020015b61080d610d02565b8152602001906001900390816108055790505b50915060005b8160010154811015610932578160020181815481106108485761084761178b565b5b90600052602060002090600302016040518060600160405290816000820154815260200160018201805461087b90611831565b80601f01602080910402602001604051908101604052809291908181526020018280546108a790611831565b80156108f45780601f106108c9576101008083540402835291602001916108f4565b820191906000526020600020905b8154815290600101906020018083116108d757829003601f168201915b5050505050815260200160028201548152505083828151811061091a5761091961178b565b5b60200260200101819052508080600101915050610826565b50509193509193565b60605b610946610b8c565b9050600080826040516109599190611613565b9081526020016040518091039020600001805461097590611831565b90500361093e576000808260405161098d9190611613565b90815260200160405180910390209050818160000190816109ae9190611a0e565b50848160050190816109c09190611a0e565b50838160040190816109d29190611a0e565b5082816006018190555060005b8651811015610aa2578160010160008154809291906109fd906117ba565b919050555081600201604051806060016040528084600101548152602001898481518110610a2e57610a2d61178b565b5b6020026020010151815260200160008152509080600181540180825580915050600190039060005260206000209060030201600090919091909150600082015181600001556020820151816001019081610a889190611a0e565b5060408201518160020155505080806001019150506109df565b50600182908060018154018082558091505060019003906000526020600020016000909190919091509081610ad79190611a0e565b50505050505050565b60018181548110610af057600080fd5b906000526020600020016000915090508054610b0b90611831565b80601f0160208091040260200160405190810160405280929190818152602001828054610b3790611831565b8015610b845780601f10610b5957610100808354040283529160200191610b84565b820191906000526020600020905b815481529060010190602001808311610b6757829003601f168201915b505050505081565b606060006040518060600160405280603e8152602001611c2d603e9139905060004233600180549050604051602001610bc793929190611b49565b60405160208183030381529060405280519060200120604051602001610bed9190611bb1565b60405160208183030381529060405290506000600667ffffffffffffffff811115610c1b57610c1a610d52565b5b6040519080825280601f01601f191660200182016040528015610c4d5781602001600182028036833780820191505090505b50905060005b6006811015610cf857838451848381518110610c7257610c7161178b565b5b602001015160f81c60f81b60f81c60ff16610c8d9190611bfb565b81518110610c9e57610c9d61178b565b5b602001015160f81c60f81b828281518110610cbc57610cbb61178b565b5b60200101907effffffffffffffffffffffffffffffffffffffffffffffffffffffffffffff1916908160001a9053508080600101915050610c53565b5080935050505090565b60405180606001604052806000815260200160608152602001600081525090565b6000604051905090565b600080fd5b600080fd5b600080fd5b600080fd5b6000601f19601f8301169050919050565b7f4e487b7100000000000000000000000000000000000000000000000000000000600052604160045260246000fd5b610d8a82610d41565b810181811067ffffffffffffffff82111715610da957610da8610d52565b5b80604052505050565b6000610dbc610d23565b9050610dc88282610d81565b919050565b600067ffffffffffffffff821115610de857610de7610d52565b5b610df182610d41565b9050602081019050919050565b82818337600083830152505050565b6000610e20610e1b84610dcd565b610db2565b905082815260208101848484011115610e3c57610e3b610d3c565b5b610e47848285610dfe565b509392505050565b600082601f830112610e6457610e63610d37565b5b8135610e74848260208601610e0d565b91505092915050565b6000819050919050565b610e9081610e7d565b8114610e9b57600080fd5b50565b600081359050610ead81610e87565b92915050565b60008060408385031215610eca57610ec9610d2d565b5b600083013567ffffffffffffffff811115610ee857610ee7610d32565b5b610ef485828601610e4f565b9250506020610f0585828601610e9e565b9150509250929050565b600060208284031215610f2557610f24610d2d565b5b600082013567ffffffffffffffff811115610f4357610f42610d32565b5b610f4f84828501610e4f565b91505092915050565b600081519050919050565b600082825260208201905092915050565b60005b83811015610f92578082015181840152602081019050610f77565b60008484015250505050565b6000610fa982610f58565b610fb38185610f63565b9350610fc3818560208601610f74565b610fcc81610d41565b840191505092915050565b610fe081610e7d565b82525050565b600060a08201905081810360008301526110008188610f9e565b905061100f6020830187610fd7565b81810360408301526110218186610f9e565b905081810360608301526110358185610f9e565b90506110446080830184610fd7565b9695505050505050565b600081519050919050565b600082825260208201905092915050565b6000819050602082019050919050565b600082825260208201905092915050565b600061109682610f58565b6110a0818561107a565b93506110b0818560208601610f74565b6110b981610d41565b840191505092915050565b60006110d0838361108b565b905092915050565b6000602082019050919050565b60006110f08261104e565b6110fa8185611059565b93508360208202850161110c8561106a565b8060005b85811015611148578484038952815161112985826110c4565b9450611134836110d8565b925060208a01995050600181019050611110565b50829750879550505050505092915050565b6000602082019050818103600083015261117481846110e5565b905092915050565b600073ffffffffffffffffffffffffffffffffffffffff82169050919050565b60006111a78261117c565b9050919050565b6111b78161119c565b81146111c257600080fd5b50565b6000813590506111d4816111ae565b92915050565b600080604083850312156111f1576111f0610d2d565b5b600083013567ffffffffffffffff81111561120f5761120e610d32565b5b61121b85828601610e4f565b925050602061122c858286016111c5565b9150509250929050565b60008115159050919050565b61124b81611236565b82525050565b60006020820190506112666000830184611242565b92915050565b600081519050919050565b600082825260208201905092915050565b6000819050602082019050919050565b6112a181610e7d565b82525050565b60006060830160008301516112bf6000860182611298565b50602083015184820360208601526112d7828261108b565b91505060408301516112ec6040860182611298565b508091505092915050565b600061130383836112a7565b905092915050565b6000602082019050919050565b60006113238261126c565b61132d8185611277565b93508360208202850161133f85611288565b8060005b8581101561137b578484038952815161135c85826112f7565b94506113678361130b565b925060208a01995050600181019050611343565b50829750879550505050505092915050565b600060808201905081810360008301526113a78187610f9e565b905081810360208301526113bb8186610f9e565b90506113ca6040830185610fd7565b81810360608301526113dc8184611318565b905095945050505050565b600067ffffffffffffffff82111561140257611401610d52565b5b602082029050602081019050919050565b600080fd5b600061142b611426846113e7565b610db2565b9050808382526020820190506020840283018581111561144e5761144d611413565b5b835b8181101561149557803567ffffffffffffffff81111561147357611472610d37565b5b8086016114808982610e4f565b85526020850194505050602081019050611450565b5050509392505050565b600082601f8301126114b4576114b3610d37565b5b81356114c4848260208601611418565b91505092915050565b600080600080608085870312156114e7576114e6610d2d565b5b600085013567ffffffffffffffff81111561150557611504610d32565b5b6115118782880161149f565b945050602085013567ffffffffffffffff81111561153257611531610d32565b5b61153e87828801610e4f565b935050604085013567ffffffffffffffff81111561155f5761155e610d32565b5b61156b87828801610e4f565b925050606061157c87828801610e9e565b91505092959194509250565b60006020828403121561159e5761159d610d2d565b5b60006115ac84828501610e9e565b91505092915050565b600060208201905081810360008301526115cf8184610f9e565b905092915050565b600081905092915050565b60006115ed82610f58565b6115f781856115d7565b9350611607818560208601610f74565b80840191505092915050565b600061161f82846115e2565b915081905092915050565b7f486169206769612720766f7461746f207065722071756573746120656c657a6960008201527f6f6e652100000000000000000000000000000000000000000000000000000000602082015250565b6000611686602483610f63565b91506116918261162a565b604082019050919050565b600060208201905081810360008301526116b581611679565b9050919050565b7f43616e64696461746f206e6f6e2076616c69646f210000000000000000000000600082015250565b60006116f2601583610f63565b91506116fd826116bc565b602082019050919050565b60006020820190508181036000830152611721816116e5565b9050919050565b7f4e487b7100000000000000000000000000000000000000000000000000000000600052601160045260246000fd5b600061176282610e7d565b915061176d83610e7d565b925082820390508181111561178557611784611728565b5b92915050565b7f4e487b7100000000000000000000000000000000000000000000000000000000600052603260045260246000fd5b60006117c582610e7d565b91507fffffffffffffffffffffffffffffffffffffffffffffffffffffffffffffffff82036117f7576117f6611728565b5b600182019050919050565b7f4e487b7100000000000000000000000000000000000000000000000000000000600052602260045260246000fd5b6000600282049050600182168061184957607f821691505b60208210810361185c5761185b611802565b5b50919050565b60008190508160005260206000209050919050565b60006020601f8301049050919050565b600082821b905092915050565b6000600883026118c47fffffffffffffffffffffffffffffffffffffffffffffffffffffffffffffffff82611887565b6118ce8683611887565b95508019841693508086168417925050509392505050565b6000819050919050565b600061190b61190661190184610e7d565b6118e6565b610e7d565b9050919050565b6000819050919050565b611925836118f0565b61193961193182611912565b848454611894565b825550505050565b600090565b61194e611941565b61195981848461191c565b505050565b5b8181101561197d57611972600082611946565b60018101905061195f565b5050565b601f8211156119c25761199381611862565b61199c84611877565b810160208510156119ab578190505b6119bf6119b785611877565b83018261195e565b50505b505050565b600082821c905092915050565b60006119e5600019846008026119c7565b1980831691505092915050565b60006119fe83836119d4565b9150826002028217905092915050565b611a1782610f58565b67ffffffffffffffff811115611a3057611a2f610d52565b5b611a3a8254611831565b611a45828285611981565b600060209050601f831160018114611a785760008415611a66578287015190505b611a7085826119f2565b865550611ad8565b601f198416611a8686611862565b60005b82811015611aae57848901518255600182019150602085019450602081019050611a89565b86831015611acb5784890151611ac7601f8916826119d4565b8355505b6001600288020188555050505b505050505050565b6000819050919050565b611afb611af682610e7d565b611ae0565b82525050565b60008160601b9050919050565b6000611b1982611b01565b9050919050565b6000611b2b82611b0e565b9050919050565b611b43611b3e8261119c565b611b20565b82525050565b6000611b558286611aea565b602082019150611b658285611b32565b601482019150611b758284611aea565b602082019150819050949350505050565b6000819050919050565b6000819050919050565b611bab611ba682611b86565b611b90565b82525050565b6000611bbd8284611b9a565b60208201915081905092915050565b7f4e487b7100000000000000000000000000000000000000000000000000000000600052601260045260246000fd5b6000611c0682610e7d565b9150611c1183610e7d565b925082611c2157611c20611bcc565b5b82820690509291505056fe4142434445464748494a4b4c4d4e4f505152535455565758595a6162636465666768696a6b6c6d6e6f707172737475767778797a30313233343536373839a26469706673582212203001d978d22fc5aa5eb20bbe4af818433afa14566f54c7c1addab4da9cb0ee8d64736f6c634300081b0033",
  "linkReferences": {},
  "deployedLinkReferences": {}
}