{
  "_format": "hh-sol-artifact-1",
  "contractName": "Election",
  "sourceName": "contracts/Election.sol",
  "abi": [
    {
      "inputs": [
        {
          "internalType": "string[]",
          "name": "_candidateNames",
          "type": "string[]"
        },
        {
          "internalType": "string",
          "name": "title",
          "type": "string"
        },
        {
          "internalType": "string",
          "name": "description",
          "type": "string"
        },
        {
          "internalType": "uint256",
          "name": "endDate",
          "type": "uint256"
        }
      ],
      "name": "createElection",
      "outputs": [],
      "stateMutability": "payable",
      "type": "function"
    },
    {
      "inputs": [
        {
          "internalType": "string",
          "name": "_electionCode",
          "type": "string"
        }
      ],
      "name": "deleteElection",
      "outputs": [],
      "stateMutability": "nonpayable",
      "type": "function"
    },
    {
      "inputs": [
        {
          "internalType": "uint256",
          "name": "",
          "type": "uint256"
        }
      ],
      "name": "electionCodes",
      "outputs": [
        {
          "internalType": "string",
          "name": "",
          "type": "string"
        }
      ],
      "stateMutability": "view",
      "type": "function"
    },
    {
      "inputs": [
        {
          "internalType": "string",
          "name": "",
          "type": "string"
        }
      ],
      "name": "elections",
      "outputs": [
        {
          "internalType": "string",
          "name": "eelectionCode",
          "type": "string"
        },
        {
          "internalType": "uint256",
          "name": "ecandidatesCount",
          "type": "uint256"
        },
        {
          "internalType": "string",
          "name": "description",
          "type": "string"
        },
        {
          "internalType": "string",
          "name": "title",
          "type": "string"
        },
        {
          "internalType": "uint256",
          "name": "endDate",
          "type": "uint256"
        },
        {
          "internalType": "address",
          "name": "creator",
          "type": "address"
        },
        {
          "internalType": "bool",
          "name": "electionCancelled",
          "type": "bool"
        },
        {
          "internalType": "uint256",
          "name": "creationCost",
          "type": "uint256"
        }
      ],
      "stateMutability": "view",
      "type": "function"
    },
    {
      "inputs": [],
      "name": "getAllElection",
      "outputs": [
        {
          "internalType": "string[]",
          "name": "",
          "type": "string[]"
        }
      ],
      "stateMutability": "view",
      "type": "function"
    },
    {
      "inputs": [
        {
          "internalType": "string",
          "name": "_electionCode",
          "type": "string"
        }
      ],
      "name": "getCreatorOfElection",
      "outputs": [
        {
          "internalType": "address",
          "name": "",
          "type": "address"
        }
      ],
      "stateMutability": "view",
      "type": "function"
    },
    {
      "inputs": [
        {
          "internalType": "string",
          "name": "_electionCode",
          "type": "string"
        }
      ],
      "name": "getElectionByCode",
      "outputs": [
        {
          "internalType": "string",
          "name": "title",
          "type": "string"
        },
        {
          "internalType": "string",
          "name": "description",
          "type": "string"
        },
        {
          "internalType": "uint256",
          "name": "endDate",
          "type": "uint256"
        },
        {
          "components": [
            {
              "internalType": "uint256",
              "name": "id",
              "type": "uint256"
            },
            {
              "internalType": "string",
              "name": "name",
              "type": "string"
            },
            {
              "internalType": "uint256",
              "name": "voteCount",
              "type": "uint256"
            }
          ],
          "internalType": "struct Election.Candidate[]",
          "name": "ecandidates",
          "type": "tuple[]"
        }
      ],
      "stateMutability": "view",
      "type": "function"
    },
    {
      "inputs": [
        {
          "internalType": "string",
          "name": "_electionCode",
          "type": "string"
        }
      ],
      "name": "getTotalVotes",
      "outputs": [
        {
          "internalType": "uint256",
          "name": "totalVotes",
          "type": "uint256"
        }
      ],
      "stateMutability": "view",
      "type": "function"
    },
    {
      "inputs": [
        {
          "internalType": "string",
          "name": "_electionCode",
          "type": "string"
        },
        {
          "internalType": "address",
          "name": "_voter",
          "type": "address"
        }
      ],
      "name": "hasVoted",
      "outputs": [
        {
          "internalType": "bool",
          "name": "",
          "type": "bool"
        }
      ],
      "stateMutability": "view",
      "type": "function"
    },
    {
      "inputs": [
        {
          "internalType": "string",
          "name": "electionCode",
          "type": "string"
        }
      ],
      "name": "isCancelled",
      "outputs": [
        {
          "internalType": "bool",
          "name": "",
          "type": "bool"
        }
      ],
      "stateMutability": "view",
      "type": "function"
    },
    {
      "inputs": [
        {
          "internalType": "string",
          "name": "_electionCode",
          "type": "string"
        },
        {
          "internalType": "uint256",
          "name": "_candidateId",
          "type": "uint256"
        }
      ],
      "name": "vota",
      "outputs": [],
      "stateMutability": "payable",
      "type": "function"
    }
  ],
  "bytecode": "0x6080604052348015600f57600080fd5b506128008061001f6000396000f3fe60806040526004361061009c5760003560e01c806398d16f751161006457806398d16f75146101925780639af06cd9146101cf578063a0e296981461020c578063d72ae1301461024c578063df7125ff14610268578063ee312193146102a55761009c565b8063143b7de6146100a15780632410734d146100de5780633ec22278146100fa5780634a3ccc96146101235780635597f08314610167575b600080fd5b3480156100ad57600080fd5b506100c860048036038101906100c39190611561565b6102e2565b6040516100d591906115eb565b60405180910390f35b6100f860048036038101906100f3919061163c565b61032c565b005b34801561010657600080fd5b50610121600480360381019061011c9190611561565b6105dd565b005b34801561012f57600080fd5b5061014a60048036038101906101459190611561565b610810565b60405161015e989796959493929190611741565b60405180910390f35b34801561017357600080fd5b5061017c610a33565b60405161018991906118e0565b60405180910390f35b34801561019e57600080fd5b506101b960048036038101906101b49190611561565b610b0c565b6040516101c69190611902565b60405180910390f35b3480156101db57600080fd5b506101f660048036038101906101f19190611949565b610b8b565b60405161020391906119a5565b60405180910390f35b34801561021857600080fd5b50610233600480360381019061022e9190611561565b610c00565b6040516102439493929190611ae1565b60405180910390f35b61026660048036038101906102619190611c21565b610f34565b005b34801561027457600080fd5b5061028f600480360381019061028a9190611cdc565b61118d565b60405161029c9190611d09565b60405180910390f35b3480156102b157600080fd5b506102cc60048036038101906102c79190611561565b611239565b6040516102d991906119a5565b60405180910390f35b600080826040516102f39190611d67565b908152602001604051809103902060070160009054906101000a900473ffffffffffffffffffffffffffffffffffffffff169050919050565b6000808360405161033d9190611d67565b908152602001604051809103902090508060030160003373ffffffffffffffffffffffffffffffffffffffff1673ffffffffffffffffffffffffffffffffffffffff16815260200190815260200160002060009054906101000a900460ff16156103dc576040517f08c379a00000000000000000000000000000000000000000000000000000000081526004016103d390611df0565b60405180910390fd5b6000821180156103f0575080600101548211155b61042f576040517f08c379a000000000000000000000000000000000000000000000000000000000815260040161042690611e5c565b60405180910390fd5b8060060154421115610476576040517f08c379a000000000000000000000000000000000000000000000000000000000815260040161046d90611ec8565b60405180910390fd5b6000151560008460405161048a9190611d67565b908152602001604051809103902060070160149054906101000a900460ff161515146104eb576040517f08c379a00000000000000000000000000000000000000000000000000000000081526004016104e290611f5a565b60405180910390fd5b66b1a2bc2ec50000341015610535576040517f08c379a000000000000000000000000000000000000000000000000000000000815260040161052c90611fec565b60405180910390fd5b60018160030160003373ffffffffffffffffffffffffffffffffffffffff1673ffffffffffffffffffffffffffffffffffffffff16815260200190815260200160002060006101000a81548160ff021916908315150217905550806002016001836105a0919061203b565b815481106105b1576105b061206f565b5b906000526020600020906003020160020160008154809291906105d39061209e565b9190505550505050565b600080826040516105ee9190611d67565b908152602001604051809103902090508060070160009054906101000a900473ffffffffffffffffffffffffffffffffffffffff1673ffffffffffffffffffffffffffffffffffffffff163373ffffffffffffffffffffffffffffffffffffffff1614610690576040517f08c379a000000000000000000000000000000000000000000000000000000000815260040161068790612158565b60405180910390fd5b806006015442116106d6576040517f08c379a00000000000000000000000000000000000000000000000000000000081526004016106cd906121ea565b60405180910390fd5b60005b816001015481101561075c5760008260020182815481106106fd576106fc61206f565b5b9060005260206000209060030201600201541461074f576040517f08c379a00000000000000000000000000000000000000000000000000000000081526004016107469061227c565b60405180910390fd5b80806001019150506106d9565b50600160008360405161076f9190611d67565b908152602001604051809103902060070160146101000a81548160ff0219169083151502179055506000816008015490508160070160009054906101000a900473ffffffffffffffffffffffffffffffffffffffff1673ffffffffffffffffffffffffffffffffffffffff166108fc829081150290604051600060405180830381858888f1935050505015801561080a573d6000803e3d6000fd5b50505050565b600081805160208101820180518482526020830160208501208183528095505050505050600091509050806000018054610849906122cb565b80601f0160208091040260200160405190810160405280929190818152602001828054610875906122cb565b80156108c25780601f10610897576101008083540402835291602001916108c2565b820191906000526020600020905b8154815290600101906020018083116108a557829003601f168201915b5050505050908060010154908060040180546108dd906122cb565b80601f0160208091040260200160405190810160405280929190818152602001828054610909906122cb565b80156109565780601f1061092b57610100808354040283529160200191610956565b820191906000526020600020905b81548152906001019060200180831161093957829003601f168201915b50505050509080600501805461096b906122cb565b80601f0160208091040260200160405190810160405280929190818152602001828054610997906122cb565b80156109e45780601f106109b9576101008083540402835291602001916109e4565b820191906000526020600020905b8154815290600101906020018083116109c757829003601f168201915b5050505050908060060154908060070160009054906101000a900473ffffffffffffffffffffffffffffffffffffffff16908060070160149054906101000a900460ff16908060080154905088565b60606001805480602002602001604051908101604052809291908181526020016000905b82821015610b03578382906000526020600020018054610a76906122cb565b80601f0160208091040260200160405190810160405280929190818152602001828054610aa2906122cb565b8015610aef5780601f10610ac457610100808354040283529160200191610aef565b820191906000526020600020905b815481529060010190602001808311610ad257829003601f168201915b505050505081526020019060010190610a57565b50505050905090565b600080600083604051610b1f9190611d67565b908152602001604051809103902090506000915060005b8160010154811015610b8457816002018181548110610b5857610b5761206f565b5b90600052602060002090600302016002015483610b7591906122fc565b92508080600101915050610b36565b5050919050565b60008083604051610b9c9190611d67565b908152602001604051809103902060030160008373ffffffffffffffffffffffffffffffffffffffff1673ffffffffffffffffffffffffffffffffffffffff16815260200190815260200160002060009054906101000a900460ff16905092915050565b6060806000606060001515600086604051610c1b9190611d67565b908152602001604051809103902060070160149054906101000a900460ff16151514610c7c576040517f08c379a0000000000000000000000000000000000000000000000000000000008152600401610c7390611f5a565b60405180910390fd5b60008086604051610c8d9190611d67565b90815260200160405180910390209050806005018054610cac906122cb565b80601f0160208091040260200160405190810160405280929190818152602001828054610cd8906122cb565b8015610d255780601f10610cfa57610100808354040283529160200191610d25565b820191906000526020600020905b815481529060010190602001808311610d0857829003601f168201915b50505050509450806004018054610d3b906122cb565b80601f0160208091040260200160405190810160405280929190818152602001828054610d67906122cb565b8015610db45780601f10610d8957610100808354040283529160200191610db4565b820191906000526020600020905b815481529060010190602001808311610d9757829003601f168201915b5050505050935080600601549250806001015467ffffffffffffffff811115610de057610ddf611436565b5b604051908082528060200260200182016040528015610e1957816020015b610e066113e6565b815260200190600190039081610dfe5790505b50915060005b8160010154811015610f2b57816002018181548110610e4157610e4061206f565b5b906000526020600020906003020160405180606001604052908160008201548152602001600182018054610e74906122cb565b80601f0160208091040260200160405190810160405280929190818152602001828054610ea0906122cb565b8015610eed5780601f10610ec257610100808354040283529160200191610eed565b820191906000526020600020905b815481529060010190602001808311610ed057829003601f168201915b50505050508152602001600282015481525050838281518110610f1357610f1261206f565b5b60200260200101819052508080600101915050610e1f565b50509193509193565b60605b610f3f611270565b905060008082604051610f529190611d67565b90815260200160405180910390206000018054610f6e906122cb565b905003610f375760008082604051610f869190611d67565b9081526020016040518091039020905081816000019081610fa791906124dc565b5084816005019081610fb991906124dc565b5083816004019081610fcb91906124dc565b50828160060181905550338160070160006101000a81548173ffffffffffffffffffffffffffffffffffffffff021916908373ffffffffffffffffffffffffffffffffffffffff16021790555060008160070160146101000a81548160ff02191690831515021790555067016345785d8a0000341015611080576040517f08c379a000000000000000000000000000000000000000000000000000000000815260040161107790612620565b60405180910390fd5b34816008018190555060005b865181101561114f578160010160008154809291906110aa9061209e565b9190505550816002016040518060600160405280846001015481526020018984815181106110db576110da61206f565b5b602002602001015181526020016000815250908060018154018082558091505060019003906000526020600020906003020160009091909190915060008201518160000155602082015181600101908161113591906124dc565b50604082015181600201555050808060010191505061108c565b5060018290806001815401808255809150506001900390600052602060002001600090919091909150908161118491906124dc565b50505050505050565b6001818154811061119d57600080fd5b9060005260206000200160009150905080546111b8906122cb565b80601f01602080910402602001604051908101604052809291908181526020018280546111e4906122cb565b80156112315780601f1061120657610100808354040283529160200191611231565b820191906000526020600020905b81548152906001019060200180831161121457829003601f168201915b505050505081565b6000808260405161124a9190611d67565b908152602001604051809103902060070160149054906101000a900460ff169050919050565b606060006040518060600160405280603e815260200161278d603e91399050600042336001805490506040516020016112ab939291906126a9565b604051602081830303815290604052805190602001206040516020016112d19190612711565b60405160208183030381529060405290506000600667ffffffffffffffff8111156112ff576112fe611436565b5b6040519080825280601f01601f1916602001820160405280156113315781602001600182028036833780820191505090505b50905060005b60068110156113dc578384518483815181106113565761135561206f565b5b602001015160f81c60f81b60f81c60ff16611371919061275b565b815181106113825761138161206f565b5b602001015160f81c60f81b8282815181106113a05761139f61206f565b5b60200101907effffffffffffffffffffffffffffffffffffffffffffffffffffffffffffff1916908160001a9053508080600101915050611337565b5080935050505090565b60405180606001604052806000815260200160608152602001600081525090565b6000604051905090565b600080fd5b600080fd5b600080fd5b600080fd5b6000601f19601f8301169050919050565b7f4e487b7100000000000000000000000000000000000000000000000000000000600052604160045260246000fd5b61146e82611425565b810181811067ffffffffffffffff8211171561148d5761148c611436565b5b80604052505050565b60006114a0611407565b90506114ac8282611465565b919050565b600067ffffffffffffffff8211156114cc576114cb611436565b5b6114d582611425565b9050602081019050919050565b82818337600083830152505050565b60006115046114ff846114b1565b611496565b9050828152602081018484840111156115205761151f611420565b5b61152b8482856114e2565b509392505050565b600082601f8301126115485761154761141b565b5b81356115588482602086016114f1565b91505092915050565b60006020828403121561157757611576611411565b5b600082013567ffffffffffffffff81111561159557611594611416565b5b6115a184828501611533565b91505092915050565b600073ffffffffffffffffffffffffffffffffffffffff82169050919050565b60006115d5826115aa565b9050919050565b6115e5816115ca565b82525050565b600060208201905061160060008301846115dc565b92915050565b6000819050919050565b61161981611606565b811461162457600080fd5b50565b60008135905061163681611610565b92915050565b6000806040838503121561165357611652611411565b5b600083013567ffffffffffffffff81111561167157611670611416565b5b61167d85828601611533565b925050602061168e85828601611627565b9150509250929050565b600081519050919050565b600082825260208201905092915050565b60005b838110156116d25780820151818401526020810190506116b7565b60008484015250505050565b60006116e982611698565b6116f381856116a3565b93506117038185602086016116b4565b61170c81611425565b840191505092915050565b61172081611606565b82525050565b60008115159050919050565b61173b81611726565b82525050565b600061010082019050818103600083015261175c818b6116de565b905061176b602083018a611717565b818103604083015261177d81896116de565b9050818103606083015261179181886116de565b90506117a06080830187611717565b6117ad60a08301866115dc565b6117ba60c0830185611732565b6117c760e0830184611717565b9998505050505050505050565b600081519050919050565b600082825260208201905092915050565b6000819050602082019050919050565b600082825260208201905092915050565b600061181c82611698565b6118268185611800565b93506118368185602086016116b4565b61183f81611425565b840191505092915050565b60006118568383611811565b905092915050565b6000602082019050919050565b6000611876826117d4565b61188081856117df565b935083602082028501611892856117f0565b8060005b858110156118ce57848403895281516118af858261184a565b94506118ba8361185e565b925060208a01995050600181019050611896565b50829750879550505050505092915050565b600060208201905081810360008301526118fa818461186b565b905092915050565b60006020820190506119176000830184611717565b92915050565b611926816115ca565b811461193157600080fd5b50565b6000813590506119438161191d565b92915050565b600080604083850312156119605761195f611411565b5b600083013567ffffffffffffffff81111561197e5761197d611416565b5b61198a85828601611533565b925050602061199b85828601611934565b9150509250929050565b60006020820190506119ba6000830184611732565b92915050565b600081519050919050565b600082825260208201905092915050565b6000819050602082019050919050565b6119f581611606565b82525050565b6000606083016000830151611a1360008601826119ec565b5060208301518482036020860152611a2b8282611811565b9150506040830151611a4060408601826119ec565b508091505092915050565b6000611a5783836119fb565b905092915050565b6000602082019050919050565b6000611a77826119c0565b611a8181856119cb565b935083602082028501611a93856119dc565b8060005b85811015611acf5784840389528151611ab08582611a4b565b9450611abb83611a5f565b925060208a01995050600181019050611a97565b50829750879550505050505092915050565b60006080820190508181036000830152611afb81876116de565b90508181036020830152611b0f81866116de565b9050611b1e6040830185611717565b8181036060830152611b308184611a6c565b905095945050505050565b600067ffffffffffffffff821115611b5657611b55611436565b5b602082029050602081019050919050565b600080fd5b6000611b7f611b7a84611b3b565b611496565b90508083825260208201905060208402830185811115611ba257611ba1611b67565b5b835b81811015611be957803567ffffffffffffffff811115611bc757611bc661141b565b5b808601611bd48982611533565b85526020850194505050602081019050611ba4565b5050509392505050565b600082601f830112611c0857611c0761141b565b5b8135611c18848260208601611b6c565b91505092915050565b60008060008060808587031215611c3b57611c3a611411565b5b600085013567ffffffffffffffff811115611c5957611c58611416565b5b611c6587828801611bf3565b945050602085013567ffffffffffffffff811115611c8657611c85611416565b5b611c9287828801611533565b935050604085013567ffffffffffffffff811115611cb357611cb2611416565b5b611cbf87828801611533565b9250506060611cd087828801611627565b91505092959194509250565b600060208284031215611cf257611cf1611411565b5b6000611d0084828501611627565b91505092915050565b60006020820190508181036000830152611d2381846116de565b905092915050565b600081905092915050565b6000611d4182611698565b611d4b8185611d2b565b9350611d5b8185602086016116b4565b80840191505092915050565b6000611d738284611d36565b915081905092915050565b7f486169206769612720766f7461746f207065722071756573746120656c657a6960008201527f6f6e652100000000000000000000000000000000000000000000000000000000602082015250565b6000611dda6024836116a3565b9150611de582611d7e565b604082019050919050565b60006020820190508181036000830152611e0981611dcd565b9050919050565b7f43616e64696461746f206e6f6e2076616c69646f210000000000000000000000600082015250565b6000611e466015836116a3565b9150611e5182611e10565b602082019050919050565b60006020820190508181036000830152611e7581611e39565b9050919050565b7f4c6120766f74617a696f6e652065272067696127207465726d696e6174612100600082015250565b6000611eb2601f836116a3565b9150611ebd82611e7c565b602082019050919050565b60006020820190508181036000830152611ee181611ea5565b9050919050565b7f4c6120766f74617a696f6e6520652720737461746120656c696d696e6174612060008201527f65206e6f6e20726973756c74612070697527207669736962696c652100000000602082015250565b6000611f44603c836116a3565b9150611f4f82611ee8565b604082019050919050565b60006020820190508181036000830152611f7381611f37565b9050919050565b7f4465766920696e766961726520616c6d656e6f20302e3035204554482070657260008201527f20766f7461726521000000000000000000000000000000000000000000000000602082015250565b6000611fd66028836116a3565b9150611fe182611f7a565b604082019050919050565b6000602082019050818103600083015261200581611fc9565b9050919050565b7f4e487b7100000000000000000000000000000000000000000000000000000000600052601160045260246000fd5b600061204682611606565b915061205183611606565b92508282039050818111156120695761206861200c565b5b92915050565b7f4e487b7100000000000000000000000000000000000000000000000000000000600052603260045260246000fd5b60006120a982611606565b91507fffffffffffffffffffffffffffffffffffffffffffffffffffffffffffffffff82036120db576120da61200c565b5b600182019050919050565b7f536f6c6f20696c2063726561746f72652070756f2720616e6e756c6c6172652060008201527f6c27656c657a696f6e652e000000000000000000000000000000000000000000602082015250565b6000612142602b836116a3565b915061214d826120e6565b604082019050919050565b6000602082019050818103600083015261217181612135565b9050919050565b7f4c27656c657a696f6e65206e6f6e20652720616e636f7261207363616475746160008201527f2e00000000000000000000000000000000000000000000000000000000000000602082015250565b60006121d46021836116a3565b91506121df82612178565b604082019050919050565b60006020820190508181036000830152612203816121c7565b9050919050565b7f4e6f6e2070756f6920616e6e756c6c617265206c27656c657a696f6e652c206360008201527f6920736f6e6f20676961272064656920766f74692e0000000000000000000000602082015250565b60006122666035836116a3565b91506122718261220a565b604082019050919050565b6000602082019050818103600083015261229581612259565b9050919050565b7f4e487b7100000000000000000000000000000000000000000000000000000000600052602260045260246000fd5b600060028204905060018216806122e357607f821691505b6020821081036122f6576122f561229c565b5b50919050565b600061230782611606565b915061231283611606565b925082820190508082111561232a5761232961200c565b5b92915050565b60008190508160005260206000209050919050565b60006020601f8301049050919050565b600082821b905092915050565b6000600883026123927fffffffffffffffffffffffffffffffffffffffffffffffffffffffffffffffff82612355565b61239c8683612355565b95508019841693508086168417925050509392505050565b6000819050919050565b60006123d96123d46123cf84611606565b6123b4565b611606565b9050919050565b6000819050919050565b6123f3836123be565b6124076123ff826123e0565b848454612362565b825550505050565b600090565b61241c61240f565b6124278184846123ea565b505050565b5b8181101561244b57612440600082612414565b60018101905061242d565b5050565b601f8211156124905761246181612330565b61246a84612345565b81016020851015612479578190505b61248d61248585612345565b83018261242c565b50505b505050565b600082821c905092915050565b60006124b360001984600802612495565b1980831691505092915050565b60006124cc83836124a2565b9150826002028217905092915050565b6124e582611698565b67ffffffffffffffff8111156124fe576124fd611436565b5b61250882546122cb565b61251382828561244f565b600060209050601f8311600181146125465760008415612534578287015190505b61253e85826124c0565b8655506125a6565b601f19841661255486612330565b60005b8281101561257c57848901518255600182019150602085019450602081019050612557565b868310156125995784890151612595601f8916826124a2565b8355505b6001600288020188555050505b505050505050565b7f4465766920696e766961726520616c6d656e6f20302e3120455448207065722060008201527f637265617265206c27656c657a696f6e65210000000000000000000000000000602082015250565b600061260a6032836116a3565b9150612615826125ae565b604082019050919050565b60006020820190508181036000830152612639816125fd565b9050919050565b6000819050919050565b61265b61265682611606565b612640565b82525050565b60008160601b9050919050565b600061267982612661565b9050919050565b600061268b8261266e565b9050919050565b6126a361269e826115ca565b612680565b82525050565b60006126b5828661264a565b6020820191506126c58285612692565b6014820191506126d5828461264a565b602082019150819050949350505050565b6000819050919050565b6000819050919050565b61270b612706826126e6565b6126f0565b82525050565b600061271d82846126fa565b60208201915081905092915050565b7f4e487b7100000000000000000000000000000000000000000000000000000000600052601260045260246000fd5b600061276682611606565b915061277183611606565b9250826127815761278061272c565b5b82820690509291505056fe4142434445464748494a4b4c4d4e4f505152535455565758595a6162636465666768696a6b6c6d6e6f707172737475767778797a30313233343536373839a2646970667358221220597d516df5947919d9bccdca7ac82f5eb5b33eef01a847da68e27c090b0dee6264736f6c634300081b0033",
  "linkReferences": {},
  "deployedLinkReferences": {}
}