{
  "_format": "hh-sol-artifact-1",
  "contractName": "Election",
  "sourceName": "contracts/Election.sol",
  "abi": [
    {
      "inputs": [
        {
          "internalType": "string[]",
          "name": "_candidateNames",
          "type": "string[]"
        },
        {
          "internalType": "string",
          "name": "title",
          "type": "string"
        },
        {
          "internalType": "string",
          "name": "description",
          "type": "string"
        },
        {
          "internalType": "uint256",
          "name": "endDate",
          "type": "uint256"
        }
      ],
      "name": "createElection",
      "outputs": [],
      "stateMutability": "payable",
      "type": "function"
    },
    {
      "inputs": [
        {
          "internalType": "string",
          "name": "_electionCode",
          "type": "string"
        }
      ],
      "name": "deleteElection",
      "outputs": [],
      "stateMutability": "nonpayable",
      "type": "function"
    },
    {
      "inputs": [
        {
          "internalType": "uint256",
          "name": "",
          "type": "uint256"
        }
      ],
      "name": "electionCodes",
      "outputs": [
        {
          "internalType": "string",
          "name": "",
          "type": "string"
        }
      ],
      "stateMutability": "view",
      "type": "function"
    },
    {
      "inputs": [
        {
          "internalType": "string",
          "name": "",
          "type": "string"
        }
      ],
      "name": "elections",
      "outputs": [
        {
          "internalType": "string",
          "name": "eelectionCode",
          "type": "string"
        },
        {
          "internalType": "uint256",
          "name": "ecandidatesCount",
          "type": "uint256"
        },
        {
          "internalType": "string",
          "name": "description",
          "type": "string"
        },
        {
          "internalType": "string",
          "name": "title",
          "type": "string"
        },
        {
          "internalType": "uint256",
          "name": "endDate",
          "type": "uint256"
        },
        {
          "internalType": "address",
          "name": "creator",
          "type": "address"
        },
        {
          "internalType": "bool",
          "name": "electionCancelled",
          "type": "bool"
        },
        {
          "internalType": "uint256",
          "name": "creationCost",
          "type": "uint256"
        }
      ],
      "stateMutability": "view",
      "type": "function"
    },
    {
      "inputs": [],
      "name": "getAllElection",
      "outputs": [
        {
          "internalType": "string[]",
          "name": "",
          "type": "string[]"
        }
      ],
      "stateMutability": "view",
      "type": "function"
    },
    {
      "inputs": [
        {
          "internalType": "string",
          "name": "_electionCode",
          "type": "string"
        }
      ],
      "name": "getCreatorOfElection",
      "outputs": [
        {
          "internalType": "address",
          "name": "",
          "type": "address"
        }
      ],
      "stateMutability": "view",
      "type": "function"
    },
    {
      "inputs": [
        {
          "internalType": "string",
          "name": "_electionCode",
          "type": "string"
        }
      ],
      "name": "getElectionByCode",
      "outputs": [
        {
          "internalType": "string",
          "name": "title",
          "type": "string"
        },
        {
          "internalType": "string",
          "name": "description",
          "type": "string"
        },
        {
          "internalType": "uint256",
          "name": "endDate",
          "type": "uint256"
        },
        {
          "components": [
            {
              "internalType": "uint256",
              "name": "id",
              "type": "uint256"
            },
            {
              "internalType": "string",
              "name": "name",
              "type": "string"
            },
            {
              "internalType": "uint256",
              "name": "voteCount",
              "type": "uint256"
            }
          ],
          "internalType": "struct Election.Candidate[]",
          "name": "ecandidates",
          "type": "tuple[]"
        }
      ],
      "stateMutability": "view",
      "type": "function"
    },
    {
      "inputs": [
        {
          "internalType": "address",
          "name": "_creator",
          "type": "address"
        }
      ],
      "name": "getElectionsByCreator",
      "outputs": [
        {
          "internalType": "string[]",
          "name": "titles",
          "type": "string[]"
        },
        {
          "internalType": "string[]",
          "name": "descriptions",
          "type": "string[]"
        },
        {
          "internalType": "uint256[]",
          "name": "endDates",
          "type": "uint256[]"
        },
        {
          "internalType": "string[]",
          "name": "codes",
          "type": "string[]"
        }
      ],
      "stateMutability": "view",
      "type": "function"
    },
    {
      "inputs": [
        {
          "internalType": "string",
          "name": "_electionCode",
          "type": "string"
        }
      ],
      "name": "getTotalVotes",
      "outputs": [
        {
          "internalType": "uint256",
          "name": "totalVotes",
          "type": "uint256"
        }
      ],
      "stateMutability": "view",
      "type": "function"
    },
    {
      "inputs": [
        {
          "internalType": "string",
          "name": "_electionCode",
          "type": "string"
        },
        {
          "internalType": "address",
          "name": "_voter",
          "type": "address"
        }
      ],
      "name": "hasVoted",
      "outputs": [
        {
          "internalType": "bool",
          "name": "",
          "type": "bool"
        }
      ],
      "stateMutability": "view",
      "type": "function"
    },
    {
      "inputs": [
        {
          "internalType": "string",
          "name": "electionCode",
          "type": "string"
        }
      ],
      "name": "isCancelled",
      "outputs": [
        {
          "internalType": "bool",
          "name": "",
          "type": "bool"
        }
      ],
      "stateMutability": "view",
      "type": "function"
    },
    {
      "inputs": [
        {
          "internalType": "string",
          "name": "_electionCode",
          "type": "string"
        },
        {
          "internalType": "uint256",
          "name": "_candidateId",
          "type": "uint256"
        }
      ],
      "name": "vota",
      "outputs": [],
      "stateMutability": "payable",
      "type": "function"
    }
  ],
  "bytecode": "0x6080604052348015600f57600080fd5b506131a78061001f6000396000f3fe6080604052600436106100a75760003560e01c80639af06cd9116100645780639af06cd9146101da578063a0e2969814610217578063bce5893514610257578063d72ae13014610297578063df7125ff146102b3578063ee312193146102f0576100a7565b8063143b7de6146100ac5780632410734d146100e95780633ec22278146101055780634a3ccc961461012e5780635597f0831461017257806398d16f751461019d575b600080fd5b3480156100b857600080fd5b506100d360048036038101906100ce9190611c9f565b61032d565b6040516100e09190611d29565b60405180910390f35b61010360048036038101906100fe9190611d7a565b610377565b005b34801561011157600080fd5b5061012c60048036038101906101279190611c9f565b6106ba565b005b34801561013a57600080fd5b5061015560048036038101906101509190611c9f565b6108ed565b604051610169989796959493929190611e7f565b60405180910390f35b34801561017e57600080fd5b50610187610b10565b604051610194919061201e565b60405180910390f35b3480156101a957600080fd5b506101c460048036038101906101bf9190611c9f565b610be9565b6040516101d19190612040565b60405180910390f35b3480156101e657600080fd5b5061020160048036038101906101fc9190612087565b610c68565b60405161020e91906120e3565b60405180910390f35b34801561022357600080fd5b5061023e60048036038101906102399190611c9f565b610cdd565b60405161024e949392919061221f565b60405180910390f35b34801561026357600080fd5b5061027e60048036038101906102799190612279565b611011565b60405161028e9493929190612355565b60405180910390f35b6102b160048036038101906102ac919061249c565b611672565b005b3480156102bf57600080fd5b506102da60048036038101906102d59190612557565b6118cb565b6040516102e79190612584565b60405180910390f35b3480156102fc57600080fd5b5061031760048036038101906103129190611c9f565b611977565b60405161032491906120e3565b60405180910390f35b6000808260405161033e91906125e2565b908152602001604051809103902060070160009054906101000a900473ffffffffffffffffffffffffffffffffffffffff169050919050565b6000808360405161038891906125e2565b908152602001604051809103902090508060070160009054906101000a900473ffffffffffffffffffffffffffffffffffffffff1673ffffffffffffffffffffffffffffffffffffffff163373ffffffffffffffffffffffffffffffffffffffff160361042a576040517f08c379a00000000000000000000000000000000000000000000000000000000081526004016104219061266b565b60405180910390fd5b8060030160003373ffffffffffffffffffffffffffffffffffffffff1673ffffffffffffffffffffffffffffffffffffffff16815260200190815260200160002060009054906101000a900460ff16156104b9576040517f08c379a00000000000000000000000000000000000000000000000000000000081526004016104b0906126fd565b60405180910390fd5b6000821180156104cd575080600101548211155b61050c576040517f08c379a000000000000000000000000000000000000000000000000000000000815260040161050390612769565b60405180910390fd5b8060060154421115610553576040517f08c379a000000000000000000000000000000000000000000000000000000000815260040161054a906127d5565b60405180910390fd5b6000151560008460405161056791906125e2565b908152602001604051809103902060070160149054906101000a900460ff161515146105c8576040517f08c379a00000000000000000000000000000000000000000000000000000000081526004016105bf90612867565b60405180910390fd5b66b1a2bc2ec50000341015610612576040517f08c379a0000000000000000000000000000000000000000000000000000000008152600401610609906128f9565b60405180910390fd5b60018160030160003373ffffffffffffffffffffffffffffffffffffffff1673ffffffffffffffffffffffffffffffffffffffff16815260200190815260200160002060006101000a81548160ff0219169083151502179055508060020160018361067d9190612948565b8154811061068e5761068d61297c565b5b906000526020600020906003020160020160008154809291906106b0906129ab565b9190505550505050565b600080826040516106cb91906125e2565b908152602001604051809103902090508060070160009054906101000a900473ffffffffffffffffffffffffffffffffffffffff1673ffffffffffffffffffffffffffffffffffffffff163373ffffffffffffffffffffffffffffffffffffffff161461076d576040517f08c379a000000000000000000000000000000000000000000000000000000000815260040161076490612a65565b60405180910390fd5b806006015442116107b3576040517f08c379a00000000000000000000000000000000000000000000000000000000081526004016107aa90612af7565b60405180910390fd5b60005b81600101548110156108395760008260020182815481106107da576107d961297c565b5b9060005260206000209060030201600201541461082c576040517f08c379a000000000000000000000000000000000000000000000000000000000815260040161082390612b89565b60405180910390fd5b80806001019150506107b6565b50600160008360405161084c91906125e2565b908152602001604051809103902060070160146101000a81548160ff0219169083151502179055506000816008015490508160070160009054906101000a900473ffffffffffffffffffffffffffffffffffffffff1673ffffffffffffffffffffffffffffffffffffffff166108fc829081150290604051600060405180830381858888f193505050501580156108e7573d6000803e3d6000fd5b50505050565b60008180516020810182018051848252602083016020850120818352809550505050505060009150905080600001805461092690612bd8565b80601f016020809104026020016040519081016040528092919081815260200182805461095290612bd8565b801561099f5780601f106109745761010080835404028352916020019161099f565b820191906000526020600020905b81548152906001019060200180831161098257829003601f168201915b5050505050908060010154908060040180546109ba90612bd8565b80601f01602080910402602001604051908101604052809291908181526020018280546109e690612bd8565b8015610a335780601f10610a0857610100808354040283529160200191610a33565b820191906000526020600020905b815481529060010190602001808311610a1657829003601f168201915b505050505090806005018054610a4890612bd8565b80601f0160208091040260200160405190810160405280929190818152602001828054610a7490612bd8565b8015610ac15780601f10610a9657610100808354040283529160200191610ac1565b820191906000526020600020905b815481529060010190602001808311610aa457829003601f168201915b5050505050908060060154908060070160009054906101000a900473ffffffffffffffffffffffffffffffffffffffff16908060070160149054906101000a900460ff16908060080154905088565b60606001805480602002602001604051908101604052809291908181526020016000905b82821015610be0578382906000526020600020018054610b5390612bd8565b80601f0160208091040260200160405190810160405280929190818152602001828054610b7f90612bd8565b8015610bcc5780601f10610ba157610100808354040283529160200191610bcc565b820191906000526020600020905b815481529060010190602001808311610baf57829003601f168201915b505050505081526020019060010190610b34565b50505050905090565b600080600083604051610bfc91906125e2565b908152602001604051809103902090506000915060005b8160010154811015610c6157816002018181548110610c3557610c3461297c565b5b90600052602060002090600302016002015483610c529190612c09565b92508080600101915050610c13565b5050919050565b60008083604051610c7991906125e2565b908152602001604051809103902060030160008373ffffffffffffffffffffffffffffffffffffffff1673ffffffffffffffffffffffffffffffffffffffff16815260200190815260200160002060009054906101000a900460ff16905092915050565b6060806000606060001515600086604051610cf891906125e2565b908152602001604051809103902060070160149054906101000a900460ff16151514610d59576040517f08c379a0000000000000000000000000000000000000000000000000000000008152600401610d5090612867565b60405180910390fd5b60008086604051610d6a91906125e2565b90815260200160405180910390209050806005018054610d8990612bd8565b80601f0160208091040260200160405190810160405280929190818152602001828054610db590612bd8565b8015610e025780601f10610dd757610100808354040283529160200191610e02565b820191906000526020600020905b815481529060010190602001808311610de557829003601f168201915b50505050509450806004018054610e1890612bd8565b80601f0160208091040260200160405190810160405280929190818152602001828054610e4490612bd8565b8015610e915780601f10610e6657610100808354040283529160200191610e91565b820191906000526020600020905b815481529060010190602001808311610e7457829003601f168201915b5050505050935080600601549250806001015467ffffffffffffffff811115610ebd57610ebc611b74565b5b604051908082528060200260200182016040528015610ef657816020015b610ee3611b24565b815260200190600190039081610edb5790505b50915060005b816001015481101561100857816002018181548110610f1e57610f1d61297c565b5b906000526020600020906003020160405180606001604052908160008201548152602001600182018054610f5190612bd8565b80601f0160208091040260200160405190810160405280929190818152602001828054610f7d90612bd8565b8015610fca5780601f10610f9f57610100808354040283529160200191610fca565b820191906000526020600020905b815481529060010190602001808311610fad57829003601f168201915b50505050508152602001600282015481525050838281518110610ff057610fef61297c565b5b60200260200101819052508080600101915050610efc565b50509193509193565b6060806060806000805b60018054905081101561112b578673ffffffffffffffffffffffffffffffffffffffff166000600183815481106110555761105461297c565b5b9060005260206000200160405161106c9190612cd5565b908152602001604051809103902060070160009054906101000a900473ffffffffffffffffffffffffffffffffffffffff1673ffffffffffffffffffffffffffffffffffffffff1614801561110a57506000600182815481106110d2576110d161297c565b5b906000526020600020016040516110e99190612cd5565b908152602001604051809103902060070160149054906101000a900460ff16155b1561111e57818061111a906129ab565b9250505b808060010191505061101b565b508067ffffffffffffffff81111561114657611145611b74565b5b60405190808252806020026020018201604052801561117957816020015b60608152602001906001900390816111645790505b5094508067ffffffffffffffff81111561119657611195611b74565b5b6040519080825280602002602001820160405280156111c957816020015b60608152602001906001900390816111b45790505b5093508067ffffffffffffffff8111156111e6576111e5611b74565b5b6040519080825280602002602001820160405280156112145781602001602082028036833780820191505090505b5092508067ffffffffffffffff81111561123157611230611b74565b5b60405190808252806020026020018201604052801561126457816020015b606081526020019060019003908161124f5790505b5091506000805b600180549050811015611668578773ffffffffffffffffffffffffffffffffffffffff166000600183815481106112a5576112a461297c565b5b906000526020600020016040516112bc9190612cd5565b908152602001604051809103902060070160009054906101000a900473ffffffffffffffffffffffffffffffffffffffff1673ffffffffffffffffffffffffffffffffffffffff1614801561135a57506000600182815481106113225761132161297c565b5b906000526020600020016040516113399190612cd5565b908152602001604051809103902060070160149054906101000a900460ff16155b1561165b576000600182815481106113755761137461297c565b5b9060005260206000200160405161138c9190612cd5565b908152602001604051809103902060050180546113a890612bd8565b80601f01602080910402602001604051908101604052809291908181526020018280546113d490612bd8565b80156114215780601f106113f657610100808354040283529160200191611421565b820191906000526020600020905b81548152906001019060200180831161140457829003601f168201915b50505050508783815181106114395761143861297c565b5b602002602001018190525060006001828154811061145a5761145961297c565b5b906000526020600020016040516114719190612cd5565b9081526020016040518091039020600401805461148d90612bd8565b80601f01602080910402602001604051908101604052809291908181526020018280546114b990612bd8565b80156115065780601f106114db57610100808354040283529160200191611506565b820191906000526020600020905b8154815290600101906020018083116114e957829003601f168201915b505050505086838151811061151e5761151d61297c565b5b602002602001018190525060006001828154811061153f5761153e61297c565b5b906000526020600020016040516115569190612cd5565b90815260200160405180910390206006015485838151811061157b5761157a61297c565b5b6020026020010181815250506001818154811061159b5761159a61297c565b5b9060005260206000200180546115b090612bd8565b80601f01602080910402602001604051908101604052809291908181526020018280546115dc90612bd8565b80156116295780601f106115fe57610100808354040283529160200191611629565b820191906000526020600020905b81548152906001019060200180831161160c57829003601f168201915b50505050508483815181106116415761164061297c565b5b60200260200101819052508180611657906129ab565b9250505b808060010191505061126b565b5050509193509193565b60605b61167d6119ae565b90506000808260405161169091906125e2565b908152602001604051809103902060000180546116ac90612bd8565b90500361167557600080826040516116c491906125e2565b90815260200160405180910390209050818160000190816116e59190612e83565b50848160050190816116f79190612e83565b50838160040190816117099190612e83565b50828160060181905550338160070160006101000a81548173ffffffffffffffffffffffffffffffffffffffff021916908373ffffffffffffffffffffffffffffffffffffffff16021790555060008160070160146101000a81548160ff02191690831515021790555067016345785d8a00003410156117be576040517f08c379a00000000000000000000000000000000000000000000000000000000081526004016117b590612fc7565b60405180910390fd5b34816008018190555060005b865181101561188d578160010160008154809291906117e8906129ab565b9190505550816002016040518060600160405280846001015481526020018984815181106118195761181861297c565b5b60200260200101518152602001600081525090806001815401808255809150506001900390600052602060002090600302016000909190919091506000820151816000015560208201518160010190816118739190612e83565b5060408201518160020155505080806001019150506117ca565b506001829080600181540180825580915050600190039060005260206000200160009091909190915090816118c29190612e83565b50505050505050565b600181815481106118db57600080fd5b9060005260206000200160009150905080546118f690612bd8565b80601f016020809104026020016040519081016040528092919081815260200182805461192290612bd8565b801561196f5780601f106119445761010080835404028352916020019161196f565b820191906000526020600020905b81548152906001019060200180831161195257829003601f168201915b505050505081565b6000808260405161198891906125e2565b908152602001604051809103902060070160149054906101000a900460ff169050919050565b606060006040518060600160405280603e8152602001613134603e91399050600042336001805490506040516020016119e993929190613050565b60405160208183030381529060405280519060200120604051602001611a0f91906130b8565b60405160208183030381529060405290506000600667ffffffffffffffff811115611a3d57611a3c611b74565b5b6040519080825280601f01601f191660200182016040528015611a6f5781602001600182028036833780820191505090505b50905060005b6006811015611b1a57838451848381518110611a9457611a9361297c565b5b602001015160f81c60f81b60f81c60ff16611aaf9190613102565b81518110611ac057611abf61297c565b5b602001015160f81c60f81b828281518110611ade57611add61297c565b5b60200101907effffffffffffffffffffffffffffffffffffffffffffffffffffffffffffff1916908160001a9053508080600101915050611a75565b5080935050505090565b60405180606001604052806000815260200160608152602001600081525090565b6000604051905090565b600080fd5b600080fd5b600080fd5b600080fd5b6000601f19601f8301169050919050565b7f4e487b7100000000000000000000000000000000000000000000000000000000600052604160045260246000fd5b611bac82611b63565b810181811067ffffffffffffffff82111715611bcb57611bca611b74565b5b80604052505050565b6000611bde611b45565b9050611bea8282611ba3565b919050565b600067ffffffffffffffff821115611c0a57611c09611b74565b5b611c1382611b63565b9050602081019050919050565b82818337600083830152505050565b6000611c42611c3d84611bef565b611bd4565b905082815260208101848484011115611c5e57611c5d611b5e565b5b611c69848285611c20565b509392505050565b600082601f830112611c8657611c85611b59565b5b8135611c96848260208601611c2f565b91505092915050565b600060208284031215611cb557611cb4611b4f565b5b600082013567ffffffffffffffff811115611cd357611cd2611b54565b5b611cdf84828501611c71565b91505092915050565b600073ffffffffffffffffffffffffffffffffffffffff82169050919050565b6000611d1382611ce8565b9050919050565b611d2381611d08565b82525050565b6000602082019050611d3e6000830184611d1a565b92915050565b6000819050919050565b611d5781611d44565b8114611d6257600080fd5b50565b600081359050611d7481611d4e565b92915050565b60008060408385031215611d9157611d90611b4f565b5b600083013567ffffffffffffffff811115611daf57611dae611b54565b5b611dbb85828601611c71565b9250506020611dcc85828601611d65565b9150509250929050565b600081519050919050565b600082825260208201905092915050565b60005b83811015611e10578082015181840152602081019050611df5565b60008484015250505050565b6000611e2782611dd6565b611e318185611de1565b9350611e41818560208601611df2565b611e4a81611b63565b840191505092915050565b611e5e81611d44565b82525050565b60008115159050919050565b611e7981611e64565b82525050565b6000610100820190508181036000830152611e9a818b611e1c565b9050611ea9602083018a611e55565b8181036040830152611ebb8189611e1c565b90508181036060830152611ecf8188611e1c565b9050611ede6080830187611e55565b611eeb60a0830186611d1a565b611ef860c0830185611e70565b611f0560e0830184611e55565b9998505050505050505050565b600081519050919050565b600082825260208201905092915050565b6000819050602082019050919050565b600082825260208201905092915050565b6000611f5a82611dd6565b611f648185611f3e565b9350611f74818560208601611df2565b611f7d81611b63565b840191505092915050565b6000611f948383611f4f565b905092915050565b6000602082019050919050565b6000611fb482611f12565b611fbe8185611f1d565b935083602082028501611fd085611f2e565b8060005b8581101561200c5784840389528151611fed8582611f88565b9450611ff883611f9c565b925060208a01995050600181019050611fd4565b50829750879550505050505092915050565b600060208201905081810360008301526120388184611fa9565b905092915050565b60006020820190506120556000830184611e55565b92915050565b61206481611d08565b811461206f57600080fd5b50565b6000813590506120818161205b565b92915050565b6000806040838503121561209e5761209d611b4f565b5b600083013567ffffffffffffffff8111156120bc576120bb611b54565b5b6120c885828601611c71565b92505060206120d985828601612072565b9150509250929050565b60006020820190506120f86000830184611e70565b92915050565b600081519050919050565b600082825260208201905092915050565b6000819050602082019050919050565b61213381611d44565b82525050565b6000606083016000830151612151600086018261212a565b50602083015184820360208601526121698282611f4f565b915050604083015161217e604086018261212a565b508091505092915050565b60006121958383612139565b905092915050565b6000602082019050919050565b60006121b5826120fe565b6121bf8185612109565b9350836020820285016121d18561211a565b8060005b8581101561220d57848403895281516121ee8582612189565b94506121f98361219d565b925060208a019950506001810190506121d5565b50829750879550505050505092915050565b600060808201905081810360008301526122398187611e1c565b9050818103602083015261224d8186611e1c565b905061225c6040830185611e55565b818103606083015261226e81846121aa565b905095945050505050565b60006020828403121561228f5761228e611b4f565b5b600061229d84828501612072565b91505092915050565b600081519050919050565b600082825260208201905092915050565b6000819050602082019050919050565b60006122de838361212a565b60208301905092915050565b6000602082019050919050565b6000612302826122a6565b61230c81856122b1565b9350612317836122c2565b8060005b8381101561234857815161232f88826122d2565b975061233a836122ea565b92505060018101905061231b565b5085935050505092915050565b6000608082019050818103600083015261236f8187611fa9565b905081810360208301526123838186611fa9565b9050818103604083015261239781856122f7565b905081810360608301526123ab8184611fa9565b905095945050505050565b600067ffffffffffffffff8211156123d1576123d0611b74565b5b602082029050602081019050919050565b600080fd5b60006123fa6123f5846123b6565b611bd4565b9050808382526020820190506020840283018581111561241d5761241c6123e2565b5b835b8181101561246457803567ffffffffffffffff81111561244257612441611b59565b5b80860161244f8982611c71565b8552602085019450505060208101905061241f565b5050509392505050565b600082601f83011261248357612482611b59565b5b81356124938482602086016123e7565b91505092915050565b600080600080608085870312156124b6576124b5611b4f565b5b600085013567ffffffffffffffff8111156124d4576124d3611b54565b5b6124e08782880161246e565b945050602085013567ffffffffffffffff81111561250157612500611b54565b5b61250d87828801611c71565b935050604085013567ffffffffffffffff81111561252e5761252d611b54565b5b61253a87828801611c71565b925050606061254b87828801611d65565b91505092959194509250565b60006020828403121561256d5761256c611b4f565b5b600061257b84828501611d65565b91505092915050565b6000602082019050818103600083015261259e8184611e1c565b905092915050565b600081905092915050565b60006125bc82611dd6565b6125c681856125a6565b93506125d6818560208601611df2565b80840191505092915050565b60006125ee82846125b1565b915081905092915050565b7f496c2063726561746f72652064656c6c27656c657a696f6e65206e6f6e20707560008201527f6f20766f74617265210000000000000000000000000000000000000000000000602082015250565b6000612655602983611de1565b9150612660826125f9565b604082019050919050565b6000602082019050818103600083015261268481612648565b9050919050565b7f486169206769612720766f7461746f207065722071756573746120656c657a6960008201527f6f6e652100000000000000000000000000000000000000000000000000000000602082015250565b60006126e7602483611de1565b91506126f28261268b565b604082019050919050565b60006020820190508181036000830152612716816126da565b9050919050565b7f43616e64696461746f206e6f6e2076616c69646f210000000000000000000000600082015250565b6000612753601583611de1565b915061275e8261271d565b602082019050919050565b6000602082019050818103600083015261278281612746565b9050919050565b7f4c6120766f74617a696f6e652065272067696127207465726d696e6174612100600082015250565b60006127bf601f83611de1565b91506127ca82612789565b602082019050919050565b600060208201905081810360008301526127ee816127b2565b9050919050565b7f4c6120766f74617a696f6e6520652720737461746120656c696d696e6174612060008201527f65206e6f6e20726973756c74612070697527207669736962696c652100000000602082015250565b6000612851603c83611de1565b915061285c826127f5565b604082019050919050565b6000602082019050818103600083015261288081612844565b9050919050565b7f4465766920696e766961726520616c6d656e6f20302e3035204554482070657260008201527f20766f7461726521000000000000000000000000000000000000000000000000602082015250565b60006128e3602883611de1565b91506128ee82612887565b604082019050919050565b60006020820190508181036000830152612912816128d6565b9050919050565b7f4e487b7100000000000000000000000000000000000000000000000000000000600052601160045260246000fd5b600061295382611d44565b915061295e83611d44565b925082820390508181111561297657612975612919565b5b92915050565b7f4e487b7100000000000000000000000000000000000000000000000000000000600052603260045260246000fd5b60006129b682611d44565b91507fffffffffffffffffffffffffffffffffffffffffffffffffffffffffffffffff82036129e8576129e7612919565b5b600182019050919050565b7f536f6c6f20696c2063726561746f72652070756f2720616e6e756c6c6172652060008201527f6c27656c657a696f6e652e000000000000000000000000000000000000000000602082015250565b6000612a4f602b83611de1565b9150612a5a826129f3565b604082019050919050565b60006020820190508181036000830152612a7e81612a42565b9050919050565b7f4c27656c657a696f6e65206e6f6e20652720616e636f7261207363616475746160008201527f2e00000000000000000000000000000000000000000000000000000000000000602082015250565b6000612ae1602183611de1565b9150612aec82612a85565b604082019050919050565b60006020820190508181036000830152612b1081612ad4565b9050919050565b7f4e6f6e2070756f6920616e6e756c6c617265206c27656c657a696f6e652c206360008201527f6920736f6e6f20676961272064656920766f74692e0000000000000000000000602082015250565b6000612b73603583611de1565b9150612b7e82612b17565b604082019050919050565b60006020820190508181036000830152612ba281612b66565b9050919050565b7f4e487b7100000000000000000000000000000000000000000000000000000000600052602260045260246000fd5b60006002820490506001821680612bf057607f821691505b602082108103612c0357612c02612ba9565b5b50919050565b6000612c1482611d44565b9150612c1f83611d44565b9250828201905080821115612c3757612c36612919565b5b92915050565b60008190508160005260206000209050919050565b60008154612c5f81612bd8565b612c6981866125a6565b94506001821660008114612c845760018114612c9957612ccc565b60ff1983168652811515820286019350612ccc565b612ca285612c3d565b60005b83811015612cc457815481890152600182019150602081019050612ca5565b838801955050505b50505092915050565b6000612ce18284612c52565b915081905092915050565b60006020601f8301049050919050565b600082821b905092915050565b600060088302612d397fffffffffffffffffffffffffffffffffffffffffffffffffffffffffffffffff82612cfc565b612d438683612cfc565b95508019841693508086168417925050509392505050565b6000819050919050565b6000612d80612d7b612d7684611d44565b612d5b565b611d44565b9050919050565b6000819050919050565b612d9a83612d65565b612dae612da682612d87565b848454612d09565b825550505050565b600090565b612dc3612db6565b612dce818484612d91565b505050565b5b81811015612df257612de7600082612dbb565b600181019050612dd4565b5050565b601f821115612e3757612e0881612c3d565b612e1184612cec565b81016020851015612e20578190505b612e34612e2c85612cec565b830182612dd3565b50505b505050565b600082821c905092915050565b6000612e5a60001984600802612e3c565b1980831691505092915050565b6000612e738383612e49565b9150826002028217905092915050565b612e8c82611dd6565b67ffffffffffffffff811115612ea557612ea4611b74565b5b612eaf8254612bd8565b612eba828285612df6565b600060209050601f831160018114612eed5760008415612edb578287015190505b612ee58582612e67565b865550612f4d565b601f198416612efb86612c3d565b60005b82811015612f2357848901518255600182019150602085019450602081019050612efe565b86831015612f405784890151612f3c601f891682612e49565b8355505b6001600288020188555050505b505050505050565b7f4465766920696e766961726520616c6d656e6f20302e3120455448207065722060008201527f637265617265206c27656c657a696f6e65210000000000000000000000000000602082015250565b6000612fb1603283611de1565b9150612fbc82612f55565b604082019050919050565b60006020820190508181036000830152612fe081612fa4565b9050919050565b6000819050919050565b613002612ffd82611d44565b612fe7565b82525050565b60008160601b9050919050565b600061302082613008565b9050919050565b600061303282613015565b9050919050565b61304a61304582611d08565b613027565b82525050565b600061305c8286612ff1565b60208201915061306c8285613039565b60148201915061307c8284612ff1565b602082019150819050949350505050565b6000819050919050565b6000819050919050565b6130b26130ad8261308d565b613097565b82525050565b60006130c482846130a1565b60208201915081905092915050565b7f4e487b7100000000000000000000000000000000000000000000000000000000600052601260045260246000fd5b600061310d82611d44565b915061311883611d44565b925082613128576131276130d3565b5b82820690509291505056fe4142434445464748494a4b4c4d4e4f505152535455565758595a6162636465666768696a6b6c6d6e6f707172737475767778797a30313233343536373839a264697066735822122040bc51bd36861ba0fed51e98525a86e7353184bdc288995a2d4fb2c49a1f065064736f6c634300081b0033",
  "linkReferences": {},
  "deployedLinkReferences": {}
}