{
  "_format": "hh-sol-artifact-1",
  "contractName": "Election",
  "sourceName": "contracts/Election.sol",
  "abi": [
    {
      "inputs": [],
      "stateMutability": "nonpayable",
      "type": "constructor"
    },
    {
      "inputs": [
        {
          "internalType": "uint256",
          "name": "",
          "type": "uint256"
        }
      ],
      "name": "candidates",
      "outputs": [
        {
          "internalType": "uint256",
          "name": "id",
          "type": "uint256"
        },
        {
          "internalType": "string",
          "name": "name",
          "type": "string"
        },
        {
          "internalType": "uint256",
          "name": "voteCount",
          "type": "uint256"
        }
      ],
      "stateMutability": "view",
      "type": "function"
    },
    {
      "inputs": [],
      "name": "candidatesCount",
      "outputs": [
        {
          "internalType": "uint256",
          "name": "",
          "type": "uint256"
        }
      ],
      "stateMutability": "view",
      "type": "function"
    },
    {
      "inputs": [
        {
          "internalType": "string",
          "name": "_electionCode",
          "type": "string"
        },
        {
          "internalType": "string[]",
          "name": "_candidateNames",
          "type": "string[]"
        },
        {
          "internalType": "string",
          "name": "title",
          "type": "string"
        },
        {
          "internalType": "string",
          "name": "description",
          "type": "string"
        },
        {
          "internalType": "uint256",
          "name": "endDate",
          "type": "uint256"
        }
      ],
      "name": "createElection",
      "outputs": [],
      "stateMutability": "nonpayable",
      "type": "function"
    },
    {
      "inputs": [
        {
          "internalType": "uint256",
          "name": "",
          "type": "uint256"
        }
      ],
      "name": "electionCodes",
      "outputs": [
        {
          "internalType": "string",
          "name": "",
          "type": "string"
        }
      ],
      "stateMutability": "view",
      "type": "function"
    },
    {
      "inputs": [
        {
          "internalType": "string",
          "name": "",
          "type": "string"
        }
      ],
      "name": "elections",
      "outputs": [
        {
          "internalType": "string",
          "name": "eelectionCode",
          "type": "string"
        },
        {
          "internalType": "uint256",
          "name": "ecandidatesCount",
          "type": "uint256"
        },
        {
          "internalType": "string",
          "name": "description",
          "type": "string"
        },
        {
          "internalType": "string",
          "name": "title",
          "type": "string"
        },
        {
          "internalType": "uint256",
          "name": "endDate",
          "type": "uint256"
        }
      ],
      "stateMutability": "view",
      "type": "function"
    },
    {
      "inputs": [],
      "name": "getAllElection",
      "outputs": [
        {
          "internalType": "string[]",
          "name": "",
          "type": "string[]"
        }
      ],
      "stateMutability": "view",
      "type": "function"
    },
    {
      "inputs": [
        {
          "internalType": "string",
          "name": "_electionCode",
          "type": "string"
        }
      ],
      "name": "getElectionByCode",
      "outputs": [
        {
          "internalType": "string",
          "name": "title",
          "type": "string"
        },
        {
          "internalType": "string",
          "name": "description",
          "type": "string"
        },
        {
          "internalType": "uint256",
          "name": "endDate",
          "type": "uint256"
        },
        {
          "components": [
            {
              "internalType": "uint256",
              "name": "id",
              "type": "uint256"
            },
            {
              "internalType": "string",
              "name": "name",
              "type": "string"
            },
            {
              "internalType": "uint256",
              "name": "voteCount",
              "type": "uint256"
            }
          ],
          "internalType": "struct Election.Candidate[]",
          "name": "ecandidates",
          "type": "tuple[]"
        }
      ],
      "stateMutability": "view",
      "type": "function"
    },
    {
      "inputs": [],
      "name": "getElectionCount",
      "outputs": [
        {
          "internalType": "uint256",
          "name": "",
          "type": "uint256"
        }
      ],
      "stateMutability": "view",
      "type": "function"
    },
    {
      "inputs": [
        {
          "internalType": "uint256",
          "name": "_candidateId",
          "type": "uint256"
        }
      ],
      "name": "vote",
      "outputs": [],
      "stateMutability": "nonpayable",
      "type": "function"
    },
    {
      "inputs": [
        {
          "internalType": "address",
          "name": "",
          "type": "address"
        }
      ],
      "name": "voters",
      "outputs": [
        {
          "internalType": "bool",
          "name": "",
          "type": "bool"
        }
      ],
      "stateMutability": "view",
      "type": "function"
    }
  ],
  "bytecode": "0x608060405234801561001057600080fd5b506100556040518060400160405280600b81526020017f43616e646964617465203100000000000000000000000000000000000000000081525061009e60201b60201c565b6100996040518060400160405280600b81526020017f43616e646964617465203200000000000000000000000000000000000000000081525061009e60201b60201c565b6104b2565b600460008154809291906100b190610152565b919050555060405180606001604052806004548152602001828152602001600081525060036000600454815260200190815260200160002060008201518160000155602082015181600101908161010891906103e0565b506040820151816002015590505050565b7f4e487b7100000000000000000000000000000000000000000000000000000000600052601160045260246000fd5b6000819050919050565b600061015d82610148565b91507fffffffffffffffffffffffffffffffffffffffffffffffffffffffffffffffff820361018f5761018e610119565b5b600182019050919050565b600081519050919050565b7f4e487b7100000000000000000000000000000000000000000000000000000000600052604160045260246000fd5b7f4e487b7100000000000000000000000000000000000000000000000000000000600052602260045260246000fd5b6000600282049050600182168061021b57607f821691505b60208210810361022e5761022d6101d4565b5b50919050565b60008190508160005260206000209050919050565b60006020601f8301049050919050565b600082821b905092915050565b6000600883026102967fffffffffffffffffffffffffffffffffffffffffffffffffffffffffffffffff82610259565b6102a08683610259565b95508019841693508086168417925050509392505050565b6000819050919050565b60006102dd6102d86102d384610148565b6102b8565b610148565b9050919050565b6000819050919050565b6102f7836102c2565b61030b610303826102e4565b848454610266565b825550505050565b600090565b610320610313565b61032b8184846102ee565b505050565b5b8181101561034f57610344600082610318565b600181019050610331565b5050565b601f8211156103945761036581610234565b61036e84610249565b8101602085101561037d578190505b61039161038985610249565b830182610330565b50505b505050565b600082821c905092915050565b60006103b760001984600802610399565b1980831691505092915050565b60006103d083836103a6565b9150826002028217905092915050565b6103e98261019a565b67ffffffffffffffff811115610402576104016101a5565b5b61040c8254610203565b610417828285610353565b600060209050601f83116001811461044a5760008415610438578287015190505b61044285826103c4565b8655506104aa565b601f19841661045886610234565b60005b828110156104805784890151825560018201915060208501945060208101905061045b565b8683101561049d5784890151610499601f8916826103a6565b8355505b6001600288020188555050505b505050505050565b611878806104c16000396000f3fe608060405234801561001057600080fd5b506004361061009e5760003560e01c80635597f083116100665780635597f083146101615780637f4249151461017f578063a0e296981461019b578063a3ec138d146101ce578063df7125ff146101fe5761009e565b80630121b93f146100a3578063213785a0146100bf5780632d35a8a2146100dd5780633477ee2e146100fb5780634a3ccc961461012d575b600080fd5b6100bd60048036038101906100b89190610c03565b61022e565b005b6100c7610327565b6040516100d49190610c3f565b60405180910390f35b6100e5610334565b6040516100f29190610c3f565b60405180910390f35b61011560048036038101906101109190610c03565b61033a565b60405161012493929190610cea565b60405180910390f35b61014760048036038101906101429190610e5d565b6103ec565b604051610158959493929190610ea6565b60405180910390f35b6101696105d0565b604051610176919061101a565b60405180910390f35b61019960048036038101906101949190611122565b6106a9565b005b6101b560048036038101906101b09190610e5d565b61080d565b6040516101c5949392919061132e565b60405180910390f35b6101e860048036038101906101e391906113e6565b610acc565b6040516101f5919061142e565b60405180910390f35b61021860048036038101906102139190610c03565b610aec565b6040516102259190611449565b60405180910390f35b600260003373ffffffffffffffffffffffffffffffffffffffff1673ffffffffffffffffffffffffffffffffffffffff16815260200190815260200160002060009054906101000a900460ff161561028557600080fd5b60008111801561029757506004548111155b6102a057600080fd5b6001600260003373ffffffffffffffffffffffffffffffffffffffff1673ffffffffffffffffffffffffffffffffffffffff16815260200190815260200160002060006101000a81548160ff02191690831515021790555060036000828152602001908152602001600020600201600081548092919061031f9061149a565b919050555050565b6000600180549050905090565b60045481565b600360205280600052604060002060009150905080600001549080600101805461036390611511565b80601f016020809104026020016040519081016040528092919081815260200182805461038f90611511565b80156103dc5780601f106103b1576101008083540402835291602001916103dc565b820191906000526020600020905b8154815290600101906020018083116103bf57829003601f168201915b5050505050908060020154905083565b60008180516020810182018051848252602083016020850120818352809550505050505060009150905080600001805461042590611511565b80601f016020809104026020016040519081016040528092919081815260200182805461045190611511565b801561049e5780601f106104735761010080835404028352916020019161049e565b820191906000526020600020905b81548152906001019060200180831161048157829003601f168201915b5050505050908060010154908060040180546104b990611511565b80601f01602080910402602001604051908101604052809291908181526020018280546104e590611511565b80156105325780601f1061050757610100808354040283529160200191610532565b820191906000526020600020905b81548152906001019060200180831161051557829003601f168201915b50505050509080600501805461054790611511565b80601f016020809104026020016040519081016040528092919081815260200182805461057390611511565b80156105c05780601f10610595576101008083540402835291602001916105c0565b820191906000526020600020905b8154815290600101906020018083116105a357829003601f168201915b5050505050908060060154905085565b60606001805480602002602001604051908101604052809291908181526020016000905b828210156106a057838290600052602060002001805461061390611511565b80601f016020809104026020016040519081016040528092919081815260200182805461063f90611511565b801561068c5780601f106106615761010080835404028352916020019161068c565b820191906000526020600020905b81548152906001019060200180831161066f57829003601f168201915b5050505050815260200190600101906105f4565b50505050905090565b600080866040516106ba919061157e565b90815260200160405180910390209050858160000190816106db9190611741565b50838160050190816106ed9190611741565b50828160040190816106ff9190611741565b5081816006018190555060005b85518110156107cf5781600101600081548092919061072a9061149a565b91905055508160020160405180606001604052808460010154815260200188848151811061075b5761075a611813565b5b60200260200101518152602001600081525090806001815401808255809150506001900390600052602060002090600302016000909190919091506000820151816000015560208201518160010190816107b59190611741565b50604082015181600201555050808060010191505061070c565b506001869080600181540180825580915050600190039060005260206000200160009091909190915090816108049190611741565b50505050505050565b6060806000606060008086604051610825919061157e565b9081526020016040518091039020905080600501805461084490611511565b80601f016020809104026020016040519081016040528092919081815260200182805461087090611511565b80156108bd5780601f10610892576101008083540402835291602001916108bd565b820191906000526020600020905b8154815290600101906020018083116108a057829003601f168201915b505050505094508060040180546108d390611511565b80601f01602080910402602001604051908101604052809291908181526020018280546108ff90611511565b801561094c5780601f106109215761010080835404028352916020019161094c565b820191906000526020600020905b81548152906001019060200180831161092f57829003601f168201915b5050505050935080600601549250806001015467ffffffffffffffff81111561097857610977610d32565b5b6040519080825280602002602001820160405280156109b157816020015b61099e610b98565b8152602001906001900390816109965790505b50915060005b8160010154811015610ac3578160020181815481106109d9576109d8611813565b5b906000526020600020906003020160405180606001604052908160008201548152602001600182018054610a0c90611511565b80601f0160208091040260200160405190810160405280929190818152602001828054610a3890611511565b8015610a855780601f10610a5a57610100808354040283529160200191610a85565b820191906000526020600020905b815481529060010190602001808311610a6857829003601f168201915b50505050508152602001600282015481525050838281518110610aab57610aaa611813565b5b602002602001018190525080806001019150506109b7565b50509193509193565b60026020528060005260406000206000915054906101000a900460ff1681565b60018181548110610afc57600080fd5b906000526020600020016000915090508054610b1790611511565b80601f0160208091040260200160405190810160405280929190818152602001828054610b4390611511565b8015610b905780601f10610b6557610100808354040283529160200191610b90565b820191906000526020600020905b815481529060010190602001808311610b7357829003601f168201915b505050505081565b60405180606001604052806000815260200160608152602001600081525090565b6000604051905090565b600080fd5b600080fd5b6000819050919050565b610be081610bcd565b8114610beb57600080fd5b50565b600081359050610bfd81610bd7565b92915050565b600060208284031215610c1957610c18610bc3565b5b6000610c2784828501610bee565b91505092915050565b610c3981610bcd565b82525050565b6000602082019050610c546000830184610c30565b92915050565b600081519050919050565b600082825260208201905092915050565b60005b83811015610c94578082015181840152602081019050610c79565b60008484015250505050565b6000601f19601f8301169050919050565b6000610cbc82610c5a565b610cc68185610c65565b9350610cd6818560208601610c76565b610cdf81610ca0565b840191505092915050565b6000606082019050610cff6000830186610c30565b8181036020830152610d118185610cb1565b9050610d206040830184610c30565b949350505050565b600080fd5b600080fd5b7f4e487b7100000000000000000000000000000000000000000000000000000000600052604160045260246000fd5b610d6a82610ca0565b810181811067ffffffffffffffff82111715610d8957610d88610d32565b5b80604052505050565b6000610d9c610bb9565b9050610da88282610d61565b919050565b600067ffffffffffffffff821115610dc857610dc7610d32565b5b610dd182610ca0565b9050602081019050919050565b82818337600083830152505050565b6000610e00610dfb84610dad565b610d92565b905082815260208101848484011115610e1c57610e1b610d2d565b5b610e27848285610dde565b509392505050565b600082601f830112610e4457610e43610d28565b5b8135610e54848260208601610ded565b91505092915050565b600060208284031215610e7357610e72610bc3565b5b600082013567ffffffffffffffff811115610e9157610e90610bc8565b5b610e9d84828501610e2f565b91505092915050565b600060a0820190508181036000830152610ec08188610cb1565b9050610ecf6020830187610c30565b8181036040830152610ee18186610cb1565b90508181036060830152610ef58185610cb1565b9050610f046080830184610c30565b9695505050505050565b600081519050919050565b600082825260208201905092915050565b6000819050602082019050919050565b600082825260208201905092915050565b6000610f5682610c5a565b610f608185610f3a565b9350610f70818560208601610c76565b610f7981610ca0565b840191505092915050565b6000610f908383610f4b565b905092915050565b6000602082019050919050565b6000610fb082610f0e565b610fba8185610f19565b935083602082028501610fcc85610f2a565b8060005b858110156110085784840389528151610fe98582610f84565b9450610ff483610f98565b925060208a01995050600181019050610fd0565b50829750879550505050505092915050565b600060208201905081810360008301526110348184610fa5565b905092915050565b600067ffffffffffffffff82111561105757611056610d32565b5b602082029050602081019050919050565b600080fd5b600061108061107b8461103c565b610d92565b905080838252602082019050602084028301858111156110a3576110a2611068565b5b835b818110156110ea57803567ffffffffffffffff8111156110c8576110c7610d28565b5b8086016110d58982610e2f565b855260208501945050506020810190506110a5565b5050509392505050565b600082601f83011261110957611108610d28565b5b813561111984826020860161106d565b91505092915050565b600080600080600060a0868803121561113e5761113d610bc3565b5b600086013567ffffffffffffffff81111561115c5761115b610bc8565b5b61116888828901610e2f565b955050602086013567ffffffffffffffff81111561118957611188610bc8565b5b611195888289016110f4565b945050604086013567ffffffffffffffff8111156111b6576111b5610bc8565b5b6111c288828901610e2f565b935050606086013567ffffffffffffffff8111156111e3576111e2610bc8565b5b6111ef88828901610e2f565b925050608061120088828901610bee565b9150509295509295909350565b600081519050919050565b600082825260208201905092915050565b6000819050602082019050919050565b61124281610bcd565b82525050565b60006060830160008301516112606000860182611239565b50602083015184820360208601526112788282610f4b565b915050604083015161128d6040860182611239565b508091505092915050565b60006112a48383611248565b905092915050565b6000602082019050919050565b60006112c48261120d565b6112ce8185611218565b9350836020820285016112e085611229565b8060005b8581101561131c57848403895281516112fd8582611298565b9450611308836112ac565b925060208a019950506001810190506112e4565b50829750879550505050505092915050565b600060808201905081810360008301526113488187610cb1565b9050818103602083015261135c8186610cb1565b905061136b6040830185610c30565b818103606083015261137d81846112b9565b905095945050505050565b600073ffffffffffffffffffffffffffffffffffffffff82169050919050565b60006113b382611388565b9050919050565b6113c3816113a8565b81146113ce57600080fd5b50565b6000813590506113e0816113ba565b92915050565b6000602082840312156113fc576113fb610bc3565b5b600061140a848285016113d1565b91505092915050565b60008115159050919050565b61142881611413565b82525050565b6000602082019050611443600083018461141f565b92915050565b600060208201905081810360008301526114638184610cb1565b905092915050565b7f4e487b7100000000000000000000000000000000000000000000000000000000600052601160045260246000fd5b60006114a582610bcd565b91507fffffffffffffffffffffffffffffffffffffffffffffffffffffffffffffffff82036114d7576114d661146b565b5b600182019050919050565b7f4e487b7100000000000000000000000000000000000000000000000000000000600052602260045260246000fd5b6000600282049050600182168061152957607f821691505b60208210810361153c5761153b6114e2565b5b50919050565b600081905092915050565b600061155882610c5a565b6115628185611542565b9350611572818560208601610c76565b80840191505092915050565b600061158a828461154d565b915081905092915050565b60008190508160005260206000209050919050565b60006020601f8301049050919050565b600082821b905092915050565b6000600883026115f77fffffffffffffffffffffffffffffffffffffffffffffffffffffffffffffffff826115ba565b61160186836115ba565b95508019841693508086168417925050509392505050565b6000819050919050565b600061163e61163961163484610bcd565b611619565b610bcd565b9050919050565b6000819050919050565b61165883611623565b61166c61166482611645565b8484546115c7565b825550505050565b600090565b611681611674565b61168c81848461164f565b505050565b5b818110156116b0576116a5600082611679565b600181019050611692565b5050565b601f8211156116f5576116c681611595565b6116cf846115aa565b810160208510156116de578190505b6116f26116ea856115aa565b830182611691565b50505b505050565b600082821c905092915050565b6000611718600019846008026116fa565b1980831691505092915050565b60006117318383611707565b9150826002028217905092915050565b61174a82610c5a565b67ffffffffffffffff81111561176357611762610d32565b5b61176d8254611511565b6117788282856116b4565b600060209050601f8311600181146117ab5760008415611799578287015190505b6117a38582611725565b86555061180b565b601f1984166117b986611595565b60005b828110156117e1578489015182556001820191506020850194506020810190506117bc565b868310156117fe57848901516117fa601f891682611707565b8355505b6001600288020188555050505b505050505050565b7f4e487b7100000000000000000000000000000000000000000000000000000000600052603260045260246000fdfea26469706673582212200b3504e661ea3e6fbdfee9f0b475fb1372bf3da182d7a258811d1e97e972620964736f6c634300081b0033",
  "linkReferences": {},
  "deployedLinkReferences": {}
}