{
  "_format": "hh-sol-artifact-1",
  "contractName": "Election",
  "sourceName": "contracts/Election.sol",
  "abi": [
    {
      "inputs": [],
      "stateMutability": "nonpayable",
      "type": "constructor"
    },
    {
      "inputs": [
        {
          "internalType": "uint256",
          "name": "",
          "type": "uint256"
        }
      ],
      "name": "candidates",
      "outputs": [
        {
          "internalType": "uint256",
          "name": "id",
          "type": "uint256"
        },
        {
          "internalType": "string",
          "name": "name",
          "type": "string"
        },
        {
          "internalType": "uint256",
          "name": "voteCount",
          "type": "uint256"
        }
      ],
      "stateMutability": "view",
      "type": "function"
    },
    {
      "inputs": [],
      "name": "candidatesCount",
      "outputs": [
        {
          "internalType": "uint256",
          "name": "",
          "type": "uint256"
        }
      ],
      "stateMutability": "view",
      "type": "function"
    },
    {
      "inputs": [
        {
          "internalType": "string",
          "name": "_electionCode",
          "type": "string"
        },
        {
          "internalType": "string[]",
          "name": "_candidateNames",
          "type": "string[]"
        }
      ],
      "name": "createElection",
      "outputs": [],
      "stateMutability": "nonpayable",
      "type": "function"
    },
    {
      "inputs": [
        {
          "internalType": "uint256",
          "name": "",
          "type": "uint256"
        }
      ],
      "name": "electionCodes",
      "outputs": [
        {
          "internalType": "string",
          "name": "",
          "type": "string"
        }
      ],
      "stateMutability": "view",
      "type": "function"
    },
    {
      "inputs": [
        {
          "internalType": "string",
          "name": "",
          "type": "string"
        }
      ],
      "name": "elections",
      "outputs": [
        {
          "internalType": "string",
          "name": "eelectionCode",
          "type": "string"
        },
        {
          "internalType": "uint256",
          "name": "ecandidatesCount",
          "type": "uint256"
        }
      ],
      "stateMutability": "view",
      "type": "function"
    },
    {
      "inputs": [],
      "name": "getElectionCount",
      "outputs": [
        {
          "internalType": "uint256",
          "name": "",
          "type": "uint256"
        }
      ],
      "stateMutability": "view",
      "type": "function"
    },
    {
      "inputs": [
        {
          "internalType": "uint256",
          "name": "_candidateId",
          "type": "uint256"
        }
      ],
      "name": "vote",
      "outputs": [],
      "stateMutability": "nonpayable",
      "type": "function"
    },
    {
      "inputs": [
        {
          "internalType": "address",
          "name": "",
          "type": "address"
        }
      ],
      "name": "voters",
      "outputs": [
        {
          "internalType": "bool",
          "name": "",
          "type": "bool"
        }
      ],
      "stateMutability": "view",
      "type": "function"
    }
  ],
  "bytecode": "0x608060405234801561001057600080fd5b506100556040518060400160405280600b81526020017f43616e646964617465203100000000000000000000000000000000000000000081525061009e60201b60201c565b6100996040518060400160405280600b81526020017f43616e646964617465203200000000000000000000000000000000000000000081525061009e60201b60201c565b6104b2565b600460008154809291906100b190610152565b919050555060405180606001604052806004548152602001828152602001600081525060036000600454815260200190815260200160002060008201518160000155602082015181600101908161010891906103e0565b506040820151816002015590505050565b7f4e487b7100000000000000000000000000000000000000000000000000000000600052601160045260246000fd5b6000819050919050565b600061015d82610148565b91507fffffffffffffffffffffffffffffffffffffffffffffffffffffffffffffffff820361018f5761018e610119565b5b600182019050919050565b600081519050919050565b7f4e487b7100000000000000000000000000000000000000000000000000000000600052604160045260246000fd5b7f4e487b7100000000000000000000000000000000000000000000000000000000600052602260045260246000fd5b6000600282049050600182168061021b57607f821691505b60208210810361022e5761022d6101d4565b5b50919050565b60008190508160005260206000209050919050565b60006020601f8301049050919050565b600082821b905092915050565b6000600883026102967fffffffffffffffffffffffffffffffffffffffffffffffffffffffffffffffff82610259565b6102a08683610259565b95508019841693508086168417925050509392505050565b6000819050919050565b60006102dd6102d86102d384610148565b6102b8565b610148565b9050919050565b6000819050919050565b6102f7836102c2565b61030b610303826102e4565b848454610266565b825550505050565b600090565b610320610313565b61032b8184846102ee565b505050565b5b8181101561034f57610344600082610318565b600181019050610331565b5050565b601f8211156103945761036581610234565b61036e84610249565b8101602085101561037d578190505b61039161038985610249565b830182610330565b50505b505050565b600082821c905092915050565b60006103b760001984600802610399565b1980831691505092915050565b60006103d083836103a6565b9150826002028217905092915050565b6103e98261019a565b67ffffffffffffffff811115610402576104016101a5565b5b61040c8254610203565b610417828285610353565b600060209050601f83116001811461044a5760008415610438578287015190505b61044285826103c4565b8655506104aa565b601f19841661045886610234565b60005b828110156104805784890151825560018201915060208501945060208101905061045b565b8683101561049d5784890151610499601f8916826103a6565b8355505b6001600288020188555050505b505050505050565b610faf806104c16000396000f3fe608060405234801561001057600080fd5b50600436106100885760003560e01c8063349813b21161005b578063349813b2146101175780634a3ccc9614610133578063a3ec138d14610164578063df7125ff1461019457610088565b80630121b93f1461008d578063213785a0146100a95780632d35a8a2146100c75780633477ee2e146100e5575b600080fd5b6100a760048036038101906100a2919061068e565b6101c4565b005b6100b16102bd565b6040516100be91906106ca565b60405180910390f35b6100cf6102ca565b6040516100dc91906106ca565b60405180910390f35b6100ff60048036038101906100fa919061068e565b6102d0565b60405161010e93929190610775565b60405180910390f35b610131600480360381019061012c91906109ce565b610382565b005b61014d60048036038101906101489190610a46565b6104b6565b60405161015b929190610a8f565b60405180910390f35b61017e60048036038101906101799190610b1d565b610578565b60405161018b9190610b65565b60405180910390f35b6101ae60048036038101906101a9919061068e565b610598565b6040516101bb9190610b80565b60405180910390f35b600260003373ffffffffffffffffffffffffffffffffffffffff1673ffffffffffffffffffffffffffffffffffffffff16815260200190815260200160002060009054906101000a900460ff161561021b57600080fd5b60008111801561022d57506004548111155b61023657600080fd5b6001600260003373ffffffffffffffffffffffffffffffffffffffff1673ffffffffffffffffffffffffffffffffffffffff16815260200190815260200160002060006101000a81548160ff0219169083151502179055506003600082815260200190815260200160002060020160008154809291906102b590610bd1565b919050555050565b6000600180549050905090565b60045481565b60036020528060005260406000206000915090508060000154908060010180546102f990610c48565b80601f016020809104026020016040519081016040528092919081815260200182805461032590610c48565b80156103725780601f1061034757610100808354040283529160200191610372565b820191906000526020600020905b81548152906001019060200180831161035557829003601f168201915b5050505050908060020154905083565b600080836040516103939190610cb5565b90815260200160405180910390209050828160000190816103b49190610e78565b5060005b825181101561047b578160010160008154809291906103d690610bd1565b91905055508160020160405180606001604052808460010154815260200185848151811061040757610406610f4a565b5b60200260200101518152602001600081525090806001815401808255809150506001900390600052602060002090600302016000909190919091506000820151816000015560208201518160010190816104619190610e78565b5060408201518160020155505080806001019150506103b8565b506001839080600181540180825580915050600190039060005260206000200160009091909190915090816104b09190610e78565b50505050565b6000818051602081018201805184825260208301602085012081835280955050505050506000915090508060000180546104ef90610c48565b80601f016020809104026020016040519081016040528092919081815260200182805461051b90610c48565b80156105685780601f1061053d57610100808354040283529160200191610568565b820191906000526020600020905b81548152906001019060200180831161054b57829003601f168201915b5050505050908060010154905082565b60026020528060005260406000206000915054906101000a900460ff1681565b600181815481106105a857600080fd5b9060005260206000200160009150905080546105c390610c48565b80601f01602080910402602001604051908101604052809291908181526020018280546105ef90610c48565b801561063c5780601f106106115761010080835404028352916020019161063c565b820191906000526020600020905b81548152906001019060200180831161061f57829003601f168201915b505050505081565b6000604051905090565b600080fd5b600080fd5b6000819050919050565b61066b81610658565b811461067657600080fd5b50565b60008135905061068881610662565b92915050565b6000602082840312156106a4576106a361064e565b5b60006106b284828501610679565b91505092915050565b6106c481610658565b82525050565b60006020820190506106df60008301846106bb565b92915050565b600081519050919050565b600082825260208201905092915050565b60005b8381101561071f578082015181840152602081019050610704565b60008484015250505050565b6000601f19601f8301169050919050565b6000610747826106e5565b61075181856106f0565b9350610761818560208601610701565b61076a8161072b565b840191505092915050565b600060608201905061078a60008301866106bb565b818103602083015261079c818561073c565b90506107ab60408301846106bb565b949350505050565b600080fd5b600080fd5b7f4e487b7100000000000000000000000000000000000000000000000000000000600052604160045260246000fd5b6107f58261072b565b810181811067ffffffffffffffff82111715610814576108136107bd565b5b80604052505050565b6000610827610644565b905061083382826107ec565b919050565b600067ffffffffffffffff821115610853576108526107bd565b5b61085c8261072b565b9050602081019050919050565b82818337600083830152505050565b600061088b61088684610838565b61081d565b9050828152602081018484840111156108a7576108a66107b8565b5b6108b2848285610869565b509392505050565b600082601f8301126108cf576108ce6107b3565b5b81356108df848260208601610878565b91505092915050565b600067ffffffffffffffff821115610903576109026107bd565b5b602082029050602081019050919050565b600080fd5b600061092c610927846108e8565b61081d565b9050808382526020820190506020840283018581111561094f5761094e610914565b5b835b8181101561099657803567ffffffffffffffff811115610974576109736107b3565b5b80860161098189826108ba565b85526020850194505050602081019050610951565b5050509392505050565b600082601f8301126109b5576109b46107b3565b5b81356109c5848260208601610919565b91505092915050565b600080604083850312156109e5576109e461064e565b5b600083013567ffffffffffffffff811115610a0357610a02610653565b5b610a0f858286016108ba565b925050602083013567ffffffffffffffff811115610a3057610a2f610653565b5b610a3c858286016109a0565b9150509250929050565b600060208284031215610a5c57610a5b61064e565b5b600082013567ffffffffffffffff811115610a7a57610a79610653565b5b610a86848285016108ba565b91505092915050565b60006040820190508181036000830152610aa9818561073c565b9050610ab860208301846106bb565b9392505050565b600073ffffffffffffffffffffffffffffffffffffffff82169050919050565b6000610aea82610abf565b9050919050565b610afa81610adf565b8114610b0557600080fd5b50565b600081359050610b1781610af1565b92915050565b600060208284031215610b3357610b3261064e565b5b6000610b4184828501610b08565b91505092915050565b60008115159050919050565b610b5f81610b4a565b82525050565b6000602082019050610b7a6000830184610b56565b92915050565b60006020820190508181036000830152610b9a818461073c565b905092915050565b7f4e487b7100000000000000000000000000000000000000000000000000000000600052601160045260246000fd5b6000610bdc82610658565b91507fffffffffffffffffffffffffffffffffffffffffffffffffffffffffffffffff8203610c0e57610c0d610ba2565b5b600182019050919050565b7f4e487b7100000000000000000000000000000000000000000000000000000000600052602260045260246000fd5b60006002820490506001821680610c6057607f821691505b602082108103610c7357610c72610c19565b5b50919050565b600081905092915050565b6000610c8f826106e5565b610c998185610c79565b9350610ca9818560208601610701565b80840191505092915050565b6000610cc18284610c84565b915081905092915050565b60008190508160005260206000209050919050565b60006020601f8301049050919050565b600082821b905092915050565b600060088302610d2e7fffffffffffffffffffffffffffffffffffffffffffffffffffffffffffffffff82610cf1565b610d388683610cf1565b95508019841693508086168417925050509392505050565b6000819050919050565b6000610d75610d70610d6b84610658565b610d50565b610658565b9050919050565b6000819050919050565b610d8f83610d5a565b610da3610d9b82610d7c565b848454610cfe565b825550505050565b600090565b610db8610dab565b610dc3818484610d86565b505050565b5b81811015610de757610ddc600082610db0565b600181019050610dc9565b5050565b601f821115610e2c57610dfd81610ccc565b610e0684610ce1565b81016020851015610e15578190505b610e29610e2185610ce1565b830182610dc8565b50505b505050565b600082821c905092915050565b6000610e4f60001984600802610e31565b1980831691505092915050565b6000610e688383610e3e565b9150826002028217905092915050565b610e81826106e5565b67ffffffffffffffff811115610e9a57610e996107bd565b5b610ea48254610c48565b610eaf828285610deb565b600060209050601f831160018114610ee25760008415610ed0578287015190505b610eda8582610e5c565b865550610f42565b601f198416610ef086610ccc565b60005b82811015610f1857848901518255600182019150602085019450602081019050610ef3565b86831015610f355784890151610f31601f891682610e3e565b8355505b6001600288020188555050505b505050505050565b7f4e487b7100000000000000000000000000000000000000000000000000000000600052603260045260246000fdfea2646970667358221220f872fa987bb53e50d6e5b1923e62117f4d07fe25971ebcf4bc3c47069e6ace3a64736f6c634300081b0033",
  "linkReferences": {},
  "deployedLinkReferences": {}
}